:020000040002F8
:10600000000000001D600200DFF80CD000F012F864
:106010000048004725600200B4FC002001B5034899
:10602000004700000248804701BD000035600200C3
:1060300075930200064C074D06E0E06840F001034E
:1060400094E8070098471034AC42F6D3FFF7E0FF1E
:10605000B8050500D80505002DE9F05F05460020CC
:1060600092469B4688460646814640241BE02846C9
:1060700041464746224600F0EFFB53465A46C01AB7
:10608000914110D311461846224600F047F82D1AC8
:1060900067EB01084F4622460120002100F03EF840
:1060A00017EB00094E41201EA4F10104DFDC484635
:1060B00031462A464346BDE8F09F2DE9F0410024D1
:1060C000061B254671F1000605DA01240027D0EBF6
:1060D000070067EB0101161E73F1000605DA0027C1
:1060E000D2EB0702012567EB0303FFF7B5FF8646F6
:1060F0000E4617469C46AC4204D00025D0EB050E58
:1061000065EB010624B10020D2EB000760EB030C25
:10611000704631463A466346BDE8F081202A04DBEA
:10612000203A00FA02F1002070479140C2F12003AA
:1061300020FA03F31943904070470000004870476D
:106140007C0505000649074A0868504343F23902B6
:10615000104408604008704701490860704700001B
:10616000208D00206D4EC64140EA01039B0703D0FD
:1061700009E008C9121F08C0042AFAD203E011F886
:10618000013B00F8013B521EF9D27047D2B201E048
:1061900000F8012B491EFBD270470022F6E710B52C
:1061A00013460A4604461946FFF7F0FF204610BD85
:1061B00030B505462A460B4612F8010B13F8014B81
:1061C00008B1A042F8D01CB1002802D06D1CF1E744
:1061D000284630BD421C10F8011B0029FBD1801A53
:1061E000704710B5002200E0521C835C8C5CA34217
:1061F00001D1002BF8D1D8B2E1B2401A10BD30B5B0
:1062000004460020034600E05B1C934203D2E05C9E
:10621000CD5C401BF8D030BD10B508E00A4602E066
:10622000A34208D0521C1378002BF9D1401C0478EB
:10623000002CF3D1002010BD2DE9F04791460F4608
:1062400080460446002614F8015B2DB1FFF776FF67
:106250000068405DC007F6D12B2D02D02D2D18D03F
:10626000641E4A463946204600F018FB27B13968BB
:10627000A14201D1C7F8008071054FF002040BD58F
:106280004042002803DD01F063F90460A007BDE887
:10629000F08746F48066E4E70028F8DA01F058F960
:1062A00004606FF00040F2E7F0B480EA0102D40F1E
:1062B0004200B2EB410F02D20246084611464A00A4
:1062C00042D0C30DDDB2C1F3C752AD1A202D35DA6D
:1062D000C1F3160141F4000204B15242C5F1200697
:1062E00002FA06F12A411044B3EBD05F23D0C4B1C7
:1062F000012DA0EBC35009DCF0BC4FF0004202EAD4
:10630000C352DBB200F5000000F020BB400000F1FA
:10631000807000EBC350A0F1807040EAD17049005A
:1063200009E0490841EAC071A0EBC35000F5000044
:10633000400800EBC350F0BC00F0FFBA61420122FC
:1063400002EB4101001BF6E7F0BC704781F0004111
:10635000AAE780F00040A7E780EA010210B502F04A
:106360000043400022D04A001FD0010E01EB126111
:10637000C0F35600C2F3560240F4000042F400029B
:10638000A0FB022000047F39140400D0401C50EA16
:10639000124001D44000491EC2B20C0604EBD010DA
:1063A000401C4008802A02D003E0002010BD20F0ED
:1063B0000100002900DA0020184310BD30B480EA43
:1063C000010202F0004530F0004221F0004013D0FD
:1063D00090B1C30DD40DC2F31601C0F31600E41A38
:1063E00041F4000140F400027D34914201D3641C69
:1063F00000E04900002C02DA30BC002070474FF466
:1064000000000023914201D3891A034340084FEA58
:106410004101F7D151B1914202D14FF0004105E065
:1064200002D24FF0010101E06FF0010103EBC45013
:10643000284430BC00F081BA2DE9FE4F804681EA45
:106440000300C00F0C46009021F0004123F00045EE
:10645000B8EB0200A94105D24046214690461C46B1
:106460000B46024623F00040104347D0270DC7F3E8
:106470000A00C3F30A510290401A019040286BDAD7
:10648000C3F3130040F4801B0098924620B1002310
:10649000D2EB030A63EB0B0B01985946C0F14002A3
:1064A0005046FFF73BFE06460D4650465946019AB8
:1064B00000F0E2F910EB08006141002487EA115274
:1064C00084EAE7731A4340D0009A62B3019A012A22
:1064D0004FEA075215DC001B61EB02014FF000424E
:1064E00002EA0752CDE90042001C41F58011324614
:1064F0002B4600F068FA03B0BDE8F08F4046214615
:10650000F9E7001B61EB0201001C41F58013001844
:106510005B412018A2F5001747EB030140EAD57054
:10652000B6196D4111E06D084FEA360645EAC075AF
:106530004FEA0752001B61EB0201001C41F580117C
:1065400049084FEA30000019514132462B4603B04A
:10655000BDE8F04F00F028BA009801224000002367
:10656000D0EB020263EBE073009821464FEAE0743F
:10657000B8EB000061EB0401E9E783F000435BE75F
:1065800081F0004158E72DE9FE4F81EA030404F051
:10659000004421F0004100944FF0000B23F0004331
:1065A00050EA01045ED052EA03045BD0C3F30A54FC
:1065B000C1F30A552C44A4F2F3340194A0FB025415
:1065C000C1F3130141F48011C3F3130343F48013A7
:1065D00001FB024400FB034E840A970A44EA8154FB
:1065E00047EA8357A4FB076802958D0A05FB0785D8
:1065F0004FEA932C04FB0C542705029D4FEA0658E2
:1066000047EA1637B5EB08056EEB070C870E920EBE
:1066100047EA811742EA8312A7FB0201B6EB0B019E
:1066200064EB00042B0D43EA0C335E1844EB1C5062
:10663000DA465146E7FB0201C5F313044FEA0B3378
:1066400043EA14534FEA0432019C43EA0603A4F1DF
:106650000C040294009CCDE900B400F0B4F903B03E
:10666000BDE8F08F00200146F9E72DE9F04D81EA01
:10667000030404F0004B21F0004514464FF0000ADB
:1066800023F0004150EA050220D054EA01021DD057
:10669000C5F30A570246C5F31303C1F31300C1F350
:1066A0000A5640F4801543F48013A7EB0608101B2C
:1066B000D64608F2FD3873EB050002D308F1010855
:1066C00001E092185B41B8F1000F03DA00200146A7
:1066D000BDE8F08D00204FF48011064684460EE0A0
:1066E000171B73EB050705D3121B63EB050306436A
:1066F0004CEA010C49084FEA300092185B4150EA1D
:106700000107EDD152EA030012D082EA040083EAC5
:106710000501084305D0101BAB4106D2012200231E
:1067200006E000224FF0004302E06FF00102531038
:106730001AEB06004CEB085110EB0A0041EB0B0181
:10674000BDE8F04D00F030B9C10F80EAE0700844B8
:10675000CA079623002100F0F9B8962300221146BB
:1067600000F0F4B800F0004220F00040C10DC0F38A
:10677000160040F400007F2901DA002070479629B6
:1067800003DCC1F19601C84001E096398840002A37
:10679000F4D04042704720F00040C10DC0F3160015
:1067A00040F400007F2901DA00207047962903DCBD
:1067B000C1F19601C8407047963988407047C1F3CF
:1067C0000A5210B5C1F3130140F2FF3341F48011B6
:1067D0009A4201DA002010BD40F233439A42A2F2FD
:1067E000334203DC524200F037F810BD904010BD38
:1067F00000F0004230F000400AD0C10D01F5607198
:10680000C0F3160042EA0151C20840071143704725
:106810000020014670470000002801DBC0F1004065
:10682000002901DBC1F100418142704730B50B46C0
:10683000014600202022012409E021FA02F59D42B0
:1068400005D303FA02F5491B04FA02F52844151E84
:10685000A2F10102F1DC30BD202A04DB203A21FA4A
:1068600002F00021704721FA02F3D040C2F1200269
:106870009140084319467047202A06DBCB17203A7F
:1068800041FA02F043EAE07306E041FA02F3D04035
:10689000C2F1200291400843194670472DE9F05F8C
:1068A00082460078002715468B460AF10104B94656
:1068B000302801D09DB113E014F8010B012778288E
:1068C00003D0582801D045B10AE00DB1102D07D1F1
:1068D0000027102514F8010B02E0082500E00A2526
:1068E0000026B0460EE005FB080005FB06F1012777
:1068F00001EB10461FFA80F8B6F5803F00D3B94689
:1069000014F8010B294600F02DF90028EBDABBF151
:10691000000F05D00FB1641E00E05446CBF80040D4
:10692000B9F1000F06D000F013FE02210160C81E6D
:10693000BDE8F09F48EA0640FAE70029A8BF704783
:10694000401C490008BF20F00100704710B4B0FAA5
:1069500080FC00FA0CF050EA010404BF10BC704740
:1069600049B1CCF1200421FA04F411FA0CF118BF5A
:10697000012121430843A3EB0C01CB1D4FEA006129
:106980004FEA102042BF002010BC704700EBC350FC
:1069900010440029A4BF10BC7047401C490008BF28
:1069A00020F0010010BC704710B5141E73F10004F4
:1069B00008DA401C41F1000192185B411A4301D1F1
:1069C00020F0010010BD2DE9F04D92469B4611B11B
:1069D000B1FA81F202E0B0FA80F220329046FFF77D
:1069E0009DFB04460F4640EA0A0041EA0B0153466C
:1069F0005A46084313D0114653EA010019D0C8F192
:106A000040025046FFF728FF05460E4650465946BD
:106A10004246FFF783FB084305D0012004E02046EF
:106A20003946BDE8F08D0020054346EAE0762C4368
:106A300037430A986305E40AA0EB08000022FD0A28
:106A400044EA47540A3002D500200146E9E701052F
:106A500010196941DDE9084500196941BDE8F04DAB
:106A6000A2E72DE9F04D00231A461B1A8A4103DBE9
:106A700000200146BDE8F08DC1F30A52C1F31301B5
:106A800041F480154FF0000BD10702D100186D4181
:106A9000521E0027044640F2FF11384601EB620AFD
:106AA0003E468046024600204FF48011FFF7D4FE98
:106AB000C2197141BB1846EB0100B4EB030C75EB36
:106AC000000C04D3E41A65EB000517460E462419A2
:106AD00008F101006D4180463428E3DDF91946EBE9
:106AE0000600091BA84103D24FF0FF32134601E014
:106AF000002213461BEB070046EB0A51BDE8F04DA0
:106B0000FFF752BFC1F30A52C1F3130140F2FF3342
:106B100041F480119A4202DA00200146704740F2A7
:106B200033439A42A2F2334202DC5242FFF794BE50
:106B3000FFF7F4BA30B5041E71F1000404DB4FF026
:106B40000044404264EB0101141E73F1000405DBB4
:106B50001C464FF00043524263EB0403994208BFC6
:106B6000904230BD3A2800D2303820F02002412A2D
:106B700001D3A2F13700884201D34FF0FF307047B4
:106B800070B58C1810F8015B15F0070301D110F8EF
:106B9000013B2A1106D110F8012B03E010F8016B1C
:106BA00001F8016B5B1EF9D12B0705D40023521E9F
:106BB0000DD401F8013BFAE710F8013BCB1A921C07
:106BC00003E013F8015B01F8015B521EF9D5A14205
:106BD000D8D3002070BD000010B5094B1B68012BF5
:106BE00001D1772300E04F231A4604E0002100E0A2
:106BF000491C9142FCD3031EA0F10100F6D110BD47
:106C00006880002010B5094B1B68012B01D1772348
:106C100000E04F231A4604E0002100E0491C9142A5
:106C2000FCD3031EA0F10100F6D110BD6C80002042
:106C300010B50A4B1B68012B02D142F6746301E0C8
:106C400041F6FA631A4604E0002100E0491C914233
:106C5000FCD3031EA0F10100F6D110BD6880002016
:106C600010B50A4B1B68012B02D142F6746301E098
:106C700041F6FA631A4604E0002100E0491C914203
:106C8000FCD3031EA0F10100F6D110BD6C800020E2
:106C900070B594B0054602A812900E460AA8144694
:106CA000134613900AAA02A930461FF0A0FA618881
:106CB000491C09B2CDE9001488B1002012A90023B3
:106CC00051F8202004F14401284600F011F8214633
:106CD000284600F008F820B1002014B070BD012053
:106CE000ECE70120F9E70978490049B225F0E0B85E
:106CF0002DE9FF4FB5B00AA8DDE942841D4694F99D
:106D0000007036993A462E9025F0BEFA36983A46EB
:106D100000EB87011AA88A46064625F0B5FACDE9A8
:106D2000005412AB02AA31462E9800F092FBA8F153
:106D3000020005B222E02946379825F0E0FA002843
:106D40007AD0002212AE02AB06EB421B03EB4218D4
:106D5000C2F1010206EB421903EB42165B464246C2
:106D600049463046009400F0E8FA4B463246594610
:106D70004046009400F07CFA6D1E2DB2002DDADC46
:106D80000021379825F0BBFA002857D0002212A91D
:106D900001EB421302AE06EB4218C2F1010201EB15
:106DA000421506EB42169946424629463046009463
:106DB00000F0C3FA231D02AA009722A82E9925F0FD
:106DC000BDF922A92A462346084625F0A3F922A99F
:106DD00023460846369A25F09DF922A93B46221DF6
:106DE000084625F010F922A952462346084625F008
:106DF00091F922A932462346084625F08BF93246FE
:106E0000494640462B46009400F032FA234622AA17
:106E100012A902A802F0D4FA3A4602A9359825F040
:106E200033FA35983A4600EB870012A925F02CFA80
:106E300039B0BDE8F08FFFE7012283E70122A6E722
:106E40004FF4C8304FF44421886070474FF4C83085
:106E50004FF4442188607047022001490860704760
:106E600000100440022001490860704700100440EF
:106E700000200149086070470010044000200149CB
:106E8000086070470010044001200549086000BFF9
:106E90000448C068C0F300100028F9D17047000012
:106EA000001004400000074001200549086000BFB1
:106EB0000448C068C0F300100028F9D170470000F2
:106EC000001004400000074070B504460D462560E0
:106ED0000120FFF781FE00BF0348C06A00F00100F7
:106EE0000028F9D170BD00000000074070B50446CD
:106EF0000D4625600120FFF785FE00BF0348C06AEC
:106F000000F001000028F9D170BD0000000007402A
:106F100000204FF44421C860704700204FF4442102
:106F2000C860704702204FF44421C86070470220B7
:106F30004FF44421C86070474FF44421086840F082
:106F400001014FF44422116000BF4FF4442109684D
:106F500001F001010029F8D17047000010B5044686
:106F6000074820444FF4442148600120FFF760FEA9
:106F700000BF0448C06AC0F340000028F9D110BD2A
:106F8000000065840000074010B50446074820440F
:106F90004FF4442148600120FFF762FE00BF04481F
:106FA000C06AC0F340000028F9D110BD000065841C
:106FB0000000074070B505460C4616463246294685
:106FC000084800F011F804F0010229460548203075
:106FD00000F00AF8621029460248103000F004F868
:106FE00070BD00005000004030B5012404FA01F3E8
:106FF00004689C4302FA01F52C43046030BD000094
:1070000070B505460C46224629460548FFF7ECFFB9
:107010002CB9002229464FF04020FFF7E5FF70BD54
:107020002000004070B504460D4616460DB1012003
:1070300000E00020024621460648FFF7D5FF0EB9C2
:10704000012000E000200246214602480830FFF7F8
:10705000CBFF70BD1040004070B504460D462A4677
:1070600021460248FFF7C0FF70BD0000100000403D
:1070700070B588B00D46064624291BD00590062021
:107080000190042002900120CDE903050020034671
:10709000421E06900F4869460069FBF73FF840B270
:1070A000012804D040F22A210BA0F6F77DFB002036
:1070B00008B070BD0BF060FF040007D02A463146CF
:1070C000201DFFF751F8241D0594D8E76FF06800E4
:1070D000EEE70000C48600206D6573685F7175651A
:1070E00075652E6300000000002016F0BDBD000095
:1070F00070B50546002128461CF01EF8044604B170
:1071000005E040F2ED1203A10AA000F017FA2046B4
:1071100070BD00002E2E5C2E2E5C2E2E5C737263D2
:107120005C4D6573685C6D6573685F6465662E6849
:10713000000000006275660010B500211BF0FCFF26
:10714000002801D1AFF3008010BD10B500211BF065
:10715000F3FF002801D1AFF3008010BD10B500216E
:107160001BF0EAFF002801D1AFF3008010BD10B57D
:1071700000211BF0E1FF002801D1AFF3008010BD1A
:1071800010B500211BF0D8FF002801D1AFF300801B
:1071900010BD10B500211BF0CFFF002801D1AFF3C7
:1071A000008010BD10B500211BF0C6FF002801D1E2
:1071B000AFF3008010BD10B500211BF0BDFF00280B
:1071C00001D1AFF3008010BD6FF040400149486528
:1071D000886570470000074070B5064D43193F258C
:1071E00005FA01F41D68A54302FA01F635431D6056
:1071F00070BD00000000074070B504460D460CB994
:10720000002000E0122001462A465420FFF7E4FF48
:1072100070BD000030B5C410064D05EB8402440774
:10722000E30E14680F259D40AC4301FA03F52C438F
:10723000146030BD4400074010B50246064829B12D
:107240000368012494402343036004E0036801249D
:107250009440A343036010BD680007400249496899
:107260000143014A516070470000074001607047C8
:107270002DE9F04389B09146109C98460E4607468A
:1072800094F900500246231D494601A8009524F0B8
:1072900055FF01A92246084624F04CFF39462346F3
:1072A00001AA084624F036FF4946234601AA0846AB
:1072B00024F030FF4146231D32460846009524F055
:1072C0003DFF2246414601A824F034FF01A9231DB9
:1072D0003A460846009524F031FF01A9231D4A468D
:1072E0000846009524F02AFF4946231D3A460846E1
:1072F000009524F023FF314623464A46084624F0F1
:1073000009FF231D01AA39464846009524F016FFBF
:10731000414623464A46084624F0FCFE4146231DCA
:1073200032460846009524F009FF2A4601A948463E
:1073300024F0AAFF09B0BDE8F0832DE9F04399B02D
:107340001646209C99460F46804694F90050024606
:10735000231D314609A8009524F0F0FE09A9224614
:10736000084624F0E7FE4146234609AA084624F0D1
:10737000D1FE3146234609AA084624F0CBFE231D40
:107380003A46494609A8009524F025FE4946231DA2
:107390003A460846009524F0D1FE231D4246314668
:1073A00001A8009524F0CAFE3946234601AA0846E2
:1073B00024F0B0FE231D3246414601A8009524F07A
:1073C0000AFE22464946304624F0B4FE3146231DCB
:1073D00001AA0846009524F0B1FE231D324641461D
:1073E00011A8009524F0AAFE4946234611AA084692
:1073F00024F090FE4946231D3A460846009524F0A5
:107400009DFE224609A911A824F094FE11A9231D6E
:1074100001AA0846009524F091FE231D424611A9B9
:1074200001A8009524F08AFE01A9234609AA08466E
:1074300024F070FE3A46231D01A91046009524F061
:107440007DFE2A4611A9404624F01EFF19B0BDE872
:10745000F0832DE9F04389B08946DDE910141E461A
:1074600094F900501746804621B12A46684624F018
:107470000BFF05E02946684624F0CCFC0120009073
:107480002A464146384624F0FFFE2A464946304601
:1074900024F0FAFE23466A464946404601F090FF32
:1074A000D4F8A45023466A4649464046A847234696
:1074B0006A463146384601F083FF09B0BDE8F083E3
:1074C0000FB4054B10B503A9044A029800F00AFA5C
:1074D00010BC5DF814FB000015570300248D00203C
:1074E0000FB41CB50246002007AC00290BD0491E82
:1074F000CDE90021054B6A462146069800F0F2F9D5
:10750000009A002111701CBC5DF814FB7F840200FE
:107510007CB5044600201D46164600290BD0491EA6
:10752000CDE90041044B6A462946304600F0E2FBB3
:10753000009A002111707CBD9584020002A0FFF723
:10754000BFFF00BFFEE700006173736572740A003D
:1075500000487047288D002002E008C8121F08C1AB
:10756000002AFAD170477047002001E001C1121FC4
:10757000002AFBD1704700000149086070470000F5
:10758000288D002010B51C4613468C4205D8224693
:107590001946FEF7E9FD204610BD002010BD000091
:1075A0002DE9FF5F82B00021DDE90430020DDDF836
:1075B00040B0034318D044F61050A2F2FF324243C9
:1075C0001514119801281FD0A5EB0B00401C5FEA91
:1075D000000A4FF000064E4FDFF83891B046504693
:1075E00015D5CAF1000413E0119801244AA301281B
:1075F00001D16FEA0B010298119AC0E90031C0E98C
:10760000024206B0BDE8F09FCBF10000DFE7044680
:107610000021404A491842EB0450CDE9001012E025
:10762000E00707D032463B4640464946FEF7ABFFEF
:107630008046894632463B4610461946FEF7A3FF70
:1076400006460F466410002CEAD1DDE90401DDE9AD
:107650000023BAF1000F06DAFEF795FF42464B46CB
:10766000FEF791FF05E0FFF700F842464B46FEF7B4
:10767000FCFF04460E460022284BFFF75BFA03D8B6
:107680004FF0FF30014607E00022254B20463146EF
:10769000FEF7D2FEFFF736FA102409E0002C0ADBD1
:1076A0000A220023FEF7D8FC039B30321A55641ED1
:1076B00050EA0102F2D1641C039AC4F1110314448C
:1076C000119A012A03D0012208430DD10AE0084390
:1076D00004D000204FF0110B119072E7A3EB0B05C3
:1076E0006D1E0DE05B4504DD4FF0000205F1010564
:1076F00004E003DA4FF00002A5F10105002AECD006
:1077000002981199C0E90231C0E9004579E700000B
:10771000000014400000F03F300000000000F04383
:107720000000E03F2DE9F05F0F46DDE90CB6DDE932
:107730000AA881681D469146044659B133484078ED
:1077400018B915B10A20BDE8F09F486920B9B8F111
:10775000000F01D00720F6E797B3104604F0C6F8F3
:10776000002851D0A0688780A168A1F80690A06881
:10777000C17A65F30411C172A16881F808A0A168FB
:1077800081F80A80A16881F809B0A0684069A8B3AF
:10779000204607F0A9FC05461D480088C00408D50E
:1077A0001C480078C00704D02A461B491BA019F0CA
:1077B0005FF9A068FDB11830294612F0FEFE1DE009
:1077C000FFE788880028BED000208880A168C88094
:1077D000A168CA7A22F01002CA72A1680872A16870
:1077E0008872A1684872A068C17A21F0E001C17274
:1077F000A068416911B1183012F0B4FE16B12046EC
:107800000AF0C2FF00209EE703209CE7408500208D
:10781000FA800020FC80002014E5040025733A2043
:10782000706572696F64202575206D730A00000011
:1078300000998A78098818F06BBF70B50546C08832
:107840000C4608B1AFF3008005F11000627904F135
:1078500010010646FEF788FC607968716079304453
:10786000286070BD81680288C38809881A4408446A
:10787000801A103080B2704781680288C3880988F6
:107880001A440844801A103080B270478168028818
:10789000C38809881A440844801A103080B270479F
:1078A00081680288C38809881A440844801A103005
:1078B00080B270470A4A10B503461068014603E0DB
:1078C00004889C4203D280680028F9D101E0002896
:1078D00002D111B15068083810BD002010BD000061
:1078E000EC8600202DE9FF4F8DB00F46054600269F
:1078F00006E025280BD0DDE90F1290476D1C761CA1
:1079000028780028F5D111B03046BDE8F08F00246A
:10791000A246A1460122EC4900E0044315F8013FCC
:10792000203B02FA03F00842F7D128782A2810D029
:107930006FF02F022878A0F13001092914D80AEB42
:107940008A0102EB410144F0020400EB010A6D1CC4
:10795000F0E701CF5FEA000A03D544F40054CAF10E
:10796000000A44F002046D1C28782E2817D115F85F
:10797000010F44F004042A280ED06FF02F0228785B
:10798000A0F1300109290AD809EB890102EB410174
:1079900000EB01096D1CF2E757F8049B6D1C287879
:1079A0006C280FD006DC4C2817D068280DD06A2828
:1079B00014D104E0742810D07A280FD10DE044F4DB
:1079C00000140AE044F4801401E044F4401469789F
:1079D000814202D104F580146D1C6D1C2A786E2A38
:1079E0001FD00CDC632A31D004DC002A8BD0582A4B
:1079F00011D1A3E0642A68D0692A0CD165E0732A0A
:107A00002ED004DC6F2A73D0702A04D19BE0752A33
:107A10006FD0782A6ED01046DDE90F129047761CA1
:107A200050E1C4F30250022806D0032809D00428EC
:107A300001CF09D0066045E101CFF117C0E900612F
:107A400040E101CF06803DE106703BE117F8040BF1
:107A50008DF8000000208DF80100EB46012003E0C6
:107A600057F804BB4FF0FF3061074FF0000102D41C
:107A70000DE008F10101884649450FDA8045F8DB41
:107A80001BF808100029F4D108E008F1010188462C
:107A90008142FADB1BF808100029F6D1DDE90F233B
:107AA000AAEB08008146214600F0B6FC304400EB0A
:107AB000080604E0DDE90F121BF8010B9047B8F14E
:107AC0000108F7D221464846F7E00A21C4F30253E1
:107AD0004FF0000B0891022B04D001CFC117032BEC
:107AE00009D00AE0FF1D27F00707F7E8020108E0C8
:107AF00032E01FE020E000B2C117042B01D140B2F8
:107B0000C117031E71F1000307DA4FF0000CD0EB30
:107B10000C006CEB01012D2302E0230504D52B237F
:107B20008DF82430012303E0E30701D02023F7E799
:107B3000984658E00A2110E010210EE010204FF086
:107B4000000B08900CE010214FF0000B44F00404EF
:107B50004FF00809089103E008214FF0000B08914D
:107B6000C4F30253022B04D001CF0021032B06D013
:107B700006E0FF1D27F00707F7E8020103E080B2E7
:107B8000042B00D1C0B24FF0000823072BD5702A78
:107B900007D0DDF820C08CF0100C5CEA0B0C05D08F
:107BA0000EE040238DF82430012308E050EA010361
:107BB00006D030238DF824308DF8252002239846F6
:107BC000DDF820C08CF0080C5CEA0B0C0BD150EAFD
:107BD000010301D1630706D530238DF824304FF01F
:107BE0000108A9F10109582A04D038A20B9208AA69
:107BF0000A920BE03AA2F9E75B46089AFEF72CFAE4
:107C00000B9B9B5C0A9A521E0A92137050EA010267
:107C1000F2D10A98ADEB000000F1200B600702D50D
:107C200024F4803401E04FF00109D94502DDA9EBCD
:107C30000B0000E0002000EB0B0141440890AAEB90
:107C4000010AE00306D4DDE90F232146504600F087
:107C5000E3FB06444FF0000908E009A911F8090008
:107C6000DDE90F12904709F10109761CC145F4DBEB
:107C7000E0030CD5DDE90F232146504600F0CCFB94
:107C8000064404E0DDE90F1230209047761C089985
:107C9000481E08900029F5DC08E00A980A99007847
:107CA000491C0A91DDE90F129047761CBBF10001D7
:107CB000ABF1010BF1DC21465046DDE90F2300F06A
:107CC00087FB06446D1C1BE6092801003031323366
:107CD0003435363738396162636465660000000008
:107CE00030313233343536373839414243444546F2
:107CF000000000002DE9FF4F95B09B4689460646DF
:107D000000250FE2252877D100242746F84A0121D3
:107D1000059400E0044316F8013F203B01FA03F00C
:107D20001042F7D130782A2811D06FF02F03307825
:107D3000A0F13002092A16D8059A44F0020402EB99
:107D4000820203EB42021044761C0590EFE759F8DB
:107D5000042B0592002A03DA504244F400540590A3
:107D600044F00204761C30782E2816D116F8010F44
:107D700044F004042A280DD06FF02F023078A0F1CF
:107D80003003092B09D807EB870302EB4303C7181D
:107D9000761CF3E759F8047B761C30786C280FD0FA
:107DA00006DC4C2817D068280DD06A2814D104E0CE
:107DB000742810D07A280FD10DE044F400140AE0A2
:107DC00044F4801401E044F440147278824202D1F9
:107DD00004F58014761C761C307866280BD013DCF2
:107DE000582877D009DC002875D04528F6D04628D9
:107DF000F4D047281AD19DE118E0632835D06428D3
:107E000079D0652812D195E1702873D008DC6728F5
:107E1000F1D069286FD06E280DD06F2806D1B5E05B
:107E200073282CD0752875D0782874D05A461799A5
:107E300090476D1C75E1C4F30250022809D0032855
:107E40000DD0D9F8001004280DD00D6009F10409F7
:107E500067E1D9F80010EA17C1E90052F6E7D9F84E
:107E600000100D80F2E70D70F0E719F8041B8DF893
:107E7000001000208DF80100EA46012003E059F8C7
:107E800004AB4FF0FF3061074FF0000102D40DE06A
:107E900008F101018846B9420FDA8045F8DB1AF88B
:107EA00008100029F4D108E008F101018846814258
:107EB000FADB1AF808100029F6D105985B46A0EB0A
:107EC000080721463846179A00F0BDFA284400EB0F
:107ED000080507E04DE029E10DE01AF8010B5A46CC
:107EE00017999047B8F10108F7D25B46214638460A
:107EF000179A13E142E00A220092C4F302524FF0B3
:107F0000000A022A08D059F804CB032A4FEAEC7180
:107F10000AD00DE029E02AE009F1070121F007026B
:107F2000F2E802C1914609E00FFA8CFC4FEAEC71CD
:107F3000042A03D14FFA8CFC4FEAEC71002907DACE
:107F40000A460021DCF1000C61EB02012D2202E067
:107F5000220504D52B228DF80420012203E0E2073C
:107F600001D02022F7E7904659E00A2102E01022D2
:107F70000DE010214FF0000A00910BE010224FF0AD
:107F8000000A44F004040827009203E008224FF09E
:107F9000000A0092C4F30252022A05D059F804CB19
:107FA0000021032A08D009E009F1070121F00702A6
:107FB000F2E802C1914605E01FFA8CFC042A01D1C7
:107FC0000CF0FF0C4FF00008220728D5702806D0CF
:107FD000009B83F0100353EA0A0305D00EE0402211
:107FE0008DF80420012208E05CEA010206D030226C
:107FF0008DF804208DF8050002229046009B83F046
:10800000080353EA0A030AD15CEA010201D16207BC
:1080100005D530228DF804204FF001087F1E582826
:1080200004D034A003900EA802900DE036A0F9E72A
:1080300053466046009AFEF70FF884460398825C28
:108040000298401E029002705CEA0100F0D1029892
:1080500006A9081A00F1200A600702D524F480342A
:1080600000E00127574502DDA7EB0A0000E00020F1
:1080700000EB0A01009005984144401A0590E00386
:1080800006D45B462146179A059800F0DCF90544B2
:10809000002706E001A85A46C05D179990476D1C5D
:1080A0007F1C4745F6DBE0030CD55B462146179A5B
:1080B000059800F0C8F9054404E030205A461799A5
:1080C00090476D1C0099481E00900029F5DC08E0DF
:1080D000029802995A460078491C029117999047D4
:1080E0006D1CBAF10001AAF1010AF1DC65E10000A2
:1080F000092801003031323334353637383961627E
:108100006364656600000000303132333435363741
:1081100038394142434445460000000000F06AF906
:108120000544761C307800287FF4ECAD19B0284661
:10813000BDE8F08F620700D4062709F1070222F09C
:10814000070CFCE80223E14603F000485FEA080C54
:1081500002D00FF2702C0DE05FEA045C02D50FF242
:10816000682C07E05FEAC47C02D00FF2602C01E0CB
:10817000AFF2700C4FF0FF3823F00043CDF850C041
:1081800065280CD006DC452809D046281DD0472894
:108190003DD13DE0662818D067287ED138E0002127
:1081A000112F01DB112000E0781CCDE9000106A9A8
:1081B0000EA8FFF7F5F9DDE90F010E9A03910021F2
:1081C000009207F1010A04914DE04FF00040009742
:1081D000CDE9011006A90EA8FFF7E2F9DDE90F02CB
:1081E00003920E9B11990022DDF80CA000930492DB
:1081F00011B9791C00EB010AB7EB0A0004D4C0F1F5
:10820000FF3007F1010A0490AAEB0700019044E057
:10821000012F00DA01270021112F01DD112000E0DC
:108220003846CDE9000106A90EA8FFF7B9F9DDE946
:108230000F010E9A0391002104910092BA46210782
:108240000CD40399514500DA8A46BAF1010F05DDD5
:10825000009AAAF10101515C302908D0B84202DA33
:1082600010F1040F06DA0121CDE9011015E0AAF1A1
:108270000101E9E7002805DC049901440491AAEB17
:10828000000102E0411C514500DD8A460499401A74
:10829000401C01904FF000400290200704D4019848
:1082A000504501DBCDF8048000208DF84F00029886
:1082B0000DF14F07B0F1004F25D02B200E90029802
:1082C0004FF0020800280CDA404202902D200E9058
:1082D00007E00A210298FEF7A9FA3031029007F868
:1082E000011DB8F10001A8F10108F2DC0298002894
:1082F000EFD1791E0E980870307800F0200040F021
:10830000450007F8020D12A8C01B00F107081498D9
:10831000007800B1012000EB0A01019801EBE07147
:1083200005984144401A401E0590E00306D45B4680
:108330002146179A059800F086F8054414980078AD
:1083400018B15A46179990476D1CE00324D55B4637
:108350002146179A059800F076F805441CE0049829
:10836000002807DBDDE90301884203DD0098405C5B
:10837000179901E0179930205A469047049805F163
:108380000105401C04900198401E019004D12E204C
:108390005A46179990476D1CBAF10001AAF1010ADB
:1083A000DDDC05E017F8010B5A46179990476D1C64
:1083B000B8F10001A8F10108F4DC5B462146179AE8
:1083C0000598ABE62D0000002B0000002000000007
:1083D0002DE9F041044600251E461746880404D4C2
:1083E00005E039462020B0476D1C641EF9D52846AB
:1083F000BDE8F0812DE9F041044600251E461746F0
:10840000880404D405E039462020B0476D1C641E62
:10841000F9D52846BDE8F0812DE9F0410446002554
:108420001E469046C80301D5302700E02027880467
:1084300004D505E041463846B0476D1C641EF9D5A9
:108440002846BDE8F0812DE9F041044600251E468E
:108450009046C80301D5302700E02027880404D5C2
:1084600005E041463846B0476D1C641EF9D52846E4
:10847000BDE8F08113460A461946FDF787BE4A68F3
:10848000002A06D00A68531C0B6010704868401E12
:10849000486070474A68002A06D00A68531C0B607F
:1084A00010704868401E4860704700000748008808
:1084B000800509D506480078C00705D0054806495B
:1084C000027906A018F0DCBA70470000FA8000209C
:1084D000FC8000207485002030EE040025733A20D3
:1084E0007861637420257520636F6D706C657465A9
:1084F0000A00000010B50446807CFF2801D104F07A
:10850000ABF800EBC00101EB0010962101EB40013C
:10851000A0694FF0553303EA5003C01A4FF03332CD
:1085200000F0333302EA9000184400EB101000F022
:108530000F3000EB1020227C00EB104000F03F00D9
:1085400002F01F02101A00EBC00202EB001001EB58
:10855000800064304FF4C871884200DC084610BDCA
:108560002DE9F04104462046FEF7F7F80646094992
:10857000FDF724FF054629460648FDF7EDFE0746B0
:108580002946FDF7E9FE06460AF086FF80B2BDE8FF
:10859000F081000000FF7F471CB50A46014668468F
:1085A00000F03BF814E0684600F028F8C4B26846D2
:1085B00000F01DF8684600F014F8242C0FD0292C88
:1085C0000DD02A2C0BD02B2C09D0684600F02AF8AD
:1085D000684600F019F80028E5D101201CBD0020F4
:1085E0001CBD01468888801C0A68104470470146FB
:1085F0008A880868805C401EC0B27047014688883F
:10860000401C0A68105C704701468888CA889042FE
:1086100001DA012070470020FCE70260C1800023DE
:108620008380704710B5848803681A5D83885B1C5B
:108630009918FF2900DDFF21818010BD2DE9F0414F
:1086400016468846044603F0C7FE070004EB080000
:10865000A0F1010085B26FF015003BD0002C39D09D
:108660004FF400418C4235D2002D33D08D4231D2AF
:10867000B8F1000F2ED0002E2CD009F0DFF8014603
:108680003A89401E104480B26FF00A038D4204D331
:10869000844202D8401C30801BE0124F00204FF66D
:1086A000FF7C00BF00EB400101EBC00107EB410183
:1086B00001F53A714A8862450ED00A88097DA2F117
:1086C0000108414489B2954206D38C4204D8491C22
:1086D00031801846BDE8F081401C0428E2D3002018
:1086E000F8E700000C8700200249C0EBC00001EB56
:1086F0008000704708A30020024900EB800001EBD6
:10870000C0007047A0D7002010B54FF4C8720A21EE
:10871000002002F03BFE002806D1044901F2073098
:1087200018F0AEF9AFF3008010BD000021EE040098
:108730002DE9F04F0446806987B04FF0000BD0E977
:108740000056CDF804B0CDF808B0CDF80CB0A06953
:10875000417A012000EBD102554802EB8203806888
:10876000B0EB430F02DC02EB8200400087B201F065
:1087700007007843DFF83C91DFF83CA13C301FFA5A
:1087800080F899F800009AF800100840C00720D03F
:10879000E188206802F026FD0090A069E38847493F
:1087A000007A00F0030246A018F05CF999F8000086
:1087B0009AF800100840C0070BD0CDF80080A069DF
:1087C0003B463E49407A00F00702521C43A018F095
:1087D00049F9A06939490023007A343900F00300CF
:1087E0000122085C8DF81000A0798DF81100206836
:1087F0000590F8000521B0FBF1F0ADF80600ADF8EA
:1088000008008DF804B004A901A8CDF800B002F06A
:1088100019FD0746204618F015FB394632461DB1B2
:108820002C680CB14046A0471FB13A46234936A0F8
:108830002EE099F800009AF800104C460840574680
:10884000C00704D042461D4937A018F00BF9DFF8E5
:108850006080D8F8040011F0DDFE2078C00706D053
:108860003878800703D515493AA018F0FBF80020A6
:10887000314615B16A6802B1904798F800000028A7
:1088800008D0002002F072FD020006D00B4937A08C
:1088900018F0E8F807B0BDE8F08F2078C007F9D0ED
:1088A00038788007F6D505493BA018F0DBF8F1E7EA
:1088B000F4840020FA800020FC80002094DE040074
:1088C00025733A2074797065202575206F6D5F6C73
:1088D000656E2025753A2025730A000025733A201D
:1088E000636F756E7420257520696E74657276618C
:1088F0006C2025756D73206475726174696F6E20CC
:1089000025756D730A00000025733A204164766571
:1089100072746973696E67206661696C65643A2078
:108920006572722025640A0025733A2041647665D9
:1089300072746973696E6720737461727465642EF2
:1089400020536C656570696E67202575206D730A0C
:108950000000000025733A2041647665727420732C
:10896000656E74206F7665722E0A000025733A20BA
:1089700053746F7070696E67206164766572746994
:1089800073696E67206661696C65643A206572720E
:108990002025640A0000000025733A2041647665B2
:1089A00072746973696E672073746F707065640A9E
:1089B0000000000010B5818BA1F57F42FF3A07D07F
:1089C00090F82000012805D005F09AF8012801D080
:1089D000002010BD012010BD10B500200349087013
:1089E00001220A20E2F7B6FE012010BD4D800020D2
:1089F00070B50B461446DE00B6FBF4F2D109A2EBCB
:108A0000C112561C75084162B1F5803F00D209B908
:108A100000BFFEE74FF6FF76B14202D10026866224
:108A200001E0521A8562C66AC66270BD0146886955
:108A3000C0F34010704770B505460C46164600203E
:108A400028636864A86368606862A862E862284670
:108A5000D4E90312FFF7CCFF6078C0F38000C001B7
:108A6000217840EA4110A17840EA0110E17840EA1B
:108A7000C100617801F0030140EA4100E862A07A98
:108A8000617A40EA01206863AE632079400261792F
:108A900040EA0120A1790843E17940EAC130217A16
:108AA00040EA8130286370BD2DE9FE4380461446BC
:108AB0000F460A20FEF752FB814602AA01A9204672
:108AC00011F004FE224D234E2888C0040AD53078C8
:108AD000C00707D0BDF80430BDF808201E491FA00C
:108AE00017F0C6FF48F20301484606F0DBFA002300
:108AF000BDF80810BDF80400226800F09DF9044696
:108B00002888C00407D53078C00704D0224612490F
:108B10001BA017F0ADFF2146484618F04DF8BDF8F0
:108B20000820BDF80410484611F0BFFD00200346A0
:108B300000904A463946404606F022FD18B10649E3
:108B400014A017F095FF48461AF0E8F9BDE8FE8337
:108B5000FA800020FC80002041E5040025733A20C3
:108B600041707049647820307825303478204E6523
:108B700074496478203078253034780A0000000089
:108B800025733A2073746174757320307825303200
:108B9000780A000025733A20556E61626C65207476
:108BA0006F2073656E6420417070204B657920538F
:108BB000746174757320726573706F6E73650A00EB
:108BC000FEB5074614460E460A20FEF7C7FA0546CC
:108BD00002AA01A9204611F079FD24480088C004AA
:108BE0000BD523480078C00707D0BDF80430BDF886
:108BF0000820204920A017F03BFFBDF8040009F031
:108C0000CDFE58B1BDF8080002F070FE40B10188F9
:108C1000BDF80420914225D0112402E0042400E094
:108C2000002448F20301284606F03CFA2146284673
:108C300017F0C2FFBDF80820BDF80410284611F057
:108C400034FD0020034600902A463146384606F09F
:108C500097FC18B1074911A017F00AFF28461AF02F
:108C60005DF9FEBD012102F005FED9E7FA80002082
:108C7000FC80002070E5040025733A2041707049A3
:108C8000647820307825303478204E6574496478D3
:108C9000203078253034780A0000000025733A200F
:108CA000556E61626C6520746F2073656E6420413F
:108CB0007070204B657920537461747573207265F0
:108CC00073706F6E73650A002DE9F84F8146144684
:108CD00088460F20FEF742FA8246204617F0C8FF6A
:108CE0000646B0F5805F05D302462D492DA017F04A
:108CF000BFFE4FE033480088C00408D532480078F2
:108D0000C00704D03246264930A017F0B1FE48F221
:108D10000201504606F0C6F9304609F03FFE50B158
:108D200000242146504617F047FF3146504617F0C1
:108D300037FF14BB01E00424F3E74FF6FF75274F1C
:108D40002946002404EB840007EBC00000F55070B6
:108D50000288B24208D1A94201D1418804E0428888
:108D6000504611F0A2FC2946641CA4B2042CE9D39D
:108D7000A94202D0504617F013FF0020034600908E
:108D800052464146484606F0FBFB18B1044914A080
:108D900017F06EFE5046BDE8F84F1AF0BFB800005D
:108DA0007CE5040025733A20496E76616C69642085
:108DB0004E65744B6579496E64657820307825304E
:108DC00034780A00FA800020FC80002025733A20C5
:108DD000696478203078253034780A000C870020C8
:108DE00025733A20556E61626C6520746F2073653F
:108DF0006E64204170704B6579204C6973740A0071
:108E000030B50C4B00214FF6FF7400BF01EB81021F
:108E100003EBC20202F550721588A54204D05288B5
:108E2000824201D1012030BD491C0429EED300202B
:108E300030BD00000C8700202DE9FF4FDFF834A182
:108E40000646DFF83491BAF8000083B098468B46A6
:108E5000C0040FD599F80000C0070BD01021059869
:108E600002F0C0F9CDE900805B463246434944A098
:108E700017F0FEFD304609F091FD070033D058464B
:108E800002F034FD0446B8F1000F1CD034B1208844
:108E9000B04205D0112007B0BDE8F08F0320FAE7FB
:108EA000F87F04F11605012808D1207940B110227D
:108EB000681C0599FDF7A3F90028ECD00B20EAE720
:108EC0000120207117E084B12088B04206D1102221
:108ED000A01D0599FDF793F90028DCD02088B04249
:108EE00001D10620D7E70420D5E7584602F0ACFCB4
:108EF00004000CD0651D2946059805F01BF940B10A
:108F0000B8F1000F01D0002020710920C3E705202F
:108F1000C1E7BAF800005746C00409D599F8000027
:108F2000C00705D02B785A46144922A017F0A0FD9F
:108F30002680A4F802B01022681C0599FDF714F9E8
:108F40003888C00407D599F80000C00703D00B4942
:108F500020A017F08DFD204609F0C6FB08F03AFD71
:108F6000C06B20B108F036FDC16B0A208847002095
:108F700091E70000FA800020FC80002035E5040025
:108F800025733A206E65745F6964782030782530E7
:108F90003478206170705F696478202530347820DF
:108FA0007570646174652025752076616C20257369
:108FB0000A00000025733A206170705F69647820B0
:108FC00030782530347820414944203078253032BB
:108FD000780A000025733A2053746F72696E672017
:108FE0004170704B65792070657273697374656E3A
:108FF000746C790A0000000070B58AB016000C4647
:1090000001D0134600E047A3484949A0226817F061
:1090100043FD102200212068FDF70EF985B28EB1C4
:109020002320099009AA6946304620F04DF9040032
:1090300016D0034632463D4943A017F02DFD204689
:109040000AB070BD2A46394949A017F025FD2846C7
:1090500002F04CFC10B1002102F00CFC0020EFE704
:10906000099A232A07D0232330494AA017F014FD78
:109070006FF01500E4E7BDF8000009F08FFC28B19F
:10908000284602F033FC040009D00DE0BDF80020B2
:1090900026494BA017F000FD6FF00100D0E72846ED
:1090A00002F0D2FB040035D0BDF8000020806580BE
:1090B0009DF80200207110220DF10301A01DFDF7A3
:1090C00053F804F1170010220DF113010646FDF7C5
:1090D0004BF8A01D611D05F02DF8304604F1160176
:1090E00005F028F82A4611493EA017F0D5FC1021BA
:1090F000A01D02F077F802460C4946A017F0CCFC00
:109100001021304602F06EF80246084946A017F0DA
:10911000C3FCA3E7054949A017F0BEFC6FF00B00A4
:109120008EE70000286E756C6C2900002CFE040090
:1091300025733A20617267765B305D202573207657
:10914000616C2025730A000025733A204661696C22
:10915000656420746F206465636F64652076616C5C
:1091600075652025732028657272202564290A0000
:1091700025733A2044656C6574696E672041707090
:109180004B6579496E646578203078253033780AEC
:109190000000000025733A20556E65787065637491
:1091A00065642076616C7565206C656E67746820F7
:1091B00028256420213D20257A75290A0000000019
:1091C00025733A204661696C656420746F20666976
:1091D0006E64207375626E65742030782530337844
:1091E0000A00000025733A204170704B6579496E82
:1091F00064657820307825303378207265636F7627
:10920000657265642066726F6D2073746F7261673A
:10921000650A000025733A206170706B6579203013
:109220002025730A0000000025733A206170706BDE
:10923000657920312025730A0000000025733A204B
:109240004E6F20737061636520666F722061206EBF
:10925000657720617070206B65790A002DE9FE4307
:10926000804614460F460A20FDF778FF814602AA81
:1092700001A9204611F02AFA224D234E2888C00465
:109280000AD53078C00707D0BDF80430BDF80820F3
:109290001E491FA017F0ECFB48F20301484605F0F9
:1092A00001FF0123BDF80810BDF804002268FFF794
:1092B000C3FD04462888C00407D53078C00704D011
:1092C000224612491BA017F0D3FB2146484617F04F
:1092D00073FCBDF80820BDF80410484611F0E5F90C
:1092E0000020034600904A463946404606F048F9B9
:1092F00018B1064914A017F0BBFB484619F00EFE42
:10930000BDE8FE83FA800020FC8000204DE50400CB
:1093100025733A20417070496478203078253034C4
:1093200078204E6574496478203078253034780A86
:109330000000000025733A20737461747573203047
:1093400078253032780A000025733A20556E616224
:109350006C6520746F2073656E6420417070204BC3
:1093600065792053746174757320726573706F6EC4
:1093700073650A0010B500220E491046F4F750FA42
:109380000AF034F90BF0FEFF01F05CFC00220A4900
:109390000120F4F745FA00210846F4F783F907485D
:1093A0001FF08CFF07214FF4027015F0A5F9002083
:1093B00010BD000075340300ED92040059B10200A5
:1093C000F0B5164689B00F4604461D461A4631468A
:1093D000684622F0AFFE21462B466A46084622F038
:1093E00099FE69462B463246084622F093FE3946DE
:1093F0002B466A46084622F08DFE09B0F0BD70B5D6
:109400000E460546F8F74CFA2C6804EA0600286078
:10941000F8F766FA204670BD70B50E460546F8F7B7
:109420003FFA2C6804EA06002860F8F759FA20464B
:1094300070BD01F01F0301229A40490900EB810031
:10944000D143FFF7DCBF70B50E460446F8F728FAA3
:10945000256845EA06002060F8F742FA284670BD04
:1094600070B50E460446F8F71BFA256845EA060073
:109470002060F8F735FA284670BD01F01F0301227D
:109480009A40490900EB81001146FFF7DCBF01F06B
:109490001F0301229A40490900EB81001146FFF7A2
:1094A000DFBF10B501F01F0201249440490900EB11
:1094B0008100E143FFF7A3FF204000D0012010BD51
:1094C00010B501F01F0201249440490900EB81000E
:1094D000E143FFF7A1FF204000D0012010BD2DE99E
:1094E000F04101F01F0201259540490900EB81067A
:1094F000EF43F8F7D5F9346804EA07003060F8F76D
:10950000EFF92C4202D00120BDE8F0810020FBE7FA
:1095100010B501F01F0201249440490900EB8100BD
:109520002146FFF790FF204000D0012010BD70B50C
:109530000C460546F8F7B4F9600955F82050F8F7DD
:10954000CFF904F01F00054105F0010070BD70B5B2
:109550000C460546F8F7A4F9600955F82050F8F7CD
:10956000BFF904F01F00054105F0010070BD70B5A2
:109570000C460546F8F794F9600955F82050F8F7BD
:10958000AFF904F01F00054105F0010070BD0000B7
:109590002DE9F04180460D4616461C4604F116079B
:1095A000B8B200F0F1F808B9BDE8F08145F40075F3
:1095B00021490968214A12888F5220480088801C5E
:1095C0001E4908801C480068098845521B480088CD
:1095D000801C1A4908801A48018817480068174AF1
:1095E0001288815215480088801C1449088014484C
:1095F0000088401C124908800F4800680F4A1288F2
:1096000081184046F5F772F80C48008810300B4975
:10961000088009490968094A128888182246314693
:10962000FCF7A2FD0548008820440449088000F0AA
:10963000E5F800BFB8E70000C0800020C48000202B
:10964000C88000202DE9F04105460E4617461C460D
:1096500004F108081FFA88F000F096F808B9BDE890
:10966000F08120490968204A128821F802801E48AA
:109670000088801C1C4908801A48006809884652E6
:1096800019480088801C1849088018480088154926
:109690000968154A1288885213480088801C1249AC
:1096A000088012480088401C104908800D48006856
:1096B0000D49098845520C480088801C0A490880D9
:1096C00008490968084A1288881822463946FCF772
:1096D0004BFD0548008820440349088000F08EF8BF
:1096E00000BFBCE7C0800020C4800020C8800020EC
:1096F0002DE9F04385B005460C4616461F464FF04F
:109700000008C146E0B28DF8000017480088401CF0
:1097100080B2ADF801000DF103012846F4F7E6FF31
:1097200013236A46022142F60300FFF78BFF0E481F
:10973000B0F800803B46324621462846FFF728FF16
:1097400004F0300058B14FF485790020ADF80000E6
:1097500002236A46494642F60210FFF773FF40466D
:1097600005B0BDE8F0830000C88000201FB50446A6
:1097700069462046F4F7BAFF10236A4602214FF4E7
:109780002050FFF75FFF1FBD10B50446A01C84B238
:1097900006480088204406490988884201DC0120E7
:1097A00010BD04A0F3F7F6FF0020F9E7C480002005
:1097B000C68000206174745F64623A206F75742003
:1097C0006F66206D656D6F727900000070B505469B
:1097D0000C460648056006490C80002005490880B3
:1097E00001200549088000F009F870BDC080002004
:1097F000C6800020C4800020C880002000200649C8
:109800000968064A12888854002103480268034800
:109810000088401C11547047C0800020C480002084
:109820002DE9F04180460C4615461E46069F3B46F4
:1098300032462946204619F00DFD80B2BDE8F08180
:109840002DE9F84305460C4616461F46DDF82080F4
:10985000062C09D13B46324621462846CDF80080E9
:1098600014F09AFDBDE8F8830020FBE72DE9F843EA
:1098700081460C4615461E46DDE908783B463246D1
:1098800029462046CDF8008019F004FDBDE8F88394
:109890002DE9FC5F07460D4691469A46DDE90C84AA
:1098A000032D00D044D124212748FCF776FC00206A
:1098B000254908700846078145814FF0000B09F0E3
:1098C0005BFB0646214621A0FDF7FAFD36B922A032
:1098D000FDF7F6FD4FF0FF30BDE8FC9F2422214646
:1098E00023A0FDF7EDFD04F124007C2801D2012026
:1098F00000E0002020B940F21F1127A0F3F754FF29
:1099000006F128001049C8600846047406F1280BC7
:109910002422301DFCF728FC224641465846FCF71D
:1099200023FC04F12400C1B2301DFDF7A1FB09E0C6
:10993000062D07D153464A4629463846CDE90084CC
:1099400014F0E4FE0020C7E7BC90002073697A653C
:1099500020307825780A00007761726E696E672082
:109960006275666665722066756C6C0A00000000A0
:109970006275666665722073697A6520307825782D
:1099800020616E64206D6573685F6576656E742016
:10999000307825780A0000006D6573685F73727611
:1099A0002E63000070B50A4A05460C4612889004E2
:1099B00007D508480078C00703D0074907A017F06B
:1099C0005BF821462846BDE870401EF049B800000B
:1099D000FA800020FC800020BEEB040025733A20B2
:1099E0000A00000010B584680B480088800407D581
:1099F0000A480078C00703D009490AA017F03CF8CC
:109A00006068002806D04169002903D02068BDE8BD
:109A10001040084710BD0000FA800020FC800020A4
:109A200056EC040025733A200A00000070B50D4B77
:109A30000646144618880D46800407D50A48007863
:109A4000C00703D009490AA017F016F82246294694
:109A5000304600F011F829463046BDE870401DF050
:109A6000FFBF0000FA800020FC800020E0EB040033
:109A700025733A200A00000070B50546104617F01D
:109A80001FF904460B48008880040BD50A4800786B
:109A9000C00707D0012C0BD008A32246084909A013
:109AA00016F0EAFF21462846BDE8704001F076BF77
:109AB00008A3F2E7FA800020FC8000207300000079
:109AC000CCEB040025733A202575207365636F6E17
:109AD0006425730A000000002DE9FE431F460B4673
:109AE00000F12101154604460822884618460A9EC0
:109AF000FCF785FB28BB01A800903B46424629465F
:109B000004F1490001F0B6FF082201A93046FCF734
:109B100076FBC8B10D480078800712D50C48007854
:109B200040070ED5082101A801F05CFB044608217E
:109B3000304601F057FB02462346064906A016F0C0
:109B4000A9FF0020BDE8FE830120FBE7FA8000208A
:109B5000FC80002019FD040025733A2041757468CB
:109B6000656E7469636174696F6E2056616C7565AA
:109B700020257320213D2025730A000010B50C46D6
:109B800008490978C90608D507490978C90704D0E2
:109B90000246064906A016F067FF10F04CFD206053
:109BA00010BD0000FA800020FC800020C4DF04000B
:109BB00025733A206572722025640A00FEB50746B7
:109BC00014460D460720FDF7C9FA064619480088D5
:109BD000C00412D518480078C0070ED0E18820686C
:109BE00001F000FBE188AA880092CDE901106B88A2
:109BF0002A88124912A016F03BFF48F20B013046AA
:109C000005F050FA02F078F80146304616F0D4FF1D
:109C100000200346009032462946384605F0B0FC45
:109C200018B1064915A016F023FF3046BDE8FE40E6
:109C300019F074B9FA800020FC80002088E5040047
:109C400025733A206E65745F69647820307825301A
:109C50003478206170705F69647820307825303402
:109C6000782073726320307825303478206C656EEC
:109C70002025753A2025730A0000000025733A203C
:109C8000556E61626C6520746F2073656E6420434D
:109C90006F6E66696720426561636F6E2053746101
:109CA00074757320726573706F6E73650A000000BF
:109CB00070B509F0F9F8214C08B1A16835E02048E9
:109CC0000078C00607D51F480078C00703D01E499A
:109CD0001EA016F0C9FE04F013F958B31DA0FDF73D
:109CE000EFFB6078204D90F00100607013D14FF6CB
:109CF000FF720346C0EBC001C1EB801105EB81018F
:109D000001F578718E8B964202D04E790E714B71AF
:109D1000401C0228EED31DF0C5F901F0EDFF01282B
:109D200002D06868800108D5E168BDE870400F483E
:109D300010F043BC22F07EFBBFE770BD1885002009
:109D4000FA800020FC80002017E0040025733A20F0
:109D50000A00000073656375726520626561636F58
:109D60006E2073656E740A000C87002090A8002096
:109D700070B505460E461720FDF70BFA0446012183
:109D800016F030FF2146304601F004FF2246012143
:109D900028461BF05DFF0546204619F0BFF828460F
:109DA00070BD00002DE9FE4F824615460E46072085
:109DB000FDF7D4F9344F8146DAF818403888DFF8D7
:109DC000CC80C00412D598F80000C0070ED0E988F6
:109DD000286801F007FAE988B2880092CDE90110FD
:109DE000738832882A492BA016F042FE9CB128685D
:109DF0000278002A1BD0012A19D03888C00440D527
:109E000098F8000040073CD503B02149BDE8F04F69
:109E10002FA016F02DBE3888C00415D598F8000084
:109E2000400711D51A4934A016F022FE0CE0E07963
:109E3000824209D0E27108F08DFCE07910B101F0A6
:109E400035FF01E001F026FF48F20B01484605F01E
:109E500029F901F051FF0146484616F0ADFE0020F9
:109E6000034600904A463146504605F089FB18B13A
:109E700007492DA016F0FCFD4846BDE8FE4F19F03D
:109E80004DB8BDE8FE8F0000FA800020FC80002065
:109E900093E5040025733A206E65745F6964782049
:109EA000307825303478206170705F6964782030B4
:109EB00078253034782073726320307825303478F8
:109EC000206C656E2025753A2025730A000000007D
:109ED00025733A20496E76616C696420436F6E6623
:109EE000696720426561636F6E2076616C756520DD
:109EF0003078253032780A0025733A204E6F20439F
:109F00006F6E66696775726174696F6E20536572F2
:109F100076657220636F6E7465787420617661690E
:109F20006C61626C650A000025733A20556E6162AF
:109F30006C6520746F2073656E6420436F6E666974
:109F40006720426561636F6E20537461747573207E
:109F5000726573706F6E73650A0000002DE9F04141
:109F600005461A48884616460088800509D51848CF
:109F70000078C00705D013462A46164916A016F0E9
:109F80007FFD19F05DFFFEF7BFFB04001BD0194FEA
:109F9000D7F82C1116F0FBFD0021204616F00CFE20
:109FA000032000EB8500C1B2204616F005FE3246C4
:109FB0004146204618F032FFC7F84C411EF08CFD98
:109FC0000020BDE8F0816FF06800FAE7FA80002019
:109FD000FC8000204FEE040025733A206F70203083
:109FE000782530327820646174615F6C656E20255D
:109FF000750A000078AE00202DE9FC47474E8146E7
:10A00000474D96F83400474F474C0B284DD007F08A
:10A0100093F96FF06808002853D001F03BFE002050
:10A020001FF022F92888800506D53878C00703D0AC
:10A030003E493FA016F024FD02213848FFF777FA89
:10A0400058B12888800506D53878C00703D037492D
:10A050003CA016F015FD1CF0EFFA19F0F1FEFEF72A
:10A0600053FB050037D00EF05FFFD0360146F06598
:10A07000284616F08CFD0021284616F09DFD032190
:10A08000284616F099FD10224946284618F0C6FECB
:10A09000F5671EF021FD0B2006F89C0C207800F1DE
:10A0A00001002070E078C8B136E02888800533D5FB
:10A0B0003878C00730D022781C4928A016F0E0FC80
:10A0C0002AE02888800506D53878C00703D01749CC
:10A0D0002DA016F0D5FC4046BDE8FC8700201249B3
:10A0E0000090891D019001F11C0000F0ADFB08F00B
:10A0F0009DFAA0798DF80000D4F82200CDF8010077
:10A10000E08CADF805000722694624200FF05CFAC8
:10A110000120E07008F08CFA0020DDE778AE002026
:10A12000FA800020FC800020748500205FEE04008F
:10A1300025733A206C696E6B2065737461622E2EF4
:10A140002E200A0025733A20636C72206C696E6BB6
:10A15000206163746976650A0000000025733A2067
:10A160006475706C6963617465206C696E6B206FD7
:10A1700070656E206D6573736167652C2073656E05
:10A18000742025640A00000025733A206E6F207247
:10A1900065736F7572636520666F72206E657720D8
:10A1A0006E6F64650A0A0000F0B50446007889B055
:10A1B0000D46002798B10120274E2860B08898B13D
:10A1C0000A2231462046FCF71AF8E8B3287800F056
:10A1D00067FA287800F07CF930B1AFF300800220F4
:10A1E0001D4E28600A3EE9E701A81C21FBF7D5FFB8
:10A1F000019840F010000190207828B1019840F0BB
:10A20000010040F002000190A08803906088029055
:10A21000A07900B907208DF81000207A0199104B21
:10A2200060F3C3010D480191002200788DF8110000
:10A2300000200090287801A900F094F8070007D1C9
:10A2400020683060606800E002E070602089308142
:10A2500009B03846F0BD000072AB002070850020C8
:10A2600065A2020070B5044626482749007809789F
:10A270000840C00704D02278244925A016F0F2FB3C
:10A280002078072820D0132835D1241D0021254807
:10A2900018F065FE050030D0E27B216918F0BEFDA4
:10A2A00020B11A4920A016F0DDFB21E025486168A5
:10A2B0002B460160218981802349E0780870A278CB
:10A2C00094F90A10E01C11E0241D0021154818F033
:10A2D00046FE050011D06278E16818F09FFD002865
:10A2E000DFD1227894F909102B46A01C08F022F93E
:10A2F000284618F013FE002070BD04490AA016F08D
:10A30000B1FBF8E7FA800020FC800020D1DE0400D9
:10A3100025733A206576656E742D3E7479706520DC
:10A3200025640A00E0A2002025733A20436F756C73
:10A3300064206E6F7420617070656E642064617457
:10A34000610A000090850020798500201CB500205E
:10A35000009001900622694622200FF035F9002076
:10A360001CBD000070B50C4600218CB00D460A9152
:10A37000099100910191032802D316200CB070BD01
:10A38000434A444902281288097803D001280DD095
:10A39000AFF30080D00705D0880703D53E493FA022
:10A3A00016F060FB0626694641480AE0D00705D052
:10A3B000880703D538493FA016F054FB07266946A5
:10A3C0004248F4F7A2F92068C1064FEAC07106D4EA
:10A3D00009B1012509E0810707D5022505E001B192
:10A3E0000125810701D545F00205410701D545F05A
:10A3F0000405010701D545F00805C00601D545F063
:10A4000010051C2102A8FBF7C8FE8DF808608DF826
:10A41000095060680390A0680490207B8DF81400B8
:10A42000607B8DF81500A07B8DF81600607D8DF89F
:10A430001D00207E8DF81E00A07D8DF81F00E07DA0
:10A440008DF82100607E8DF8220020781C22C0F358
:10A45000C0108DF82300D4F80F00CDF81700B4F821
:10A460001300ADF81B0002A925200FF0ADF88DF800
:10A4700024600098CDF82500BDF80400ADF829004F
:10A48000072209A927200FF09FF8002076E7000097
:10A49000FA800020FC80002054DF040025733A205D
:10A4A00070625F6164762068616E646C650A0A00A0
:10A4B00034A9002025733A2070625F70726F78793A
:10A4C0002068616E646C650A0A00000024A90020FF
:10A4D00000207047FEB50446134815460E46007826
:10A4E000C0070AD011480078800706D50123022250
:10A4F0000F4910A0009416F0B5FA022C04D0012CDC
:10A5000004D04FF0FF30FEBD062000E007208DF89C
:10A5100004008DF80550082201A9212002960FF0B1
:10A5200053F80020FEBD0000FA800020FC800020CF
:10A530006EDF040025733A2061647620696E732013
:10A540003078257820676174742030782578206908
:10A550006E7320307825780A0A000000FEB50446A4
:10A56000134815460E460078C0070AD011480078F7
:10A57000800706D5012302220F4910A0009416F08F
:10A5800071FA022C04D0012C04D04FF0FF30FEBD34
:10A59000062000E007208DF804008DF80550082201
:10A5A00001A9282002960FF00FF80020FEBD000040
:10A5B000FA800020FC800020A1DF040025733A20EF
:10A5C00061647620696E7320307825782067617425
:10A5D00074203078257820696E7320307825780AC9
:10A5E0000A0000001FB5204CADF802108DF80420C1
:10A5F0001B4A1C4902281288097805D0012811D06D
:10A600004FF0FF3004B010BDD00705D0880703D548
:10A61000164917A016F026FA06208DF80000D4E996
:10A6200005010CE0D00705D0880703D50F4915A018
:10A6300016F018FA07208DF80000D4E90701CDE9DB
:10A6400002010098CDF80A00BDF80400ADF80E0034
:10A65000082202A923200EF0B7FF0020D2E7000055
:10A66000FA800020FC80002060DE04008BDF040004
:10A6700025733A2061647620656E616C626C650AB0
:10A680000A00000025733A2070625F6761747420CD
:10A6900061647620656E61626C650A0A00000000E4
:10A6A0001FB50021ADF802108DF8041011490228E1
:10A6B00005D0012809D04FF0FF3004B010BD0620AE
:10A6C0008DF80000D1E9090104E007208DF80000B1
:10A6D000D1E90B01CDE902010098CDF80A00BDF8DF
:10A6E0000400ADF80E00082202A923200EF06CFF32
:10A6F0000020E2E760DE0400F0B589B00021DDE96A
:10A7000010320E9C03B101210AB141F00401A1B342
:10A7100001260327374D052932D0012957D08DF85E
:10A7200000701179643501F001018DF80110118874
:10A73000ADF802105188ADF804102ECD03AE2EC630
:10A740008DF80C0000980490BDF804008DF80D40C1
:10A75000ADF81400102203A926200EF035FF25497C
:10A7600006228039D1E90301CDE9070107A922209A
:10A770000EF02AFF002009B0F0BDFFE71620FAE72F
:10A780008DF8006019790DF1100C01F001018DF8C0
:10A7900001101988ADF802105988ADF804108DF831
:10A7A0000670117901F001018DF807101188ADF8DC
:10A7B00008105188ADF80A10696C03918DF80C00EF
:10A7C0008DF80D409DE80700ACE80700C2E78DF862
:10A7D00000601979543501F001018DF801101988D4
:10A7E000ADF802105988ADF804102ECD03AF2EC776
:10A7F000A6E70000E0DE0400024AC2E900010020F2
:10A8000070470000108500200020704710B5DBF76E
:10A8100007FE002010BD10B50346488841F6280405
:10A82000A04203D101201080002010BD488841F6CD
:10A830002704A04203D1012010800020F5E74FF04B
:10A84000FF30F2E700207047034AD3690360138C9E
:10A850008380507908707047748500202DE9F04797
:10A860000026002700244FF020084FF00509322071
:10A870003D4908603D49086047F6FF703C49088043
:10A8800000BF35E040F2CF70844202D1002700269D
:10A8900022E008FB04F1C822B4FBF2F202FB09F04B
:10A8A0004FF6FF72914201D2521A00E0002297B295
:10A8B000322802D2C0F1320200E00022D6B20FB933
:10A8C000002201E0C0F13202D6B2274A1268964255
:10A8D00001D9254A167800BF3146384600F072F992
:10A8E000002500E06D1C40F2DC508542FAD3641C68
:10A8F000B4F5FA6FC6D300242FE040F2CF70844243
:10A9000003D14FF6FF7732261BE008FB04F0C82284
:10A91000B4FBF2F202FB09F1B0F5803F02D34FF62F
:10A92000FF7200E0024697B2322901D9322200E0DC
:10A930000A46D6B20C4A1268964201D90A4A1678DB
:10A9400000BF3146384600F03DF9002500E06D1C9F
:10A9500040F2DC508542FAD3641CB4F5FA6FCCD3D4
:10A960000020BDE8F0870000408000203C800020EF
:10A970003480002010B5044600200349087003A06D
:10A98000FCF79EFD10BD00004C80002073746F70BA
:10A9900020627265617468206D6F64650A00000052
:10A9A00010B5044600F008F938B14FF4FA610548D3
:10A9B0000FF003FEFFF752FF02E003A0FCF780FD5B
:10A9C00010BD000060900020756E62696E64206D9D
:10A9D0006F64652066696E6973680A0010B500F0DF
:10A9E000C5F820F0C9FF00F00BF8034903480FF049
:10A9F000C4FD002010BD00000DAC020074900020CA
:10AA000070B54848B0F9000000F5004446480068B9
:10AA1000C0F164004FF4964148436421B0FBF1F06B
:10AA200000F5487541490C8045EA044040494862B8
:10AA3000C8610846406A000C3E4908803C482A46E6
:10AA40002146436A3CA0FCF73BFD4148007820B119
:10AA5000012040490870487003E000203D4908701B
:10AA600048703348C06938B13148C069000C30497A
:10AA700008830846808B48832D48008B36494881DF
:10AA80002B48408B2A4988803348406938B1324886
:10AA90004069000C304908820846808AC8812448F1
:10AAA000406938B122484069000C214908820846B3
:10AAB000808AC8812948007820B101280AD002285C
:10AAC00029D10FE0002023490870092102201EF03F
:10AAD000B5FC20E001201F490870092102201EF06A
:10AAE000ADFC18E01248406A000C1B49088108467A
:10AAF0000089A0F5004000B2194908800C48808CFC
:10AB00000B49888014480089134988800921012055
:10AB10001EF094FC00BF00BF124800781249087074
:10AB200070BD00003480002040800020D8840020C8
:10AB3000E8810020D48400207431203078257820EA
:10AB400074322030782578203320307825780A0038
:10AB50003280002068810020B0810020A98100207F
:10AB600080810020A8810020E184002000200D4980
:10AB7000087002200C49087001200C49C8814FF66A
:10AB8000FF700882088148814FF448700849C881E5
:10AB900044F6206008824FF44870488305484862B4
:10ABA00070470000A8810020A9810020B08100200A
:10ABB000E88100202003FFFF014800787047000073
:10ABC0004C8000202DE9F04104468846642004FBB7
:10ABD00000F60027002504B90BE04FF6FF70844211
:10ABE00001D1642705E0370CB0B2B0F5004F00D9B1
:10ABF0007F1CF8B2002100F0E1F8C5B22A462946D0
:10AC000028461EF03DFB0020BDE8F08110B504464B
:10AC100004A0FCF755FC082209490920E0F79AFD39
:10AC200010BD0000666C61736820777269746520DE
:10AC30006C6967687420706172616D0A00000000C1
:10AC4000448000202DE9FE4F0024A04601203C490D
:10AC5000087000200190029000274FF00509694616
:10AC60000920E0F743FD07463FB1BDF90000002889
:10AC700003DD3868019078680290019C14B1601C73
:10AC8000002836D132202F4908602F49086047F646
:10AC9000FF702E4908804FF6FF70001B000C4FF428
:10ACA000FA61B0FBF1FABAF1000F01D14FF0010ADD
:10ACB000002513E009FB05F0C821B0FBF1F000F01E
:10ACC000FF0841464FF6FF70FFF77CFF002600E0CB
:10ACD000761C41F696308642FAD36D1CB5F5FA6FB4
:10ACE000E8D34FF6FF701A49088000201949088000
:10ACF00022E0A4F5004000B2144908809DF80B1032
:10AD000015A0FCF7DDFB9DF80B0028B1322211469F
:10AD100010461EF0B5FA04E00022114610461EF05F
:10AD2000AFFA0120134908709DF80B0008B101200B
:10AD300000E00020104908700020BDE8FE8F0000F0
:10AD400030800020408000203C80002034800020A3
:10AD5000D8840020DA8400206C617374206C6967E9
:10AD60006874207374617475732030782578200AB4
:10AD700000000000318000203280002010B5FFF775
:10AD80001BFF40B100200549087005480FF0EAFBA1
:10AD900004A0FCF795FB002010BD00004C800020B3
:10ADA0004C900020627265617468206D6F6465204C
:10ADB00073746F707065640A0000000030B503465C
:10ADC0004FF48074084601EBD0756D10A1EB45057A
:10ADD0002DB903FB04F06425B0FBF5F205E003FB9D
:10ADE00004F06425B0FBF5F0221AB2F5807F01D1A2
:10ADF000FF2030BD1046FCE710B504460C490D4855
:10AE00000FF0BBFB0C490D480FF0B7FB214609487A
:10AE10000FF0D3FB4FF4FA6108480FF0CEFB01208E
:10AE20000749087007A0FCF74BFB012010BD00008C
:10AE300075A902004C900020A1A90200609000209A
:10AE40004C800020756E62696E64206D6F646520B1
:10AE500073746172740A00002DE9F04104460078B1
:10AE6000274E284F284D20B1012823D00E2835D059
:10AE700043E020891AF032FC6878012802D1208949
:10AE800006F088FB0120A87003F03AF878B10220A0
:10AE900068701E480FF066FB308840052DD5387865
:10AEA00080072AD51A491BA015F0ECFD25E00120EA
:10AEB0006870F1E7208B61681AF078FC0020A870B8
:10AEC0003088400506D53878800703D5104916A08C
:10AED00015F0D8FD01200FF03DFD0EE01749E08888
:10AEE0008A88904203D1A0881AF04EFA05E0498979
:10AEF000884202D1A08818F05FFF0020BDE8F081F1
:10AF0000FA800020FC8000207C86002074C700208E
:10AF100075F4040025733A2070726F787920636F9E
:10AF20006E6E0A0A0000000025733A2070726F7876
:10AF30007920646973636F6E6E0A0A0054B0002052
:10AF400017F018BC0161704738B504464FF0FF3068
:10AF5000009000231A4603212068F7F7FDFF38BD53
:10AF600038B504464FF0FF30009000231A46032105
:10AF70002068F7F7F1FF38BD014688687047002365
:10AF80000360C0E90112704701464FF47A704843EC
:10AF90004FF47A72B0FBF2F070470000014820F0E5
:10AFA0002DBE000059B0020070B50D46A0B0164687
:10AFB00001461C46202268461FF05AFB20222946E3
:10AFC00008A81FF055FB2022314618A81FF050FB9F
:10AFD0000B49684620F0ADFE00280EDB084B10AA96
:10AFE00018A9684620F010FE38B1202210A920468A
:10AFF0001FF03EFB002020B070BD1120FBE70000D9
:10B000005C02050030B591B00D460446114A294650
:10B01000684620F0A5FD012802D0112011B030BDF6
:10B020000C492022B0312846FBF7E9F80028EDD082
:10B030002022694620461FF01BFB202208A904F1AC
:10B0400020001FF015FB202128461FF01DFB0020CB
:10B05000E4E700005C0205002DE9F041064600240B
:10B060000D46880702D00020BDE8F08141F2342768
:10B0700011E000BFFBF766F8C31906EB840200205D
:10B080004FEAC00C23FA0CF11154401CC0B2042842
:10B09000F6D3641CE4B2B4EB950FEBD302A0FCF73B
:10B0A0000FFA0120E0E7000070726E672070726F87
:10B0B0006475630A00000000811E0A291AD2DFE8C5
:10B0C00001F005061907080C1919121300BF00BF7B
:10B0D00000BF0A490A4A51640DE00849084A516410
:10B0E000084A516207E000BF0749064A5162044A14
:10B0F000516400E000BF00BF70470000C896002008
:10B10000E881002030820020F8960020F0B5A5B03C
:10B110000E4607460F4D20211CA8FBF73EF86C4653
:10B1200020461FF00FFE002812D0394620462A681C
:10B130001FF034FE00280BD021461CA81FF09CFDF8
:10B14000002805D010221CA93046FBF70DF801207D
:10B1500025B0F0BD5485002070B505460E4605B9F2
:10B1600070BD00240AE000BF0648FDF75FFC01281F
:10B17000FAD0295D0348FCF779F8641CB442F2DB8D
:10B1800000BFEDE70000024010B588B00C466B46EA
:10B19000064A00F12001FFF707FF18B14FF0FF301A
:10B1A00008B010BD6846A0470020F9E7BCAB0020FE
:10B1B0001FB501AB07C301A81EF0F4F8084C4FF40B
:10B1C0007A70694617F010FC2046009917F0BAFB18
:10B1D0000DF012FD002800D0002004B010BD0000CA
:10B1E000F486002030B5144C0346144DE27802EB8F
:10B1F000C20000EBC210521C02F003022844E270AD
:10B20000442901D2002210E0442100220C4C9D5C14
:10B2100004EB15152D7800F812509D5C05F00F0514
:10B22000645D00EB4205521C6C708A42EED3002133
:10B2300000F8121030BD00005885002044A90020FD
:10B24000EEEA04002DE9FF470027404D16468DF831
:10B250000070894602460078A978DDF830809A4669
:10B2600001433FD0022801D0D0B301E06878C0B3D9
:10B27000012137A00191FCF723F9AEB10198022812
:10B2800039D0394A6B46314648461DF0BAFF00288E
:10B2900058D10198022831D03349C0B29DF800201E
:10B2A000FFF75CF904004DD1B8F1000F2FD00198E1
:10B2B0008DF80070022824D02B4A6B464146504638
:10B2C0001DF09FFF00283DD1019802281CD026497F
:10B2D000C0B29DF80020FFF7FDF8040031D116E060
:10B2E00007E0FFE701A91046FEF75EFF040029D141
:10B2F000C3E70221BDE71C4AFB32C3E71A49FB3111
:10B30000CBE7194AFB32D8E71749FB31E0E7019850
:10B310000126012802D002280AD012E0687880B9FC
:10B32000002201201146FFF75DF904466E7008E027
:10B33000A87830B9002202201146FFF753F90446DD
:10B34000AE70204604B0BDE8F087000058850020AC
:10B3500074686520696E7374616E6365206973201B
:10B36000307825780A000000DCAB002070B5064D6F
:10B37000002420B10120FFF793F96C7070BD02200A
:10B38000FFF78EF9AC7070BD5885002008B50B46EC
:10B39000009202460249034800F006F808BD00008A
:10B3A000E9860200E0A200202DE9F0410D461E468C
:10B3B0001746042117F0D3FD040015D0A06841689A
:10B3C000C8680968201AB0FBF1F0A84705461C219F
:10B3D000A061FAF7E2FE287A67F3010028726E7224
:10B3E0000120AC61E8602046BDE8F08108B50FA0FF
:10B3F000124B00903B22322103F6C43017F06AFE54
:10B4000038B90F4932233B22A1F10C0017F0BFFDE0
:10B4100008B1AFF30080002204212020F6F7DEFD02
:10B420000849086014201039886008BD6164765F9F
:10B430006275665F706F6F6C0000000028970020D7
:10B44000ECA20020048500202DE9F8431A4D1B4E84
:10B450000F4604462878317890460840C0070DD042
:10B46000E1882068FFF7BEFE0090A069E3881449D8
:10B47000007A00F0030213A015F0F4FAA069076047
:10B48000A169C1F80480A069017A41F00401017248
:10B49000204615F05EFB0146114815F04BFB28785D
:10B4A00031780840C00705D0BDE8F84304490DA035
:10B4B00015F0D8BABDE8F883FA800020FC8000209F
:10B4C000B0DE040025733A20747970652030782549
:10B4D000303278206C656E2025753A2025730A007D
:10B4E0000485002025733A206164765F73656E647D
:10B4F00020746F2071756575650A0A000548064954
:10B50000007809780840C00703D0044904A015F06A
:10B51000A9BA7047FA800020FC8000209DDE04005C
:10B5200025733A200A000000F0B5C7B00C46154656
:10B5300001461F461AAA68461FF0F0FA6FF004068B
:10B5400090B107E0D4E9001268461FF021FB58B122
:10B550006D1E0834002DF5D1694638461FF08AFA71
:10B5600010B1002047B0F0BD3046FBE71CB5CDE977
:10B57000001201226946FFF7D7FF1CBD2DE9FF4FDE
:10B5800089B0304DDDE91687DDE91ABA28882E4EDC
:10B590001C469146C0050CD53078C00709D0E1881B
:10B5A0002068FFF71FFE0346E288284928A015F00F
:10B5B00061FA199ACDE9002BCDF808A04A4604A8F3
:10B5C000189B0A9908F000FE2888C0051AD5307823
:10B5D000C00717D010210998FFF704FE02461B4947
:10B5E00022A015F047FA2888C0050BD53078C0078F
:10B5F00008D00D2104A8FFF7F5FD024613491FA04E
:10B6000015F038FAB9F1000F01D0082100E004214B
:10B61000D8F800000FB1102200E00022CDE90201AD
:10B62000CDE90072E38804A92268099800F010FCB3
:10B63000050003D1A179404615F09CFA0DB02846CB
:10B64000BDE8F08FFA800020FC80002086EA04002C
:10B6500025733A20456E634461746120286C656EE1
:10B66000202575292025730A0000000025733A2043
:10B670004170704B65792025730A000025733A20CC
:10B680004E6F6E6365202025730A00002DE9FF4F81
:10B6900089B0474EDDE9188B3088DDF868A0DDF809
:10B6A0005890444C1D461746C00534D52078C00735
:10B6B00031D010210998FFF795FD02463E493FA081
:10B6C00015F0D8F93088C00525D52078C00722D0DC
:10B6D000CDF8008038493DA0179B0A9A15F0CAF9A9
:10B6E0003088C00517D52078C00714D053465A4675
:10B6F000314940A015F0BEF93088C0050BD520783F
:10B70000C00708D0E9882868FFF76CFD02462A497F
:10B7100041A015F0AFF9CDE9008BCDF808A03A466D
:10B7200004A8179B0A9908F04FFD3088B046C00561
:10B730000BD52078C00708D00D2104A8FFF752FDD3
:10B7400002461D4938A015F095F90FB1082100E017
:10B7500004212A68B9F1000F01D0102300E0002372
:10B760000391CDF80090CDE90132EB8804A9099846
:10B7700000F0AAFB060016D10FB1082100E0042159
:10B78000284615F0F7F9B8F80000C0050BD5207869
:10B79000C00708D0E9882868FFF724FD024606495B
:10B7A00025A015F067F90DB03046BDE8F08F000018
:10B7B000FA800020FC80002072EA040025733A2001
:10B7C0004170704B65792025730A000025733A207B
:10B7D0006465765F6B657920257520737263203010
:10B7E00078253034782064737420307825303478AC
:10B7F0000A00000025733A207365715F6E756D2035
:10B800003078253038782069765F696E64657820F5
:10B810003078253038780A0025733A20436C65610A
:10B82000723A2025730A000025733A204E6F6E632A
:10B8300065202025730A000025733A20456E637247
:10B840003A2025730A00000010B5094A00214FF67E
:10B85000FF7300BF01EB810002EBC00000F55070E8
:10B8600004889C4203D0491C0429F3D3002010BD56
:10B870000C87002038B504464088ADF80000104819
:10B880008DF802100D460088C00409D50D480078D7
:10B89000C00705D062882B460B490CA015F0E8F8CC
:10B8A0006946114803F064FB15B1204600F0D6FC50
:10B8B0004FF6FF7020802221601DFAF76EFC38BD24
:10B8C000FA800020FC8000205CE5040025733A200B
:10B8D0004170704964782030782530337820737453
:10B8E0006F72652025750A003178020030B50B4B68
:10B8F000024600214FF6FF7401EB810003EBC0000C
:10B9000000F550700588A54202D04588954203D0C5
:10B91000491C0429F0D3002030BD00000C87002012
:10B920002DE9F04706460027089DA1F57F401C46FB
:10B930009146FE3807D06FF01508401C0FD1104615
:10B9400000F0A4FE18B12F701348206021E0484693
:10B9500005F0BEFC60B1001D20602F7019E03EB103
:10B960000846FFF7C3FF30B1F17F022906D00CE093
:10B970004046BDE8F0876FF00100FAE7017921B198
:10B9800000F117012160807D02E0811D2160407976
:10B9900028700020EDE70000E48900202DE9F04147
:10B9A000224F0646DFF8888038880D46800407D588
:10B9B00098F80000C00703D01E491FA015F05CF8DE
:10B9C0008EB1B4690DB3606818B1016909B1304630
:10B9D00088474FF47A7005FB00F104F10800BDE8D8
:10B9E000F0410EF0EABD1A4804680CB12668E9E798
:10B9F0003888800417D598F80000400713D5BDE8B3
:10BA0000F0410C4913A015F037B804F108000EF00E
:10BA1000A9FD6068002806D04169002903D030469E
:10BA2000BDE8F0410847BDE8F0810000FA80002041
:10BA3000FC8000207CEC040025733A2062745F6D6A
:10BA40006573685F617474656E74696F6E0A000077
:10BA50006085002025733A204E6F204865616C7424
:10BA6000682053657276657220617661696C6162E7
:10BA70006C650A002DE9F0472F4E88B08246308869
:10BA8000DDF840802D4C994615460F46C00525D55A
:10BA90002078C00722D010215046FFF7A3FB0246B2
:10BAA000274928A014F0E6FF3088C00516D5207875
:10BAB000C00713D008212846FFF794FB024620490F
:10BAC00025A014F0D7FF3088C00507D52078C0071F
:10BAD00004D04A461A4924A014F0CCFF8DF8107007
