:020000040000FA
:10400000887E00206141000065410000674100009A
:10401000694100006B4100006D410000000000009C
:10402000000000000000000000000000C940000087
:1040300071410000000000000D41000059430000E4
:104040007741000077410000774100007741000090
:104050007741000077410000774100007741000080
:104060007741000077410000774100007741000070
:104070007741000077410000774100007741000060
:104080007741000077410000774100007741000050
:104090007741000077410000774100007741000040
:1040A0007741000077410000774100007741000030
:1040B00077410000DFF80CD000F088F80048004796
:1040C000DD470000887E0020224B19680868B0E8B0
:1040D000F00F80F30988BFF36F8F4FF0000080F37B
:1040E00011884EF00D0E7047000000000648006871
:1040F000006880F3088862B661B6BFF34F8FBFF3E4
:104100006F8F00DF00BF00BF08ED00E0EFF3098014
:10411000BFF36F8F0F4B1A6820E9F00F106008B5DE
:104120004FF0200080F31188BFF34F8FBFF36F8FE4
:1041300001F076FB4FF0000080F31188BDE80840E5
:1041400019680868B0E8F00F80F30988BFF36F8F33
:10415000704700BF00000020EFF3058070470000AB
:1041600005480047FEE7FEE7FEE7FEE7FEE7FEE75D
:10417000FEE7FEE7FEE7FEE7B540000040EA010388
:104180009B0703D009E008C9121F08C0042AFAD20D
:1041900003E011F8013B00F8013B521EF9D27047D1
:1041A00030B50B46014600202022012409E021FA07
:1041B00002F59D4205D303FA02F5491B04FA02F504
:1041C0002844151EA2F10102F1DC30BD064C074D5A
:1041D00006E0E06840F0010394E8070098471034D7
:1041E000AC42F6D3FFF76AFFF863000018640000E2
:1041F00030B5012404FA01F304689C4302FA01F586
:104200002C43046030BD000070B505460C462246C4
:1042100029460548FFF7ECFF2CB9002229464FF04C
:104220004020FFF7E5FF70BD2000004070B5044658
:104230000D4616460DB1012000E000200246214641
:104240000648FFF7D5FF0EB9012000E00020024626
:10425000214602480830FFF7CBFF70BD10400040F8
:1042600070B504460D462A4621460248FFF7C0FFB6
:1042700070BD00001000004010B5002807DA4A07A2
:10428000140E054A00F00F031B1FD45403E04A0725
:10429000130E024A135410BD18ED00E000E400E0D4
:1042A000024A0A400243024B1A60704780FFFF1F18
:1042B00008ED00E06FF040400149486588657047AF
:1042C0000000074070B5064D43193F2505FA01F47B
:1042D0001D68A54302FA01F635431D6070BD00005C
:1042E0000000074070B504460D460CB9002000E000
:1042F000122001462A465420FFF7E4FF70BD00005B
:1043000030B5C410064D05EB84024407E30E146873
:104310000F259D40AC4301FA03F52C43146030BDDA
:104320004400074010B50246064829B1036801243D
:1043300094402343036004E0036801249440A343B2
:10434000036010BD68000740024949680143014A03
:10435000516070470000074010B500BF202080F377
:104360001188BFF34F8FBFF36F8F00BF01F010FEB6
:1043700018B14FF080500449086000BF002080F35E
:10438000118800BF10BD000004ED00E0016070471F
:104390000FB4054B10B503A9044A029800F018F8B1
:1043A00010BC5DF814FB0000CD4600008800002022
:1043B00002E008C8121F08C1002AFAD170477047EE
:1043C000002001E001C1121F002AFBD1704700004C
:1043D0002DE9FF4F8BB09A460F460546002606E0B2
:1043E00025280BD052460D9990476D1C761C2878D5
:1043F0000028F5D10FB03046BDE8F08F0024A0466C
:104400000122604900E0044315F8013F203B02FA15
:1044100003F00842F7D128782E2817D115F8010F9C
:1044200044F004042A280ED06FF02F022878A0F15F
:10443000300109290AD808EB880102EB410100EBA1
:1044400001086D1CF2E757F8048B6D1C2878692869
:104450003ED006DC0028CDD063280BD0642804D1E0
:1044600036E0732810D075284BD052460D999047EE
:10447000761C85E017F8040B8DF8000000208DF8FD
:104480000100E946012003E057F8049B4FF0FF309C
:1044900061074FF0000401D40AE0641C44450DDAC2
:1044A0008442FADB19F804100029F6D106E0641CF6
:1044B0008442FCDB19F804100029F8D1264404E0FA
:1044C00019F8010B52460D999047641EF8D257E037
:1044D00001CF4FF00A0B002802DA40422D2102E002
:1044E000210504D52B218DF82410012103E0E107DB
:1044F00005D02021F7E70DF1200908910CE00021FB
:10450000F9E701CF4FF00A0BF9E75946FFF748FEEC
:1045100001F1300209F8012D0028F6D1ADEB0900B8
:1045200000F1200B600701D44FF00108D84502DDEF
:10453000A8EB0B0000E000208046002406E009A85C
:104540005246005D0D999047641C761C0898844281
:10455000F5DB04E0302052460D999047761CB8F107
:104560000001A8F10108F5DC05E019F8010B52463D
:104570000D999047761CBBF10001ABF1010BF4DC07
:104580006D1C34E70928010070B50B461446DE00A7
:10459000B6FBF4F2D109A2EBC112561C75084162B8
:1045A000B1F5803F00D209B900BFFEE74FF6FF76B4
:1045B000B14202D10026866201E0521A8562C66AC3
:1045C000C66270BD01468869C0F34010704770B57F
:1045D00005460C461646002028636864A863686098
:1045E0006862A862E8622846D4E90312FFF7CCFFAC
:1045F0006078C0F38000C001217840EA4110A178C2
:1046000040EA0110E17840EAC100617801F003015D
:1046100040EA4100E862A07A617A40EA01206863DA
:10462000AE6320794002617940EA0120A179084314
:10463000E17940EAC130217A40EA8130286370BDD7
:1046400010B500F0A7FE10BD7047000070B504461D
:104650000E46257800BF0548FFF7B4FF0128FAD0C1
:1046600029460248FFF792FE002070BD000002407C
:1046700030B585B005460C4603208DF800000020BB
:104680008DF8010001208DF8020000208DF8030054
:1046900001208DF804008DF805008DF8060000203B
:1046A0008DF807008DF8080001208DF8090003201F
:1046B0008DF80A0003950494002269460248FFF72A
:1046C00086FF05B030BD00000000024070B5044612
:1046D0000D46204600F05AF8204670BD1CB572B653
:1046E0004FF480410020FFF7DBFD00F057F8002277
:1046F0000749104600F08AF80648012100238A0283
:10470000CDE9001004A1054801F0FCFB1CBD000030
:104710004D4600008400002075740000E553000041
:104720002DE9F04104460F461546114800EBC4063A
:1047300005B172B6306828B13846D6E900219047F5
:10474000BDE8F0810DB90020FAE7052C06D0072C52
:104750000BD1394607A0FFF71BFE06E00748426869
:10476000016807A0FFF714FE00BF00BF00BFFEE70F
:10477000447A00206F6F6D25640000007C000020EB
:104780005B4552525D4025733A25640001B5002215
:1047900069461046FFF7C4FF08BD000010B50221AE
:1047A0000020FFF769FD02210120FFF765FD0224CB
:1047B0000FE0032160B2FFF75FFD60B200F01F025F
:1047C00001219140044A430942F8231000BF601CB4
:1047D000C4B21C2CEDDD10BD80E100E0FFF77EFFD0
:1047E000FFF732FFFFF72CFF00F0CAFF00BFFEE724
:1047F00070B505460C460448056044600122014638
:104800000520FFF78DFF70BD7C000020034B43F8AF
:10481000301003EBC0035A6070470000447A002058
:104820002DE9F04105460E461C4807681C48006803
:10483000001D00F0EDFD50B91948006890F82C10EB
:104840000120884017490968814316480160681CA7
:1048500038B936B112480168091D134800F016FE38
:104860001AE07C190E4800684460BC4207D20C482C
:104870000168091D0D48006800F0EEFD0CE00848D5
:104880000168091D0A48006800F0E6FD0948006853
:10489000844201D207480460BDE8F0811400002082
:1048A000000000201800002008020020080000205E
:1048B000040000203000002010B5044600F0F2FD96
:1048C00023480068401C224908602248006840B91B
:1048D000204804600846006801280DD100F0C2F9A4
:1048E0000AE01D48006838B91A480068C06AE16AE1
:1048F000884201D81748046018480068401C1749CE
:10490000086094F82C100120884015490968084374
:1049100013490860E16A01EB8101124A02EB810050
:10492000211D00F0B3FD00F0E7FD0B48006868B101
:1049300008480068C06AE16A884207D24FF0805098
:1049400009490860BFF34F8FBFF36F8F10BD0000A0
:1049500010000020000000201C0000202C0000207F
:10496000180000208C00002004ED00E010B500F0DD
:1049700099FD0C48006890B90B4800F05DFD0B48AC
:1049800000F05AFD08480A490860084809490860CB
:1049900000220C21052001F00BF80249086000F00C
:1049A000ABFD10BD440000201C020020300200209E
:1049B0003C0000204000002010B516E000F072FD21
:1049C0000C48C068C468201D00F022FD0A48006839
:1049D000401E0949086009480068401E07490860F0
:1049E00000F08AFD204600F05FF8044800680028C7
:1049F000E4D110BDF4010020100000200C000020C4
:104A000070B504460D46206C70B1216CE06801441D
:104A1000E160D4E90210884201D32168E1602846B0
:104A2000226CE168FFF7AAFB70BD2DE9F041044656
:104A30000F4615464FF00008A66B206C48B9206859
:104A400000282CD1A06801F045FB80460020A06022
:104A500025E07DB93946226C6068FFF78FFB216C39
:104A6000606808446060D4E90101884217D3206877
:104A7000606014E03946226CE068FFF77FFB216C30
:104A8000E068411AE1602168E068884203D2216C45
:104A9000A068411AE160022D01D106B1761E701C9A
:104AA000A0634046BDE8F08110B50446206B00F0DD
:104AB00041FD204600F03EFD10BD00000146084AC1
:104AC000126812680AB9012200E000220A600A682E
:104AD00022B9034A1268D268106800E000207047CB
:104AE0003C00002030B54FF4F043174800F00704B5
:104AF0002CB1C01D20F00700134C041B1B1B0246E9
:104B0000124C22600024114D6C60D018083820F03F
:104B100007000F4C206000240D4D2D686C600C4D7B
:104B20002D682C601146441A4C60094C24680C60B6
:104B3000084D4C682C60084D4C682C604FF00044C8
:104B4000064D2C6030BD0000440200205C000020B7
:104B5000640000206C000020680000207800002025
:104B600000BFFFF729FF064800680128F9D94FF078
:104B7000805004490860BFF34F8FBFF36F8FF0E799
:104B80008C00002004ED00E02DE9F04106460D46C2
:104B900017469846069C0DB9246000E02760E6633E
:104BA00025640121204600F02BFF0020A064BDE811
:104BB000F08100002DE9FF5F81460E469246DDE957
:104BC0000E7B109CAAF10100216B01EB800828F0FC
:104BD000070808F0070008B9012000E0002020B90C
:104BE0004FF459711DA0FFF703FE86B1002507E0C1
:104BF000715D04F134004155705D00B902E06D1C37
:104C0000102DF5D300BF00214320015502E0002004
:104C100084F834000F2F00D30E27E762676400206A
:104C2000A064201D00F015FC04F1180000F011FC38
:104C30002461C7F10F00A06164620020E06484F881
:104C4000500049464046039A00F092FB2060BBF1B9
:104C5000000F01D0CBF80040BDE8FF9F7461736B7B
:104C6000732E630010B5002407E004EB84010F4AA3
:104C700002EB810000F0E0FB641C0F2CF5D30C4824
:104C800000F0DAFB0B4800F0D7FB0B4800F0D4FB38
:104C90000A4800F0D1FB0A4800F0CEFB044809495D
:104CA000086004480849086010BD00008C0000201E
:104CB000B8010020CC010020E0010020F401002018
:104CC00008020020040000200800002010B5014662
:104CD000164800E0006803688B42FBD30246436835
:104CE00013448B4204D143684C682344436001461B
:104CF0000A464B6813440468A34211D10C4C036864
:104D00002468A34208D04B680468646823444B605D
:104D100003681B680B6005E0054B1B680B6001E036
:104D200003680B60884200D0016010BD5C00002069
:104D3000640000202DE9F04104460D4616461F464A
:104D40004FF0000865602461B5420CD8F01BA169E2
:104D5000884202D34FF0010811E0211D0948006884
:104D600000F07AFB0BE0BE4204D2BD4202D34FF00A
:104D7000010804E0211D0448006800F06DFB404676
:104D8000BDE8F081400000203C00002070B50546E1
:104D900000F088FBA86B08B9012400E0002400F0B3
:104DA000ABFB204670BD70B5054600F07BFBA86BE1
:104DB000E96B884201D1012400E0002400F09CFB53
:104DC000204670BDF1B50098846C002624B940F6E9
:104DD000493119A0FFF70CFDA06BE16B884201D2AD
:104DE000012000E0002020B940F64A3112A0FFF770
:104DF000FFFCA06BE16B88421BD294F94550002266
:104E000069462046FFF711FE0646681C60B9606AD5
:104E100008B9012000E0002050B904F1240001F09D
:104E2000B5F928B1012603E0681C40B284F84500BA
:104E300000BF3046F8BD000071756575652E6300D2
:104E4000F8B505460F4617480068C068C468201DBD
:104E500000F0DEFA94F8240000F00400B8B1A06974
:104E600041192B463A462046FFF764FFA8B10020BF
:104E700003462A4601460090204601F07BFA06468A
:104E800026B940F2112108A0FFF7B2FC05E094F822
:104E9000240020F0010084F824002046216A88477D
:104EA000F8BD00003C00002074696D6572732E63CC
:104EB0000000000070B586B07EE0039800287BDB20
:104EC000059C606908B9012000E0002010B9201D90
:104ED00000F09EFA02A800F0D7F8054603980A28C9
:104EE00068D2DFE800F0090507333B570608343C79
:104EF00000BF00BF00BF00BF94F8240040F00100D5
:104F000084F824000498A269811803462A462046A2
:104F1000FFF710FFC8B12046216A884794F82400A3
:104F200000F0040088B1002000900498A1694218A4
:104F300000231946204601F01DFA064626B94FF413
:104F40004B7123A0FFF754FC00BF34E000BF94F87E
:104F5000240020F0010084F824002CE000BF94F825
:104F6000240040F0010084F824000498A061A069A6
:104F700008B1012000E0002020B94FF4517114A0C5
:104F8000FFF736FCA06941192B462A462046FFF759
:104F9000D1FE10E094F8240000F0020018B9204679
:104FA00000F0C8FA05E094F8240020F0010084F82D
:104FB000240000E000BF00BF002203A907480068EA
:104FC00000F0BCFE00287FF478AF06B070BD000092
:104FD00074696D6572732E63000000004400002048
:104FE000F8B505460C4600F013FC684600F04CF896
:104FF0000646009820BB44B9B54206D801F010F926
:1050000031462846FFF71CFF1CE03CB10E48006803
:10501000006808B9012000E000200446A91B2246D0
:105020000A48006800F010FB01F0FAF850B94FF0A0
:10503000805007490860BFF34F8FBFF36F8F01E0C7
:1050400001F0EEF8F8BD0000400000204400002010
:1050500004ED00E00A490968096809B9012100E086
:10506000002121B14FF0FF31064A116006E00449EA
:105070000968C968C868034A416811607047000040
:10508000040000203000002070B5044600F07AFFD4
:10509000054607480068854204D200F00BF801205D
:1050A000206001E00020206001480560284670BDB6
:1050B0004C0000202DE9F8432EE022480068C0682B
:1050C000056820480068C068C468201D00F0A0F989
:1050D0002046216A884794F8240000F00400D8B1E3
:1050E000A0694619AE4207D966602461211D1548A2
:1050F000006800F0B1F90FE0002003462A4601469F
:105100000090204601F036F9074627B940F29D315C
:105110000DA0FFF76DFB00BF0A480068006808B9E2
:10512000012000E000200028C7D00648D0F8008009
:1051300008480068034908600648C0F80080BDE8D8
:10514000F88300003C00002074696D6572732E6363
:1051500000000000400000200B480068401C08B917
:10516000012000E0002018B9CA2108A0FFF740FB89
:1051700000BF202080F31188BFF34F8FBFF36F8FE4
:1051800000BF00BFFEE7000050000020706F727487
:105190002E63000008B500BF6846FFF78FFC044689
:1051A00020460099FFF71CFFFFF784FEF4E770B577
:1051B000044600F077F994F9455019E0A06C30B13D
:1051C0002046FFF7FFFD88B100F09CFA0EE0606A10
:1051D00008B9012000E0002038B904F1240000F0F3
:1051E000D5FF18B100F08EFA00E003E0681E45B26A
:1051F000002DE3DC00BFFF2084F8450000F07CF9BF
:1052000000F050F994F9445010E0206908B90120E9
:1052100000E0002048B904F1100000F0B7FF08B129
:1052200000F070FA681E45B200E001E0002DECDCF1
:1052300000BFFF2084F8440000F05EF970BD00005C
:105240002DE9F04104464FF0000800F0E1FA3F4834
:10525000006808B9FFF746FC3D4800682040002878
:1052600062D19CB1083404F0070078B104F0070063
:10527000C0F10800044404F0070008B9012000E070
:10528000002018B9972133A0FFF7B2FA002C4BD0B9
:1052900033480068844247D8324E3046056801E002
:1052A0002E462D686868A04202D228680028F7D1EF
:1052B00026480068854237D0306800F10808286821
:1052C00030606868001B102812D92F1907F00700FA
:1052D00008B9012000E0002018B9C4211DA0FFF783
:1052E00087FA6868001B78606C603846FFF7EEFC50
:1052F0001B4968680968081A194908600846006867
:1053000019490968884203D215480068164908609F
:105310000F496868096808436860002028601348DE
:105320000068401C1149086000F07AFF08F007008F
:1053300008B9012000E0002020B940F2051105A0C5
:10534000FFF756FA4046BDE8F081000064000020F7
:1053500078000020686561705F342E6300000000F3
:10536000680000205C0000206C000020700000201D
:10537000001F4FF080730360001F21F001030360E2
:10538000001F034B03601438026020387047000090
:105390005951000010B54FF4A420FEF7D5FF0021AD
:1053A0000620FEF7ADFF00210620FEF7BBFF01221D
:1053B00011460620FEF73AFF01210620FEF724FFE2
:1053C00000210620FEF74CFFFEF774FF03210020AA
:1053D000FEF788FF4FF4E1310148FFF749F910BDAE
:1053E00000366E0109A0FEF7D3FF0EE00021062073
:1053F000FEF736FFC82000F04DF901210620FEF728
:105400002FFF4FF4487000F045F9EFE7686900009E
:1054100001460A69D1E901309860D1E90103586079
:105420005068884201D18868506000200861106887
:10543000401E10601068704700F1080141604FF095
:10544000FF31816000F10801C1600161002101604C
:10545000704700210161704710B502460B685C1C63
:105460000CB9106907E002F1080000E040684468E8
:1054700024689C42FAD944684C604C68A1608860FA
:1054800041600A611468641C146010BD42684A607F
:1054900093688B60936859609160086103685B1C36
:1054A0000360704710B500BF202080F31188BFF360
:1054B0004F8FBFF36F8F00BF0B480068401C0A4935
:1054C00008600846006801280CD108480068C0B28E
:1054D00008B9012000E0002020B94FF4B37104A006
:1054E000FFF786F910BD00005000002004ED00E039
:1054F000706F72742E63000010B50B48006820B9FD
:1055000040F26D1109A0FFF773F907480068401ECB
:10551000054908600846006820B9002080F311881A
:1055200000BF00BF10BD000050000020706F7274FB
:105530002E63000070B506463546002E38D0083D73
:105540002C461C4960680968084008B1012000E049
:10555000002020B940F2191117A0FFF749F920687F
:1055600008B9012000E0002020B94FF48D7112A08D
:10557000FFF73EF90F49606809680840C0B120682C
:10558000B0B90C49606809688843606000F040F970
:105590000C496068096808440A4908602046FFF71A
:1055A00095FB09480068401C0749086000F038FE78
:1055B00070BD000078000020686561705F342E6364
:1055C00000000000680000207400002000204FF060
:1055D000E021086188611F2048610320086170474D
:1055E00070B5FEF7B9FD0546102D10D305F1E0208A
:1055F00090F8F0430F480078844201DB012000E07E
:10560000002020B940F2A5210BA0FFF7F1F80C48CB
:10561000006800F4E0600B490968884201D8012065
:1056200000E0002020B940F2B52103A0FFF7E0F828
:1056300070BD000054000020706F72742E63000073
:105640000CED00E0580000202DE9F04105460E4623
:1056500017462C46FFF726FF94F94400401C10B96A
:10566000002084F8440094F94500401C10B9002043
:1056700084F84500FFF740FFA06B28B93A46314651
:1056800004F1240000F05EF82046FFF790FDBDE82D
:10569000F081000070B504460025A4B10F480068F1
:1056A00008B9012000E0002020B940F244510CA0CC
:1056B000FFF79EF800F0ACF800212046FFF7B0F8A5
:1056C00000F0AEFD05463DB94FF080500649086038
:1056D000BFF34F8FBFF36F8F70BD00003800002005
:1056E0007461736B732E630004ED00E00349096875
:1056F00001600349096841607047000028000020EC
:105700001400002001200149086070472400002097
:1057100070B504460D4624B940F6FA3106A0FFF7ED
:1057200067F80748016818312046FFF795FE012108
:105730002846FFF775F870BD7461736B732E6300B4
:105740000000002070B505460E46144625B940F607
:10575000254108A0FFF74CF8084801681831284691
:10576000FFF794FE0CB14FF0FF3621463046FFF7AD
:1057700057F870BD7461736B732E630000000020D6
:105780001CB51A4800210B468022CDE9001018A153
:10579000194800F0B7FB0446012C02D100F0C0FD0F
:1057A0000446012C15D100BF202080F31188BFF3DF
:1057B0004F8FBFF36F8F00BF4FF0FF300F4908606E
:1057C00001200F49086000200E49086000F06CF8C5
:1057D0000AE0601C08B1012000E0002020B940F67A
:1057E0002A0109A0FFF704F81CBD000034000020C6
:1057F00049444C4500000000614B0000300000208F
:105800001C000020140000207461736B732E630071
:1058100002480068401C01490860704738000020B9
:1058200010B51A48006818B10120194908602CE029
:1058300000201749086017480068B0FA80F0C0F1EE
:105840001F0404EB8400144951F8200008B1012022
:1058500000E0002020B940F6E13110A0FEF7C8FFBB
:1058600004EB84010C4A02EB810041684968416005
:1058700000F1080142688A4202D1416849684160EA
:105880004168C968074A116000BF10BD3800002098
:1058900024000020180000208C0000207461736B2D
:1058A000732E6300000000201CB53A4C204600789F
:1058B0000190FF20214608700846007800909DF86E
:1058C000000000F0E0009DF80010884201D10120A6
:1058D00000E0002020B94FF48A712FA0FEF788FF66
:1058E0009DF8000000F020002D49087007202D4988
:1058F000086009E02B480068401E2A4908609DF8AE
:1059000000004006000E00909DF8000000F08000AE
:105910008028EFD023480068C0F10700032801D198
:10592000012000E0002020B940F227111AA0FEF764
:105930005FFF1C480068C0F10700032801D1012067
:1059400000E0002020B94FF4987113A0FEF750FF3B
:10595000144800680002134908600846008800F4F3
:10596000E06008600B49019808700F48006840F437
:1059700060000D4908600846006840F0604008601B
:10598000FFF724FE002009490860FEF7AFFB002066
:105990001CBD000000E400E0706F72742E63000014
:1059A000540000205800002020ED00E050000020AE
:1059B0002DE9F84305460E4617460DB1012000E0DB
:1059C000002020B94FF4BB710BA0FEF711FF05FBBF
:1059D00006F909F14C00FFF733FC04464CB1A04630
:1059E00008F14C083B464246314628460094FFF7F2
:1059F000CBF82046BDE8F88371756575652E6300A8
:105A000070B505460E462C4624B940F203111EA07F
:105A1000FEF7EEFEFFF746FDD4E90F12206801FB0A
:105A20000200A0600020A06320686060E06B401E60
:105A3000226C216800FB0211E160FF2084F8440021
:105A400084F845009EB9206908B9012000E00020D3
:105A5000A8B904F1100000F099FB80B14FF080501C
:105A60000B490860BFF34F8FBFF36F8F07E004F15E
:105A70001000FFF7E1FC04F12400FFF7DDFCFFF765
:105A80003BFD012070BD000071756575652E6300DA
:105A900004ED00E02DE9FF4782B0064688461D462A
:105AA0004FF00009344624B940F2EA2162A0FEF723
:105AB0009FFEB8F1000F01D1206C08B9012000E071
:105AC000002020B940F2EB215BA0FEF791FE022DF1
:105AD00002D1E06B012801D1012000E0002020B9B3
:105AE0004FF43B7154A0FEF783FE00F03BFA08B977
:105AF000049808B9012000E0002020B940F2EF210D
:105B00004DA0FEF775FE00BFFFF7CCFCA06BE16B6C
:105B1000884201D3022D3ED1D4F838A02A4641460E
:105B20002046FEF782FF0746A06C88B1022D02D105
:105B3000BAF1000F29D12046FFF744F928B34FF0FE
:105B400080503F490860BFF34F8FBFF36F8F1CE059
:105B5000606A08B9012000E0002068B904F124005F
:105B600000F014FB88B14FF0805035490860BFF356
:105B70004F8FBFF36F8F08E03FB14FF08050304937
:105B80000860BFF34F8FBFF36F8FFFF7B5FC0120A5
:105B900006B0BDE8F087049818B9FFF7ADFC002007
:105BA000F6E7B9F1000F04D16846FFF79FFD4FF00B
:105BB0000109FFF7A1FCFFF72BFEFFF773FC94F937
:105BC0004400401C10B9002084F8440094F94500BA
:105BD000401C10B9002084F84500FFF78DFC04A993
:105BE000684600F051F9F8B92046FFF7DCF8A8B193
:105BF00004F110000499FFF78BFD2046FFF7D7FA58
:105C000000F00EFB00287FF47FAF4FF080500C496E
:105C10000860BFF34F8FBFF36F8F75E72046FFF724
:105C2000C6FA00F0FDFA6FE72046FFF7C0FA00F071
:105C3000F7FA0020ACE7000071756575652E63000A
:105C400004ED00E02DE9F84F80468A4615461E46D1
:105C5000444624B94FF46F7136A0FEF7C9FDBAF17E
:105C6000000F01D1206C08B9012000E0002020B90C
:105C700040F2BD312FA0FEF7BBFD022E02D1E06B3A
:105C8000012801D1012000E0002020B940F2BE31FE
:105C900028A0FEF7ADFDFFF7A3FC00BF2021EFF326
:105CA000118081F31188BFF34F8FBFF36F8F00BF57
:105CB0000746A06BE16B884201D3022E30D194F9E4
:105CC00045B0A06B0090324651462046FEF7ADFE2F
:105CD0000BF10100E0B9A06C58B1022E01D100987F
:105CE000D8B92046FFF76EF8B8B1B5B101202860E9
:105CF00013E0606A08B9012000E0002068B904F1EF
:105D0000240000F043FA40B13DB10120286004E0D6
:105D10000BF1010040B284F845004FF0010901E0A9
:105D20004FF0000900BF87F3118800BF4846BDE867
:105D3000F88F000071756575652E63002DE9F741D8
:105D400083B005460E464FF000082C4624B940F2B9
:105D500004514AA0FEF74CFD0EB9206C08B9012091
:105D600000E0002020B94FF4A16144A0FEF740FDFF
:105D700000F0F8F808B9059808B9012000E0002003
:105D800020B940F20D513DA0FEF732FD00BFFFF7F4
:105D900089FBA76BF7B131462046FEF731FE781E2E
:105DA000A063206908B9012000E0002060B904F177
:105DB000100000F0EBF938B14FF080503149086025
:105DC000BFF34F8FBFF36F8FFFF796FB012006B035
:105DD000BDE8F081059818B9FFF78EFB0020F6E7C3
:105DE000B8F1000F04D101A8FFF780FC4FF00108C3
:105DF000FFF782FBFFF70CFDFFF754FB94F944001B
:105E0000401C10B9002084F8440094F94500401C5F
:105E100010B9002084F84500FFF76EFB05A901A822
:105E200000F032F8F0B92046FEF7B0FFA0B104F15F
:105E300024000599FFF76CFC2046FFF7B8F900F045
:105E4000EFF90028A3D14FF080500E490860BFF34E
:105E50004F8FBFF36F8F9AE72046FFF7A8F900F046
:105E6000DFF994E72046FFF7A2F900F0D9F92046C0
:105E7000FEF78CFF00288AD00020A8E771756575B1
:105E8000652E630004ED00E070B505460C4625B9AB
:105E900040F6CE4117A0FEF7ABFC24B940F6CF4147
:105EA00014A0FEF7A5FCFFF7FDFA14480268686825
:105EB000131A2068401C08B9002617E0104928680A
:105EC0000968884204D06868904201D801260DE034
:105ED0002068984207D92068C01A20602846FFF73A
:105EE00005FC002602E0002020600126FFF704FBED
:105EF000304670BD7461736B732E63001400002014
:105F0000280000202DE9FF4F85B0804689461746BE
:105F1000DDE912ABB800FFF793F9064656B15420FD
:105F2000FFF78EF904460CB1266304E03046FFF714
:105F300001FB00E000247CB10020CDE900ABCDE9FD
:105F400002403A4649464046089BFEF733FE20464B
:105F5000FEF7B2FC012501E04FF0FF35284609B0FD
:105F6000BDE8F08F0549096809B9012005E0044939
:105F7000096809B9022000E0002070471C000020D9
:105F80003800002001490868704700001400002014
:105F90002DE9F0414FF0000841480068002876D113
:105FA00040480068451C3F480560E5B93E48006828
:105FB000006808B9012000E0002020B940F6A921BE
:105FC0003AA0FEF715FC384807683A480068364999
:105FD00008603848076038480068401C3649086047
:105FE000FFF738F800BF3548006885423CD300BF52
:105FF0002D480068006808B9012000E0002020B1A9
:106000004FF0FF302D4908602DE027480068C06838
:10601000C4686668B54202D22848066023E0201DA5
:10602000FFF7F6F9A06A18B104F11800FFF7F0F9CC
:1060300094F82C1001208840214909680843204920
:106040000860E16A01EB81011E4A02EB8100211D1B
:10605000FFF71CFA1C49E06A0968C96A8842C7D37D
:106060004FF00108C4E700BF17480068C06A00EBA2
:106070008000144951F82000012801D94FF001088F
:106080001248006808B14FF0010805E0FFE710482A
:106090000068401C0E4908604046BDE8F0810000E1
:1060A0003800002014000020040000207461736B8D
:1060B000732E63000800002028000020300000201C
:1060C000180000208C000020000000202400002088
:1060D0002000002070B505462C460026002D49D032
:1060E00025480068844201D1012000E0002020B949
:1060F00041F2130121A0FEF77BFBA06C20B941F215
:1061000014011EA0FEF774FBA06C401EA064616C1D
:10611000E06A88422ED0A06C60BB201DFFF778F9A2
:1061200078B9E06A00EB8000164951F8200040B9C8
:1061300094F82C10012088401349096881431248C3
:106140000160606CE062E06AC0F10F00A06194F849
:106150002C10012088400C49096808430A4908604E
:10616000E16A01EB8101074A02EB8100211DFFF783
:106170008DF90126304670BD000000207461736BFC
:10618000732E63008C0000201800002070B50646B6
:10619000F068C46824B940F6554119A0FEF728FB01
:1061A00004F11800FFF734F917480068A8B9201D5A
:1061B000FFF72EF994F82C10012088401349096844
:1061C000084312490860E16A01EB8101104A02EBC1
:1061D0008100211DFFF75AF904E004F118010D4870
:1061E000FFF754F90C49E06A0968C96A884204D982
:1061F000012501200949086000E00025284670BDFE
:106200007461736B732E6300380000201800002047
:106210008C000020E001002000000020240000206D
:1062200070B5002400263348006820B940F6990173
:1062300031A0FEF7DDFAFFF735F92E480068401E61
:106240002C4908600846006800284FD12C48006897
:1062500000284BD024E02B48C068C46804F1180023
:10626000FFF7D6F8201DFFF7D3F894F82C10012083
:10627000884025490968084323490860E16A01EB21
:106280008101224A02EB8100211DFFF7FFF820491E
:10629000E06A0968C96A884202D301201D49086082
:1062A0001848006808B9012000E000200028D2D07A
:1062B0000CB1FEF7CFFE1848056865B100BFFFF7C7
:1062C00067FE10B10120134908606D1E002DF6D144
:1062D0000020114908600F48006838B101263007D6
:1062E0000E490860BFF34F8FBFF36F8FFFF704F9BC
:1062F000304670BD380000207461736B732E6300EC
:1063000010000020E0010020180000208C00002078
:1063100000000020240000202000002004ED00E008
:106320001CB50024FEF722FB0A48006850B10A4859
:10633000022100235022CDE9001008A10948FFF7EF
:10634000E1FD044624B940F2131107A0FEF750FA0C
:1063500020461CBD4400002048000020546D7220DF
:10636000537663009551000074696D6572732E63F6
:10637000000000002DE9FE4304460D4616461F4668
:10638000DDF828804FF0000924B94FF4C17116A040
:10639000FEF72EFA1748006810B300950196029494
:1063A000062D15DAFFF7DEFD022808D1002342464C
:1063B000694610480068FFF76DFB814610E0002336
:1063C0001A4669460B480068FFF764FB814607E000
:1063D00000233A46694607480068FFF733FC8146C8
:1063E0004846BDE8FE83000074696D6572732E63D4
:1063F000000000004400002018640000000000209D
:106400008C000000B0430000A46400008C00002059
:10641000FC7D0000C0430000000000000000000000
:10642000000000000000000000000000000000006C
:10643000000000000000000000000000000000005C
:10644000000000000000000000000000000000004C
:10645000000000000000000000000000000000003C
:106460000000000000000000AAAAAAAA0000000084
:10647000000000000000000000000000000000001C
:10648000000000000000000000000000000000000C
:1064900000000000000000000000000000000000FC
:0464A00000000000F8
:00000001FF
