:1040000000000120414300008D4300008D4300006B
:104010008D4300008D4300008D4300000000000030
:104020000000000000000000000000008D430000C0
:104030008D430000000000008D4300008D43000010
:104040008D4300008D4300008D4300008D43000030
:104050008D4300008D4300008D4300008D43000020
:104060008D4300008D4300008D4300008D43000010
:104070008D4300008D4300008D4300008D43000000
:104080008D4300008D4300008D4300008D430000F0
:104090008D4300008D4300008D4300008D430000E0
:1040A0008D4300008D4300008D4300008D430000D0
:1040B0008D4300008D4300008D4300008D430000C0
:1040C0008D4300008D4300008D4300008D430000B0
:1040D0008D4300008D4300008D4300008D430000A0
:1040E0008D4300008D4300008D4300008D43000090
:1040F0008D4300008D4300008D4300008D43000080
:104100008D4300008D4300008D4300008D4300006F
:104110008D4300008D4300008D4300008D4300005F
:104120008D4300008D4300008D4300008D4300004F
:104130008D4300008D4300008D4300008D4300003F
:104140008D4300008D4300008D4300008D4300002F
:104150008D4300008D4300008D4300008D4300001F
:104160008D4300008D4300008D4300008D4300000F
:104170008D4300008D4300008D43000000000000CF
:084180008D4300008D43000097
:104188000348044B834202D0034B03B118477047DE
:10419800008000200080002000000000054806493B
:1041A8000B1AD90F01EBA301491002D0034B03B13D
:1041B80018477047008000200080002000000000A1
:1041C80010B5064C237843B9FFF7DAFF044B13B157
:1041D8000448AFF300800123237010BD0080002045
:1041E800000000004C44000008B5044B1BB1044912
:1041F8000448AFF30080BDE80840CFE700000000A6
:10420800048000204C44000070B50D4E0D4D761B07
:10421800B61006D00024013455F8043B9847A6424E
:10422800F9D1094E094D00F00DF9761BB61006D0EC
:104238000024013455F8043B9847A642F9D170BDD3
:1042480064440000644400006844000064440000C2
:1042580008B500F0E7F8002008BD10B50124036890
:104268008C4023EA040302FA01F10B43036010BDFA
:104278000A4610B5014604460548FFF7EEFF32B975
:104288002146BDE810404FF04020FFF7E6BF10BDC3
:10429800200000400A4601460148FFF7DEBF00BF84
:1042A8001000004038B515460A1E0446014618BFDE
:1042B80001220648FFF7D1FFB5FA85F22146BDE88D
:1042C800384003485209FFF7C8BF00BF10400040FC
:1042D800184000400F2230B5074CC508800054F83C
:1042E800253000F01C00824023EA020301FA00F0A6
:1042F800034344F8253030BD44000740012303FA46
:1043080000F0044B1A6811B110431860704722EA94
:104318000000FAE7680007406FF04043014A136065
:104328005360704754000740024A53680343536080
:10433800704700BF00000740DFF830D0002103E0DD
:104348000B4B5B58435004310A480B4B42189A42B6
:10435800F6D30A4A02E0002342F8043B084B9A428B
:10436800F9D3FFF751FFFFF773FF704700000120F3
:104378006C440000008000200080002000800020A5
:104388001C800020FEE708B54FF48420FFF7CCFF1F
:1043980000210620FFF79EFF00210620FFF7AEFF51
:1043A800012206201146FFF77DFF01210620FFF7B5
:1043B8005FFF00210620FFF76DFFBDE80840FFF70B
:1043C800ABBF002384B00193019AB2F57A7F01DB79
:1043D80004B070470293029A632A03DD019A0132FE
:1043E8000192F1E7039A01320392029A0132029292
:1043F800F1E7002384B00193019AB2F57A7F01DBDB
:1044080004B070470293029AB2F57A7F03DB019AEF
:1044180001320192F0E7039A01320392029A0132C3
:104428000292F0E708B5FFF7AEFF00210620FFF77C
:1044380031FFFFF7C6FF01210620FFF72BFFFFF72B
:10444800D8FFF2E7F8B500BFF8BC08BC9E46704735
:0C445800F8B500BFF8BC08BC9E467047D9
:04446400F141000022
:04446800C941000046
:040000030000434175
:00000001FF
