:020000040002F8
:10600000000000001D600200DFF80CD000F012F864
:106010000048004725600200DCFC002001B5034871
:10602000004700000248804701BD000035600200C3
:10603000258F0200064C074D06E0E06840F00103A2
:1060400094E8070098471034AC42F6D3FFF7E0FF1E
:1060500008FF040028FF04002DE9F05F054600203A
:1060600092469B4688460646814640241BE02846C9
:1060700041464746224600F0EFFB53465A46C01AB7
:10608000914110D311461846224600F047F82D1AC8
:1060900067EB01084F4622460120002100F03EF840
:1060A00017EB00094E41201EA4F10104DFDC484635
:1060B00031462A464346BDE8F09F2DE9F0410024D1
:1060C000061B254671F1000605DA01240027D0EBF6
:1060D000070067EB0101161E73F1000605DA0027C1
:1060E000D2EB0702012567EB0303FFF7B5FF8646F6
:1060F0000E4617469C46AC4204D00025D0EB050E58
:1061000065EB010624B10020D2EB000760EB030C25
:10611000704631463A466346BDE8F081202A04DBEA
:10612000203A00FA02F1002070479140C2F12003AA
:1061300020FA03F31943904070470000004870476D
:10614000CCFE04000649074A0868504343F239026E
:10615000104408604008704701490860704700001B
:10616000388D00206D4EC64140EA01039B0703D0E5
:1061700009E008C9121F08C0042AFAD203E011F886
:10618000013B00F8013B521EF9D27047D2B201E048
:1061900000F8012B491EFBD270470022F6E710B52C
:1061A00013460A4604461946FFF7F0FF204610BD85
:1061B00030B505462A460B4612F8010B13F8014B81
:1061C00008B1A042F8D01CB1002802D06D1CF1E744
:1061D000284630BD421C10F8011B0029FBD1801A53
:1061E000704710B5002200E0521C835C8C5CA34217
:1061F00001D1002BF8D1D8B2E1B2401A10BD30B5B0
:1062000004460020034600E05B1C934203D2E05C9E
:10621000CD5C401BF8D030BD10B508E00A4602E066
:10622000A34208D0521C1378002BF9D1401C0478EB
:10623000002CF3D1002010BD2DE9F04791460F4608
:1062400080460446002614F8015B2DB1FFF776FF67
:106250000068405DC007F6D12B2D02D02D2D18D03F
:10626000641E4A463946204600F018FB27B13968BB
:10627000A14201D1C7F8008071054FF002040BD58F
:106280004042002803DD01F06BF90460A007BDE87F
:10629000F08746F48066E4E70028F8DA01F060F958
:1062A00004606FF00040F2E7F0B480EA0102D40F1E
:1062B0004200B2EB410F02D20246084611464A00A4
:1062C00042D0C30DDDB2C1F3C752AD1A202D35DA6D
:1062D000C1F3160141F4000204B15242C5F1200697
:1062E00002FA06F12A411044B3EBD05F23D0C4B1C7
:1062F000012DA0EBC35009DCF0BC4FF0004202EAD4
:10630000C352DBB200F5000000F020BB400000F1FA
:10631000807000EBC350A0F1807040EAD17049005A
:1063200009E0490841EAC071A0EBC35000F5000044
:10633000400800EBC350F0BC00F0FFBA61420122FC
:1063400002EB4101001BF6E7F0BC704781F0004111
:10635000AAE780F00040A7E780EA010210B502F04A
:106360000043400022D04A001FD0010E01EB126111
:10637000C0F35600C2F3560240F4000042F400029B
:10638000A0FB022000047F39140400D0401C50EA16
:10639000124001D44000491EC2B20C0604EBD010DA
:1063A000401C4008802A02D003E0002010BD20F0ED
:1063B0000100002900DA0020184310BD30B480EA43
:1063C000010202F0004530F0004221F0004013D0FD
:1063D00090B1C30DD40DC2F31601C0F31600E41A38
:1063E00041F4000140F400027D34914201D3641C69
:1063F00000E04900002C02DA30BC002070474FF466
:1064000000000023914201D3891A034340084FEA58
:106410004101F7D151B1914202D14FF0004105E065
:1064200002D24FF0010101E06FF0010103EBC45013
:10643000284430BC00F081BA2DE9FE4F804681EA45
:106440000300C00F0C46009021F0004123F00045EE
:10645000B8EB0200A94105D24046214690461C46B1
:106460000B46024623F00040104347D0270DC7F3E8
:106470000A00C3F30A510290401A019040286BDAD7
:10648000C3F3130040F4801B0098924620B1002310
:10649000D2EB030A63EB0B0B01985946C0F14002A3
:1064A0005046FFF73BFE06460D4650465946019AB8
:1064B00000F0E2F910EB08006141002487EA115274
:1064C00084EAE7731A4340D0009A62B3019A012A22
:1064D0004FEA075215DC001B61EB02014FF000424E
:1064E00002EA0752CDE90042001C41F58011324614
:1064F0002B4600F068FA03B0BDE8F08F4046214615
:10650000F9E7001B61EB0201001C41F58013001844
:106510005B412018A2F5001747EB030140EAD57054
:10652000B6196D4111E06D084FEA360645EAC075AF
:106530004FEA0752001B61EB0201001C41F580117C
:1065400049084FEA30000019514132462B4603B04A
:10655000BDE8F04F00F028BA009801224000002367
:10656000D0EB020263EBE073009821464FEAE0743F
:10657000B8EB000061EB0401E9E783F000435BE75F
:1065800081F0004158E72DE9FE4F81EA030404F051
:10659000004421F0004100944FF0000B23F0004331
:1065A00050EA01045ED052EA03045BD0C3F30A54FC
:1065B000C1F30A552C44A4F2F3340194A0FB025415
:1065C000C1F3130141F48011C3F3130343F48013A7
:1065D00001FB024400FB034E840A970A44EA8154FB
:1065E00047EA8357A4FB076802958D0A05FB0785D8
:1065F0004FEA932C04FB0C542705029D4FEA0658E2
:1066000047EA1637B5EB08056EEB070C870E920EBE
:1066100047EA811742EA8312A7FB0201B6EB0B019E
:1066200064EB00042B0D43EA0C335E1844EB1C5062
:10663000DA465146E7FB0201C5F313044FEA0B3378
:1066400043EA14534FEA0432019C43EA0603A4F1DF
:106650000C040294009CCDE900B400F0B4F903B03E
:10666000BDE8F08F00200146F9E72DE9F04D81EA01
:10667000030404F0004B21F0004514464FF0000ADB
:1066800023F0004150EA050220D054EA01021DD057
:10669000C5F30A570246C5F31303C1F31300C1F350
:1066A0000A5640F4801543F48013A7EB0608101B2C
:1066B000D64608F2FD3873EB050002D308F1010855
:1066C00001E092185B41B8F1000F03DA00200146A7
:1066D000BDE8F08D00204FF48011064684460EE0A0
:1066E000171B73EB050705D3121B63EB050306436A
:1066F0004CEA010C49084FEA300092185B4150EA1D
:106700000107EDD152EA030012D082EA040083EAC5
:106710000501084305D0101BAB4106D2012200231E
:1067200006E000224FF0004302E06FF00102531038
:106730001AEB06004CEB085110EB0A0041EB0B0181
:10674000BDE8F04D00F030B9C10F80EAE0700844B8
:10675000CA079623002100F0F9B8962300221146BB
:1067600000F0F4B800F0004220F00040C10DC0F38A
:10677000160040F400007F2901DA002070479629B6
:1067800003DCC1F19601C84001E096398840002A37
:10679000F4D04042704720F00040C10DC0F3160015
:1067A00040F400007F2901DA00207047962903DCBD
:1067B000C1F19601C8407047963988407047C1F3CF
:1067C0000A5210B5C1F3130140F2FF3341F48011B6
:1067D0009A4201DA002010BD40F233439A42A2F2FD
:1067E000334203DC524200F037F810BD904010BD38
:1067F00000F0004230F000400AD0C10D01F5607198
:10680000C0F3160042EA0151C20840071143704725
:106810000020014670470000002801DBC0F1004065
:10682000002901DBC1F100418142704730B50B46C0
:10683000014600202022012409E021FA02F59D42B0
:1068400005D303FA02F5491B04FA02F52844151E84
:10685000A2F10102F1DC30BD202A04DB203A21FA4A
:1068600002F00021704721FA02F3D040C2F1200269
:106870009140084319467047202A06DBCB17203A7F
:1068800041FA02F043EAE07306E041FA02F3D04035
:10689000C2F1200291400843194670472DE9F05F8C
:1068A00082460078002715468B460AF10104B94656
:1068B000302801D09DB113E014F8010B012778288E
:1068C00003D0582801D045B10AE00DB1102D07D1F1
:1068D0000027102514F8010B02E0082500E00A2526
:1068E0000026B0460EE005FB080005FB06F1012777
:1068F00001EB10461FFA80F8B6F5803F00D3B94689
:1069000014F8010B294600F02DF90028EBDABBF151
:10691000000F05D00FB1641E00E05446CBF80040D4
:10692000B9F1000F06D000F01BFE02210160C81E65
:10693000BDE8F09F48EA0640FAE70029A8BF704783
:10694000401C490008BF20F00100704710B4B0FAA5
:1069500080FC00FA0CF050EA010404BF10BC704740
:1069600049B1CCF1200421FA04F411FA0CF118BF5A
:10697000012121430843A3EB0C01CB1D4FEA006129
:106980004FEA102042BF002010BC704700EBC350FC
:1069900010440029A4BF10BC7047401C490008BF28
:1069A00020F0010010BC704710B5141E73F10004F4
:1069B00008DA401C41F1000192185B411A4301D1F1
:1069C00020F0010010BD2DE9F04D92469B4611B11B
:1069D000B1FA81F202E0B0FA80F220329046FFF77D
:1069E0009DFB04460F4640EA0A0041EA0B0153466C
:1069F0005A46084313D0114653EA010019D0C8F192
:106A000040025046FFF728FF05460E4650465946BD
:106A10004246FFF783FB084305D0012004E02046EF
:106A20003946BDE8F08D0020054346EAE0762C4368
:106A300037430A986305E40AA0EB08000022FD0A28
:106A400044EA47540A3002D500200146E9E701052F
:106A500010196941DDE9084500196941BDE8F04DAB
:106A6000A2E72DE9F04D00231A461B1A8A4103DBE9
:106A700000200146BDE8F08DC1F30A52C1F31301B5
:106A800041F480154FF0000BD10702D100186D4181
:106A9000521E0027044640F2FF11384601EB620AFD
:106AA0003E468046024600204FF48011FFF7D4FE98
:106AB000C2197141BB1846EB0100B4EB030C75EB36
:106AC000000C04D3E41A65EB000517460E462419A2
:106AD00008F101006D4180463428E3DDF91946EBE9
:106AE0000600091BA84103D24FF0FF32134601E014
:106AF000002213461BEB070046EB0A51BDE8F04DA0
:106B0000FFF752BFC1F30A52C1F3130140F2FF3342
:106B100041F480119A4202DA00200146704740F2A7
:106B200033439A42A2F2334202DC5242FFF794BE50
:106B3000FFF7F4BA30B5041E71F1000404DB4FF026
:106B40000044404264EB0101141E73F1000405DBB4
:106B50001C464FF00043524263EB0403994208BFC6
:106B6000904230BD3A2800D2303820F02002412A2D
:106B700001D3A2F13700884201D34FF0FF307047B4
:106B800070B58C1810F8015B15F0070301D110F8EF
:106B9000013B2A1106D110F8012B03E010F8016B1C
:106BA00001F8016B5B1EF9D12B0705D40023521E9F
:106BB0000DD401F8013BFAE710F8013BCB1A921C07
:106BC00003E013F8015B01F8015B521EF9D5A14205
:106BD000D8D3002070BD000010B5094B1B68012BF5
:106BE00001D1772300E04F231A4604E0002100E0A2
:106BF000491C9142FCD3031EA0F10100F6D110BD47
:106C00008480002010B5094B1B68012B01D177232C
:106C100000E04F231A4604E0002100E0491C9142A5
:106C2000FCD3031EA0F10100F6D110BD8880002026
:106C300010B50A4B1B68012B02D142F6746301E0C8
:106C400041F6FA631A4604E0002100E0491C914233
:106C5000FCD3031EA0F10100F6D110BD84800020FA
:106C600010B50A4B1B68012B02D142F6746301E098
:106C700041F6FA631A4604E0002100E0491C914203
:106C8000FCD3031EA0F10100F6D110BD88800020C6
:106C900070B594B0054602A812900E460AA8144694
:106CA000134613900AAA02A930461FF008F861881B
:106CB000491C09B2CDE9001488B1002012A90023B3
:106CC00051F8202004F14401284600F011F8214633
:106CD000284600F008F820B1002014B070BD012053
:106CE000ECE70120F9E70978490049B224F04CBEED
:106CF0002DE9FF4FB5B00AA8DDE942841D4694F99D
:106D0000007036993A462E9025F02AF836983A4681
:106D100000EB87011AA88A46064625F021F8CDE93E
:106D2000005412AB02AA31462E9800F09AFBA8F14B
:106D3000020005B222E02946379825F04CF80028D9
:106D40007AD0002212AE02AB06EB421B03EB4218D4
:106D5000C2F1010206EB421903EB42165B464246C2
:106D600049463046009400F0F0FA4B463246594608
:106D70004046009400F084FA6D1E2DB2002DDADC3E
:106D80000021379825F027F8002857D0002212A9B3
:106D900001EB421302AE06EB4218C2F1010201EB15
:106DA000421506EB42169946424629463046009463
:106DB00000F0CBFA231D02AA009722A82E9924F0F6
:106DC00029FF22A92A462346084624F00FFF22A9BC
:106DD00023460846369A24F009FF22A93B46221D85
:106DE000084624F07CFE22A952462346084624F099
:106DF000FDFE22A932462346084624F0F7FE32461D
:106E0000494640462B46009400F03AFA234622AA0F
:106E100012A902A802F0ACF83A4602A9359824F06B
:106E20009FFF35983A4600EB870012A924F098FF9F
:106E300039B0BDE8F08FFFE7012283E70122A6E722
:106E40004FF4C8304FF44421886070474FF4C83085
:106E50004FF4442188607047022001490860704760
:106E600000100440022001490860704700100440EF
:106E700000200149086070470010044000200149CB
:106E8000086070470010044001200549086000BFF9
:106E90000448C068C0F300100028F9D17047000012
:106EA000001004400000074001200549086000BFB1
:106EB0000448C068C0F300100028F9D170470000F2
:106EC000001004400000074070B504460D462560E0
:106ED0000120FFF781FE00BF0348C06A00F00100F7
:106EE0000028F9D170BD00000000074070B50446CD
:106EF0000D4625600120FFF785FE00BF0348C06AEC
:106F000000F001000028F9D170BD0000000007402A
:106F100000204FF44421C860704700204FF4442102
:106F2000C860704702204FF44421C86070470220B7
:106F30004FF44421C86070474FF44421086840F082
:106F400001014FF44422116000BF4FF4442109684D
:106F500001F001010029F8D17047000010B5044686
:106F6000074820444FF4442148600120FFF760FEA9
:106F700000BF0448C06AC0F340000028F9D110BD2A
:106F8000000065840000074010B50446074820440F
:106F90004FF4442148600120FFF762FE00BF04481F
:106FA000C06AC0F340000028F9D110BD000065841C
:106FB0000000074070B505460C4616463246294685
:106FC000084800F011F804F0010229460548203075
:106FD00000F00AF8621029460248103000F004F868
:106FE00070BD00005000004030B5012404FA01F3E8
:106FF00004689C4302FA01F52C43046030BD000094
:1070000070B505460C46224629460548FFF7ECFFB9
:107010002CB9002229464FF04020FFF7E5FF70BD54
:107020002000004070B504460D4616460DB1012003
:1070300000E00020024621460648FFF7D5FF0EB9C2
:10704000012000E000200246214602480830FFF7F8
:10705000CBFF70BD1040004070B504460D462A4677
:1070600021460248FFF7C0FF70BD0000100000403D
:10707000F0B589B005460C460027242C0FD10BF043
:10708000D9FA06461EB96FF0680009B0F0BD224675
:107090002946301DFFF768F8301D069000E0069580
:1070A0000620029004200390012004900594002003
:1070B00007900023421E01A908480068FBF72EF83C
:1070C00047B2012F01D1012000E0002020B940F299
:1070D000B92103A0F6F768FB0020D6E7F080002076
:1070E0006D6573685F7372762E63000001480078E7
:1070F0007047000069800020002016F0B9BA000037
:1071000070B50546002128461BF06CFD044604B10D
:1071100005E040F2ED1203A10AA000F017FA2046A4
:1071200070BD00002E2E5C2E2E5C2E2E5C737263C2
:107130005C4D6573685C6D6573685F6465662E6839
:10714000000000006275660010B500211BF04AFDCA
:10715000002801D1AFF3008010BD10B500211BF055
:1071600041FD002801D1AFF3008010BD10B5002112
:107170001BF038FD002801D1AFF3008010BD10B521
:1071800000211BF02FFD002801D1AFF3008010BDBE
:1071900010B500211BF026FD002801D1AFF30080BF
:1071A00010BD10B500211BF01DFD002801D1AFF36B
:1071B000008010BD10B500211BF014FD002801D186
:1071C000AFF3008010BD10B500211BF00BFD0028AF
:1071D00001D1AFF3008010BD6FF040400149486518
:1071E000886570470000074070B5064D43193F257C
:1071F00005FA01F41D68A54302FA01F635431D6046
:1072000070BD00000000074070B504460D460CB983
:10721000002000E0122001462A465420FFF7E4FF38
:1072200070BD000030B5C410064D05EB8402440764
:10723000E30E14680F259D40AC4301FA03F52C437F
:10724000146030BD4400074010B50246064829B11D
:107250000368012494402343036004E0036801248D
:107260009440A343036010BD680007400249496889
:107270000143014A516070470000074001607047B8
:107280002DE9F04389B09146109C98460E4607467A
:1072900094F900500246231D494601A8009524F0A8
:1072A000B9FC01A92246084624F0B0FC3946234621
:1072B00001AA084624F09AFC4946234601AA08463A
:1072C00024F094FC4146231D32460846009524F0E4
:1072D000A1FC2246414601A824F098FC01A9231DE7
:1072E0003A460846009524F095FC01A9231D4A461C
:1072F0000846009524F08EFC4946231D3A46084670
:10730000009524F087FC314623464A46084624F07F
:107310006DFC231D01AA39464846009524F07AFCED
:10732000414623464A46084624F060FC4146231D58
:1073300032460846009524F06DFC2A4601A94846CD
:1073400024F00EFD09B0BDE8F0832DE9F04399B0BB
:107350001646209C99460F46804694F900500246F6
:10736000231D314609A8009524F054FC09A92246A2
:10737000084624F04BFC4146234609AA084624F05F
:1073800035FC3146234609AA084624F02FFC231D6C
:107390003A46494609A8009524F089FB4946231D31
:1073A0003A460846009524F035FC231D42463146F6
:1073B00001A8009524F02EFC3946234601AA084670
:1073C00024F014FC231D3246414601A8009524F008
:1073D0006EFB22464946304624F018FC3146231DF8
:1073E00001AA0846009524F015FC231D32464146AB
:1073F00011A8009524F00EFC4946234611AA084620
:1074000024F0F4FB4946231D3A460846009524F033
:1074100001FC224609A911A824F0F8FB11A9231D9B
:1074200001AA0846009524F0F5FB231D424611A948
:1074300001A8009524F0EEFB01A9234609AA0846FD
:1074400024F0D4FB3A46231D01A91046009524F0F0
:10745000E1FB2A4611A9404624F082FC19B0BDE8A0
:10746000F0832DE9F04389B08946DDE910141E460A
:1074700094F900501746804621B12A46684624F008
:107480006FFC05E02946684624F030FA01200090A0
:107490002A464146384624F063FC2A46494630468F
:1074A00024F05EFC23466A464946404601F060FDF2
:1074B000D4F8A45023466A4649464046A847234686
:1074C0006A463146384601F053FD09B0BDE8F08305
:1074D0000FB4054B10B503A9044A029800F00AFA4C
:1074E00010BC5DF814FB0000094E03003C8D002029
:1074F0000FB41CB50246002007AC00290BD0491E72
:10750000CDE90021054B6A462146069800F0F2F9C4
:10751000009A002111701CBC5DF814FB2D80020044
:107520007CB5044600201D46164600290BD0491E96
:10753000CDE90041044B6A462946304600F0DAF9AD
:10754000009A002111707CBD2D80020002A0FFF77F
:10755000BFFF00BFFEE700006173736572740A002D
:1075600000487047408D002002E008C8121F08C183
:10757000002AFAD170477047002001E001C1121FB4
:10758000002AFBD1704700000149086070470000E5
:10759000408D002010B51C4613468C4205D822466B
:1075A0001946FEF7E1FD204610BD002010BD000089
:1075B0002DE9FF5F82B00021DDE90430020DDDF826
:1075C00040B0034318D044F61050A2F2FF324243B9
:1075D0001514119801281FD0A5EB0B00401C5FEA81
:1075E000000A4FF000064E4FDFF83891B046504683
:1075F00015D5CAF1000413E0119801244AA301280B
:1076000001D16FEA0B010298119AC0E90031C0E97B
:10761000024206B0BDE8F09FCBF10000DFE7044670
:107620000021404A491842EB0450CDE9001012E015
:10763000E00707D032463B4640464946FEF7A3FFE7
:107640008046894632463B4610461946FEF79BFF68
:1076500006460F466410002CEAD1DDE90401DDE99D
:107660000023BAF1000F06DAFEF78DFF42464B46C3
:10767000FEF789FF05E0FEF7F8FF42464B46FEF7AE
:10768000F4FF04460E460022284BFFF753FA03D8B6
:107690004FF0FF30014607E00022254B20463146DF
:1076A000FEF7CAFEFFF72EFA102409E0002C0ADBD1
:1076B0000A220023FEF7D0FC039B30321A55641EC9
:1076C00050EA0102F2D1641C039AC4F1110314447C
:1076D000119A012A03D0012208430DD10AE0084380
:1076E00004D000204FF0110B119072E7A3EB0B05B3
:1076F0006D1E0DE05B4504DD4FF0000205F1010554
:1077000004E003DA4FF00002A5F10105002AECD0F5
:1077100002981199C0E90231C0E9004579E70000FB
:10772000000014400000F03F300000000000F04373
:107730000000E03F2DE9F05F0F46DDE90CB6DDE922
:107740000AA881681D469146044659B133484078DD
:1077500018B915B10A20BDE8F09F486920B9B8F101
:10776000000F01D00720F6E797B3104603F0DEFBC9
:10777000002851D0A0688780A168A1F80690A06871
:10778000C17A65F30411C172A16881F808A0A168EB
:1077900081F80A80A16881F809B0A0684069A8B39F
:1077A000204606F0C5FF05461D480088C00408D5E0
:1077B0001C480078C00704D02A461B491BA018F0BB
:1077C000A7FEA068FDB11830294612F080FA1DE02E
:1077D000FFE788880028BED000208880A168C88084
:1077E000A168CA7A22F01002CA72A1680872A16860
:1077F0008872A1684872A068C17A21F0E001C17264
:10780000A068416911B1183012F036FA16B120465D
:107810000AF006FB00209EE703209CE76885002015
:10782000248100202681002064E0040025733A2092
:10783000706572696F64202575206D730A00000001
:1078400000998A78098818F027BC70B50546C08869
:107850000C4608B1AFF3008005F11000627904F125
:1078600010010646FEF780FC60796871607930444B
:10787000286070BD81680288C38809881A4408445A
:10788000801A103080B2704781680288C3880988E6
:107890001A440844801A103080B270478168028808
:1078A000C38809881A440844801A103080B270478F
:1078B00081680288C38809881A440844801A1030F5
:1078C00080B270470A4A10B503461068014603E0CB
:1078D00004889C4203D280680028F9D101E0002886
:1078E00002D111B15068083810BD002010BD000051
:1078F000088700202DE9FF4F95B09B468946064634
:1079000000250FE2252877D100242746F84A0121D7
:10791000059400E0044316F8013F203B01FA03F010
:107920001042F7D130782A2811D06FF02F03307829
:10793000A0F13002092A16D8059A44F0020402EB9D
:10794000820203EB42021044761C0590EFE759F8DF
:10795000042B0592002A03DA504244F400540590A7
:1079600044F00204761C30782E2816D116F8010F48
:1079700044F004042A280DD06FF02F023078A0F1D3
:107980003003092B09D807EB870302EB4303C71821
:10799000761CF3E759F8047B761C30786C280FD0FE
:1079A00006DC4C2817D068280DD06A2814D104E0D2
:1079B000742810D07A280FD10DE044F400140AE0A6
:1079C00044F4801401E044F440147278824202D1FD
:1079D00004F58014761C761C307866280BD013DCF6
:1079E000582877D009DC002875D04528F6D04628DD
:1079F000F4D047281AD19DE118E0632835D06428D7
:107A000079D0652812D195E1702873D008DC6728F9
:107A1000F1D069286FD06E280DD06F2806D1B5E05F
:107A200073282CD0752875D0782874D05A461799A9
:107A300090476D1C75E1C4F30250022809D0032859
:107A40000DD0D9F8001004280DD00D6009F10409FB
:107A500067E1D9F80010EA17C1E90052F6E7D9F852
:107A600000100D80F2E70D70F0E719F8041B8DF897
:107A7000001000208DF80100EA46012003E059F8CB
:107A800004AB4FF0FF3061074FF0000102D40DE06E
:107A900008F101018846B9420FDA8045F8DB1AF88F
:107AA00008100029F4D108E008F10101884681425C
:107AB000FADB1AF808100029F6D105985B46A0EB0E
:107AC000080721463846179A00F094FA284400EB3C
:107AD000080507E04DE029E10DE01AF8010B5A46D0
:107AE00017999047B8F10108F7D25B46214638460E
:107AF000179A13E142E00A220092C4F302524FF0B7
:107B0000000A022A08D059F804CB032A4FEAEC7184
:107B10000AD00DE029E02AE009F1070121F007026F
:107B2000F2E802C1914609E00FFA8CFC4FEAEC71D1
:107B3000042A03D14FFA8CFC4FEAEC71002907DAD2
:107B40000A460021DCF1000C61EB02012D2202E06B
:107B5000220504D52B228DF80420012203E0E20740
:107B600001D02022F7E7904659E00A2102E01022D6
:107B70000DE010214FF0000A00910BE010224FF0B1
:107B8000000A44F004040827009203E008224FF0A2
:107B9000000A0092C4F30252022A05D059F804CB1D
:107BA0000021032A08D009E009F1070121F00702AA
:107BB000F2E802C1914605E01FFA8CFC042A01D1CB
:107BC0000CF0FF0C4FF00008220728D5702806D0D3
:107BD000009B83F0100353EA0A0305D00EE0402215
:107BE0008DF80420012208E05CEA010206D0302270
:107BF0008DF804208DF8050002229046009B83F04A
:107C0000080353EA0A030AD15CEA010201D16207C0
:107C100005D530228DF804204FF001087F1E58282A
:107C200004D034A003900EA802900DE036A0F9E72E
:107C300053466046009AFEF70FFA84460398825C2A
:107C40000298401E029002705CEA0100F0D1029896
:107C500006A9081A00F1200A600702D524F480342E
:107C600000E00127574502DDA7EB0A0000E00020F5
:107C700000EB0A01009005984144401A0590E0038A
:107C800006D45B462146179A059800F0B3F90544DF
:107C9000002706E001A85A46C05D179990476D1C61
:107CA0007F1C4745F6DBE0030CD55B462146179A5F
:107CB000059800F09FF9054404E030205A461799D2
:107CC00090476D1C0099481E00900029F5DC08E0E3
:107CD000029802995A460078491C029117999047D8
:107CE0006D1CBAF10001AAF1010AF1DC65E10000A6
:107CF0000928010030313233343536373839616282
:107D00006364656600000000303132333435363745
:107D100038394142434445460000000000F058F91C
:107D20000544761C307800287FF4ECAD19B0284665
:107D3000BDE8F08F620700D4062709F1070222F0A0
:107D4000070CFCE80223E14603F000485FEA080C58
:107D500002D00FF2702C0DE05FEA045C02D50FF246
:107D6000682C07E05FEAC47C02D00FF2602C01E0CF
:107D7000AFF2700C4FF0FF3823F00043CDF850C045
:107D800065280CD006DC452809D046281DD0472898
:107D90003DD13DE0662818D067287ED138E000212B
:107DA000112F01DB112000E0781CCDE9000106A9AC
:107DB0000EA8FFF7FDFBDDE90F010E9A03910021EC
:107DC000009207F1010A04914DE04FF00040009746
:107DD000CDE9011006A90EA8FFF7EAFBDDE90F02C5
:107DE00003920E9B11990022DDF80CA000930492DF
:107DF00011B9791C00EB010AB7EB0A0004D4C0F1F9
:107E0000FF3007F1010A0490AAEB0700019044E05B
:107E1000012F00DA01270021112F01DD112000E0E0
:107E20003846CDE9000106A90EA8FFF7C1FBDDE940
:107E30000F010E9A0391002104910092BA46210786
:107E40000CD40399514500DA8A46BAF1010F05DDD9
:107E5000009AAAF10101515C302908D0B84202DA37
:107E600010F1040F06DA0121CDE9011015E0AAF1A5
:107E70000101E9E7002805DC049901440491AAEB1B
:107E8000000102E0411C514500DD8A460499401A78
:107E9000401C01904FF000400290200704D401984C
:107EA000504501DBCDF8048000208DF84F0002988A
:107EB0000DF14F07B0F1004F25D02B200E90029806
:107EC0004FF0020800280CDA404202902D200E905C
:107ED00007E00A210298FEF7A9FC3031029007F86A
:107EE000011DB8F10001A8F10108F2DC0298002898
:107EF000EFD1791E0E980870307800F0200040F025
:107F0000450007F8020D12A8C01B00F107081498DD
:107F1000007800B1012000EB0A01019801EBE0714B
:107F200005984144401A401E0590E00306D45B4684
:107F30002146179A059800F05DF8054414980078DA
:107F400018B15A46179990476D1CE00324D55B463B
:107F50002146179A059800F04DF805441CE0049856
:107F6000002807DBDDE90301884203DD0098405C5F
:107F7000179901E0179930205A469047049805F167
:107F80000105401C04900198401E019004D12E2050
:107F90005A46179990476D1CBAF10001AAF1010ADF
:107FA000DDDC05E017F8010B5A46179990476D1C68
:107FB000B8F10001A8F10108F4DC5B462146179AEC
:107FC0000598ABE62D0000002B000000200000000B
:107FD0002DE9F041044600251E461746880404D4C6
:107FE00005E039462020B0476D1C641EF9D52846AF
:107FF000BDE8F0812DE9F041044600251E4690467B
:10800000C80301D5302700E02027880404D505E007
:1080100041463846B0476D1C641EF9D52846BDE878
:10802000F08113460A461946FEF7B0B84A68002A9E
:1080300006D00A68531C0B6010704868401E4860E8
:108040007047000007480088800509D50648007879
:10805000C00705D005480649027906A018F060BAA5
:10806000704700002481002026810020A485002084
:1080700080E8040025733A20786163742025752018
:10808000636F6D706C6574650A00000010B504467E
:10809000807CFF2801D103F0FFFD00EBC00101EB64
:1080A0000010962101EB4001A0694FF0553303EA1F
:1080B0005003C01A4FF0333200F0333302EA90001D
:1080C000184400EB101000F00F3000EB1020227C61
:1080D00000EB104000F03F0002F01F02101A00EB0E
:1080E000C00202EB001001EB800064304FF4C87155
:1080F000884200DC084610BD2DE9F04104462046C8
:10810000FEF72BFB06460949FEF758F905462946B6
:108110000648FEF721F907462946FEF71DF90646EF
:108120000AF018FD80B2BDE8F081000000FF7F4733
:108130001CB50A460146684600F03BF814E0684664
:1081400000F028F8C4B2684600F01DF8684600F058
:1081500014F8242C0FD0292C0DD02A2C0BD02B2C2A
:1081600009D0684600F02AF8684600F019F800289F
:10817000E5D101201CBD00201CBD01468888801C63
:108180000A681044704701468A880868805C401E6F
:10819000C0B2704701468888401C0A68105C70476E
:1081A00001468888CA88904201DA01207047002081
:1081B000FCE70260C18000238380704710B584888B
:1081C00003681A5D83885B1C9918FF2900DDFF2175
:1081D000818010BD2DE9F04116468846044603F023
:1081E0001BFC070004EB0800A0F1010085B26FF052
:1081F00015003BD0002C39D04FF400418C4235D2D1
:10820000002D33D08D4231D2B8F1000F2ED0002E88
:108210002CD008F055FE01463A89401E104480B229
:108220006FF00A038D4204D3844202D8401C308090
:108230001BE0124F00204FF6FF7C00BF00EB400117
:1082400001EBC00107EB410101F53A714A88624533
:108250000ED00A88097DA2F10108414489B29542F5
:1082600006D38C4204D8491C31801846BDE8F08101
:10827000401C0428E2D30020F8E7000028870020F3
:108280000249C0EBC00001EB8000704720A3002032
:10829000024900EB800001EBC0007047B8D7002016
:1082A00010B54FF4C8720A21002002F08FFB00289D
:1082B00006D1044901F2073018F032F9AFF300801B
:1082C00010BD000071E804002DE9F04F04468069FC
:1082D00087B04FF0000BD0E90056CDF804B0CDF8D0
:1082E00008B0CDF80CB0A069417A012000EBD102B2
:1082F000554802EB82038068B0EB430F02DC02EBCF
:108300008200400087B201F007007843DFF83C911B
:10831000DFF83CA13C301FFA80F899F800009AF889
:1083200000100840C00720D0E188206802F07AFAE7
:108330000090A069E3884749007A00F0030246A054
:1083400018F0E0F899F800009AF800100840C0070B
:108350000BD0CDF80080A0693B463E49407A00F042
:108360000702521C43A018F0CDF8A0693949002338
:10837000007A343900F003000122085C8DF8100007
:10838000A0798DF8110020680590F8000521B0FB58
:10839000F1F0ADF80600ADF808008DF804B004A9BE
:1083A00001A8CDF800B002F06DFA0746204618F09B
:1083B000A3FA394632461DB12C680CB14046A0479D
:1083C0001FB13A46234936A02EE099F800009AF8EA
:1083D00000104C4608405746C00704D042461D498D
:1083E00037A018F08FF8DFF86080D8F8040011F09B
:1083F0009BFC2078C00706D03878800703D5154944
:108400003AA018F07FF80020314615B16A6802B131
:10841000904798F80000002808D0002002F0C6FA23
:10842000020006D00B4937A018F06CF807B0BDE881
:10843000F08F2078C007F9D038788007F6D5054945
:108440003BA018F05FF8F1E71C8500202481002094
:1084500026810020E4D9040025733A2074797065E0
:10846000202575206F6D5F6C656E2025753A20257F
:10847000730A000025733A20636F756E74202575AA
:1084800020696E74657276616C2025756D73206449
:1084900075726174696F6E2025756D730A00000036
:1084A00025733A204164766572746973696E67203A
:1084B0006661696C65643A206572722025640A0001
:1084C00025733A204164766572746973696E67201A
:1084D000737461727465642E20536C656570696E87
:1084E00067202575206D730A0000000025733A206F
:1084F0004164766572742073656E74206F76657260
:108500002E0A000025733A2053746F7070696E67ED
:10851000206164766572746973696E67206661694B
:108520006C65643A206572722025640A00000000C0
:1085300025733A204164766572746973696E6720A9
:1085400073746F707065640A0000000010B5818B51
:10855000A1F57F42FF3A07D090F82000012805D00E
:1085600004F0F2FD012801D0002010BD012010BD53
:1085700010B500200349087001220A20E3F7EAF849
:10858000012010BD6A80002070B50B461446DE0045
:10859000B6FBF4F2D109A2EBC112561C7508416278
:1085A000B1F5803F00D209B900BFFEE74FF6FF7674
:1085B000B14202D10026866201E0521A8562C66A83
:1085C000C66270BD01468869C0F34010704770B53F
:1085D00005460C461646002028636864A863686058
:1085E0006862A862E8622846D4E90312FFF7CCFF6C
:1085F0006078C0F38000C001217840EA4110A17882
:1086000040EA0110E17840EAC100617801F003011D
:1086100040EA4100E862A07A617A40EA012068639A
:10862000AE6320794002617940EA0120A1790843D4
:10863000E17940EAC130217A40EA8130286370BD97
:108640002DE9FE43804614460F460A20FEF78EFDB4
:10865000814602AA01A9204611F0C2FB224D234EF9
:108660002888C0040AD53078C00707D0BDF8043088
:10867000BDF808201E491FA017F04AFF48F2030169
:10868000484606F033F80023BDF80810BDF8040092
:10869000226800F09DF904462888C00407D5307888
:1086A000C00704D0224612491BA017F031FF214613
:1086B000484617F0D1FFBDF80820BDF80410484621
:1086C00011F07DFB0020034600904A4639464046A3
:1086D00006F07AFA18B1064914A017F019FF4846B7
:1086E0001AF072F9BDE8FE83248100202681002063
:1086F00091E0040025733A2041707049647820307D
:108700007825303478204E65744964782030782597
:108710003034780A0000000025733A2073746174C5
:108720007573203078253032780A000025733A209E
:10873000556E61626C6520746F2073656E642041B4
:108740007070204B65792053746174757320726565
:1087500073706F6E73650A00FEB5074614460E46C9
:108760000A20FEF703FD054602AA01A9204611F0E2
:1087700037FB24480088C0040BD523480078C00785
:1087800007D0BDF80430BDF80820204920A017F01C
:10879000BFFEBDF8040009F04DFC58B1BDF808005B
:1087A00002F0C4FB40B10188BDF80420914225D0FD
:1087B000112402E0042400E0002448F203012846CA
:1087C00005F094FF2146284617F046FFBDF8082023
:1087D000BDF80410284611F0F2FA0020034600907C
:1087E0002A463146384606F0EFF918B1074911A07C
:1087F00017F08EFE28461AF0E7F8FEBD012102F0C0
:1088000059FBD9E72481002026810020C0E0040024
:1088100025733A20417070496478203078253034CF
:1088200078204E6574496478203078253034780A91
:108830000000000025733A20556E61626C6520745B
:108840006F2073656E6420417070204B65792053F2
:10885000746174757320726573706F6E73650A004E
:108860002DE9F84F8146144688460F20FEF77EFC1E
:108870008246204617F04CFF0646B0F5805F05D3D0
:1088800002462D492DA017F043FE4FE033480088E3
:10889000C00408D532480078C00704D032462649C3
:1088A00030A017F035FE48F20201504605F01EFFD9
:1088B000304609F0BFFB50B100242146504617F066
:1088C000CBFE3146504617F0BBFE14BB01E004243A
:1088D000F3E74FF6FF75274F2946002404EB840089
:1088E00007EBC00000F550700288B24208D1A942DF
:1088F00001D1418804E04288504611F060FA2946CF
:10890000641CA4B2042CE9D3A94202D0504617F04B
:1089100097FE00200346009052464146484606F026
:1089200053F918B1044914A017F0F2FD5046BDE800
:10893000F84F1AF049B80000CCE0040025733A2043
:10894000496E76616C6964204E65744B6579496E39
:10895000646578203078253034780A00248100203E
:108960002681002025733A206964782030782530EC
:1089700034780A002887002025733A20556E6162FA
:108980006C6520746F2073656E64204170704B6558
:1089900079204C6973740A0030B50C4B00214FF6F6
:1089A000FF7400BF01EB810203EBC20202F55072BB
:1089B0001588A54204D05288824201D1012030BDE1
:1089C000491C0429EED3002030BD00002887002078
:1089D0002DE9FF4FDFF834A10646DFF83491BAF8ED
:1089E000000083B098468B46C0040FD599F800006C
:1089F000C0070BD01021059801F014FFCDE90080CD
:108A00005B463246434944A017F082FD304609F0E8
:108A100011FB070033D0584602F088FA0446B8F13B
:108A2000000F1CD034B12088B04205D0112007B00F
:108A3000BDE8F08F0320FAE7F87F04F1160501285E
:108A400008D1207940B11022681C0599FDF7D7FBA9
:108A50000028ECD00B20EAE70120207117E084B158
:108A60002088B04206D11022A01D0599FDF7C7FB52
:108A70000028DCD02088B04201D10620D7E70420AE
:108A8000D5E7584602F000FA04000CD0651D2946CF
:108A9000059804F073FE40B1B8F1000F01D000203A
:108AA00020710920C3E70520C1E7BAF80000574646
:108AB000C00409D599F80000C00705D02B785A46A4
:108AC000144922A017F024FD2680A4F802B0102239
:108AD000681C0599FDF748FB3888C00407D599F84C
:108AE0000000C00703D00B4920A017F011FD20465D
:108AF00009F046F908F0B0FAC06B20B108F0ACFA02
:108B0000C16B0A208847002091E7000024810020E3
:108B10002681002085E0040025733A206E65745F8D
:108B200069647820307825303478206170705F690E
:108B30006478202530347820757064617465202550
:108B4000752076616C2025730A00000025733A2099
:108B50006170705F69647820307825303478204106
:108B60004944203078253032780A000025733A20B5
:108B700053746F72696E67204170704B6579207015
:108B8000657273697374656E746C790A0000000015
:108B900070B58AB016000C4601D0134600E049A318
:108BA0004A494BA0226817F0C7FC10220021206818
:108BB000FDF742FB85B28EB12320099009AA6946D0
:108BC000304620F0E9F8040016D0034632463F490B
:108BD00045A017F0B1FC20460AB070BD2A463B49BB
:108BE0004BA017F0A9FC284602F0A0F910B1002113
:108BF00002F060F90020EFE7099A232A07D0232327
:108C000032494CA017F098FC6FF01500E4E7BDF86E
:108C1000001053A0FEF75CFCBDF8000009F00AFA52
:108C200028B1284602F082F9040009D00DE0BDF811
:108C3000002026494EA017F07FFC6FF00100CBE723
:108C4000284602F021F9040035D0BDF8000020804C
:108C500065809DF80200207110220DF10301A01D16
:108C6000FDF782FA04F1170010220DF113010646F8
:108C7000FDF77AFAA01D611D04F080FD304604F175
:108C8000160104F07BFD2A46104942A017F054FC5F
:108C90001021A01D01F0C6FD02460C4949A017F0A5
:108CA0004BFC1021304601F0BDFD024607494AA0A9
:108CB00017F042FC9EE705494CA017F03DFC6FF011
:108CC0000B0089E7286E756C6C2900007CF80400A5
:108CD00025733A20617267765B305D2025732076BC
:108CE000616C2025730A000025733A204661696C87
:108CF000656420746F206465636F64652076616CC1
:108D000075652025732028657272202564290A0064
:108D100025733A2044656C6574696E6720417070F4
:108D20004B6579496E646578203078253033780A50
:108D30000000000025733A20556E657870656374F5
:108D400065642076616C7565206C656E677468205B
:108D500028256420213D20257A75290A000000007D
:108D60006E65745F69647820307825780A000000A9
:108D700025733A204661696C656420746F206669CA
:108D80006E64207375626E65742030782530337898
:108D90000A00000025733A204170704B6579496ED6
:108DA00064657820307825303378207265636F767B
:108DB000657265642066726F6D2073746F7261678F
:108DC000650A000025733A206170706B6579203068
:108DD0002025730A0000000025733A206170706B33
:108DE000657920312025730A0000000025733A20A0
:108DF0004E6F20737061636520666F722061206E14
:108E0000657720617070206B65790A002DE9FE435B
:108E1000804614460F460A20FEF7A8F9814602AAAA
:108E200001A9204610F0DCFF224D234E2888C00403
:108E30000AD53078C00707D0BDF80430BDF8082047
:108E40001E491FA017F064FB48F20301484605F0D5
:108E50004DFC0123BDF80810BDF804002268FFF79F
:108E6000B7FD04462888C00407D53078C00704D071
:108E7000224612491BA017F04BFB2146484617F02B
:108E8000EBFBBDF80820BDF80410484610F097FF32
:108E90000020034600904A463946404605F094FEBD
:108EA00018B1064914A017F033FB484619F08CFDA1
:108EB000BDE8FE8324810020268100209DE004007F
:108EC00025733A2041707049647820307825303419
:108ED00078204E6574496478203078253034780ADB
:108EE0000000000025733A2073746174757320309C
:108EF00078253032780A000025733A20556E616279
:108F00006C6520746F2073656E6420417070204B17
:108F100065792053746174757320726573706F6E18
:108F200073650A0010B500220E491046F4F778FC6C
:108F300009F0BAFE0BF0A0FD13F034FF00220A493D
:108F40000120F4F76DFC00210846F4F7ABFB07485D
:108F50001FF01CFF07214FF4027015F091F800205C
:108F600010BD0000312B0300BD8D040099A7020045
:108F7000F0B5164689B00F4604461D461A463146DE
:108F8000684622F043FE21462B466A46084622F0F8
:108F90002DFE69462B463246084622F027FE39460A
:108FA0002B466A46084622F021FE09B0F0BD70B596
:108FB0000E460546F8F774FC2C6804EA06002860A3
:108FC000F8F78EFC204670BD70B50E460546F8F7E2
:108FD00067FC2C6804EA06002860F8F781FC20464C
:108FE00070BD01F01F0301229A40490900EB810086
:108FF000D143FFF7DCBF70B50E460446F8F750FCCE
:10900000256845EA06002060F8F76AFC284670BD2E
:1090100070B50E460446F8F743FC256845EA06009D
:109020002060F8F75DFC284670BD01F01F030122A7
:109030009A40490900EB81001146FFF7DCBF01F0BF
:109040001F0301229A40490900EB81001146FFF7F6
:10905000DFBF10B501F01F0201249440490900EB65
:109060008100E143FFF7A3FF204000D0012010BDA5
:1090700010B501F01F0201249440490900EB810062
:10908000E143FFF7A1FF204000D0012010BD2DE9F2
:10909000F04101F01F0201259540490900EB8106CE
:1090A000EF43F8F7FDFB346804EA07003060F8F797
:1090B00017FC2C4202D00120BDE8F0810020FBE724
:1090C00010B501F01F0201249440490900EB810012
:1090D0002146FFF790FF204000D0012010BD70B561
:1090E0000C460546F8F7DCFB600955F82050F8F708
:1090F000F7FB04F01F00054105F0010070BD70B5DD
:109100000C460546F8F7CCFB600955F82050F8F7F7
:10911000E7FB04F01F00054105F0010070BD70B5CC
:109120000C460546F8F7BCFB600955F82050F8F7E7
:10913000D7FB04F01F00054105F0010070BD0000E1
:109140002DE9F04180460D4616461C4604F11607EF
:10915000B8B200F0F1F808B9BDE8F08145F4007547
:1091600021490968214A12888F5220480088801CB2
:109170001E4908801C480068098845521B48008821
:10918000801C1A4908801A48018817480068174A45
:109190001288815215480088801C144908801448A0
:1091A0000088401C124908800F4800680F4A128846
:1091B00081184046F5F79AFA0C48008810300B49A0
:1091C000088009490968094A1288881822463146E8
:1091D000FCF7CAFF0548008820440449088000F0D5
:1091E000E5F800BFB8E70000DC800020E080002048
:1091F000E48000202DE9F04105460E4617461C4646
:1092000004F108081FFA88F000F096F808B9BDE8E4
:10921000F08120490968204A128821F802801E48FE
:109220000088801C1C4908801A480068098846523A
:1092300019480088801C184908801848008815497A
:109240000968154A1288885213480088801C124900
:10925000088012480088401C104908800D480068AA
:109260000D49098845520C480088801C0A4908802D
:1092700008490968084A1288881822463946FCF7C6
:1092800073FF0548008820440349088000F08EF8E9
:1092900000BFBCE7DC800020E0800020E4800020EC
:1092A0002DE9F04385B005460C4616461F464FF0A3
:1092B0000008C146E0B28DF8000017480088401C45
:1092C00080B2ADF801000DF103012846F5F70EFA62
:1092D00013236A46022142F60300FFF78BFF0E4874
:1092E000B0F800803B46324621462846FFF728FF6B
:1092F00004F0300058B14FF485790020ADF800003B
:1093000002236A46494642F60210FFF773FF4046C1
:1093100005B0BDE8F0830000E48000201FB50446DE
:1093200069462046F5F7E2F910236A4602214FF418
:109330002050FFF75FFF1FBD10B50446A01C84B28C
:1093400006480088204406490988884201DC01203B
:1093500010BD04A0F4F71EFA0020F9E7E080002019
:10936000E28000206174745F64623A206F7574203B
:109370006F66206D656D6F727900000070B50546EF
:109380000C460648056006490C8000200549088007
:1093900001200549088000F009F870BDDC8000203C
:1093A000E2800020E0800020E480002000200649C8
:1093B0000968064A12888854002103480268034855
:1093C0000088401C11547047DC800020E0800020A1
:1093D0002DE9F04180460C4615461E46069F3B4649
:1093E00032462946204619F08BFC80B2BDE8F08158
:1093F0002DE9F84305460C4616461F46DDF8208049
:10940000062C09D13B46324621462846CDF800803D
:1094100014F080FCBDE8F8830020FBE72DE9F84359
:1094200081460C4615461E46DDE908783B46324625
:1094300029462046CDF8008019F082FCBDE8F8836B
:109440002DE9FC5F07460D4691469A46DDE90C84FE
:10945000032D00D044D124212748FCF79EFE002094
:10946000254908700846078145814FF0000B09F037
:10947000E1F80646214621A0FEF72AF836B922A0D7
:10948000FEF726F84FF0FF30BDE8FC9F242221466E
:1094900023A0FEF71DF804F124007C2801D201204E
:1094A00000E0002020B94FF4927127A0F4F77CF976
:1094B00006F128001049C8600846047406F1280B1C
:1094C0002422301DFCF750FE224641465846FCF748
:1094D0004BFE04F12400C1B2301DFDF7C9FD09E0C7
:1094E000062D07D153464A4629463846CDE9008421
:1094F00014F0D0FD0020C7E7D490002073697A658E
:1095000020307825780A00007761726E696E6720D6
:109510006275666665722066756C6C0A00000000F4
:109520006275666665722073697A65203078257881
:1095300020616E64206D6573685F6576656E74206A
:10954000307825780A0000006D6573685F73727665
:109550002E63000070B50A4A05460C461288900436
:1095600007D508480078C00703D0074907A016F0C0
:10957000D3FF21462846BDE870401DF0D9BF00004A
:1095800024810020268100200EE6040025733A2065
:109590000A00000010B584680B480088800407D5D5
:1095A0000A480078C00703D009490AA016F0B4FFA2
:1095B0006068002806D04169002903D02068BDE812
:1095C0001040084710BD00002481002026810020A3
:1095D000A6E6040025733A200A00000070B50D4B82
:1095E0000646144618880D46800407D50A480078B8
:1095F000C00703D009490AA016F08EFF224629466B
:10960000304600F011F829463046BDE870401DF0A4
:109610008FBF0000248100202681002030E6040056
:1096200025733A200A00000070B50546104617F071
:1096300097F804460B48008880040BD50A48007848
:10964000C00707D0012C0BD008A32246084909A067
:1096500016F062FF21462846BDE8704001F0BEBC0E
:1096600008A3F2E724810020268100207300000077
:109670001CE6040025733A202575207365636F6E20
:109680006425730A000000002DE9FE431F460B46C7
:1096900000F12101154604460822884618460A9E14
:1096A000FCF7ADFD28BB01A800903B464246294689
:1096B00004F1490001F0FEFC082201A93046FCF744
:1096C0009EFDC8B10D480078800712D50C4800787F
:1096D00040070ED5082101A801F0A4F8044608218E
:1096E000304601F09FF802462346064906A016F0D0
:1096F00021FF0020BDE8FE830120FBE7248100203C
:109700002681002069F7040025733A2041757468AA
:10971000656E7469636174696F6E2056616C7565FE
:1097200020257320213D2025730A000010B50C462A
:1097300008490978C90608D507490978C90704D036
:109740000246064906A016F0DFFE10F0FEFA206081
:1097500010BD0000248100202681002014DB0400BD
:1097600025733A206572722025640A00FEB507460B
:1097700014460D460720FDF7F9FC064619480088F7
:10978000C00412D518480078C0070ED0E1882068C0
:1097900001F048F8E188AA880092CDE901106B88B1
:1097A0002A88124912A016F0B3FE48F20B01304687
:1097B00004F09CFF01F0C0FD0146304616F04CFF5E
:1097C00000200346009032462946384605F0FCF951
:1097D00018B1064915A016F09BFE3046BDE8FE40C4
:1097E00019F0F2B82481002026810020D8E004007E
:1097F00025733A206E65745F69647820307825306F
:109800003478206170705F69647820307825303456
:10981000782073726320307825303478206C656E40
:109820002025753A2025730A0000000025733A2090
:10983000556E61626C6520746F2073656E642043A1
:109840006F6E66696720426561636F6E2053746155
:1098500074757320726573706F6E73650A00000013
:1098600070B508F07FFE214C08B1A16835E02048B2
:109870000078C00607D51F480078C00703D01E49EE
:109880001EA016F041FE03F05FFE58B31DA0FDF7C9
:109890001FFE6078204D90F00100607013D14FF6EC
:1098A000FF720346C0EBC001C1EB801105EB8101E3
:1098B00001F578718E8B964202D04E790E714B7104
:1098C000401C0228EED31DF055F901F035FD0128AA
:1098D00002D06868800108D5E168BDE870400F4893
:1098E00010F0F5B922F042FBBFE770BD40850020C3
:1098F000248100202681002067DB040025733A20A4
:109900000A00000073656375726520626561636FAC
:109910006E2073656E740A0028870020A8A80020B6
:1099200070B505460E461720FDF73BFC04460121A5
:1099300016F0A8FE2146304601F04CFC22460121DB
:1099400028461BF0DBFE0546204619F03DF8284668
:1099500070BD00002DE9FE4F824615460E460720D9
:10996000FDF704FC344F8146DAF818403888DFF8F8
:10997000CC80C00412D598F80000C0070ED0E9884A
:10998000286800F04FFFE988B2880092CDE9011005
:10999000738832882A492BA016F0BAFD9CB128683A
:1099A0000278002A1BD0012A19D03888C00440D57B
:1099B00098F8000040073CD503B02149BDE8F04FBE
:1099C0002FA016F0A5BD3888C00415D598F8000062
:1099D000400711D51A4934A016F09AFD0CE0E07941
:1099E000824209D0E27108F001FAE07910B101F089
:1099F0007DFC01E001F06EFC48F20B01484604F0EA
:109A000075FE01F099FC0146484616F025FE00203F
:109A1000034600904A463146504605F0D5F818B145
:109A200007492DA016F074FD4846BDE8FE4F18F01A
:109A3000CBBFBDE8FE8F00002481002026810020DE
:109A4000E3E0040025733A206E65745F6964782052
:109A5000307825303478206170705F696478203008
:109A6000782530347820737263203078253034784C
:109A7000206C656E2025753A2025730A00000000D1
:109A800025733A20496E76616C696420436F6E6677
:109A9000696720426561636F6E2076616C75652031
:109AA0003078253032780A0025733A204E6F2043F3
:109AB0006F6E66696775726174696F6E2053657247
:109AC00076657220636F6E74657874206176616963
:109AD0006C61626C650A000025733A20556E616204
:109AE0006C6520746F2073656E6420436F6E6669C9
:109AF0006720426561636F6E2053746174757320D3
:109B0000726573706F6E73650A0000002DE9F04195
:109B100005461A48884616460088800509D5184823
:109B20000078C00705D013462A46164916A016F03D
:109B3000F7FC19F0DBFEFEF7B3FB04001BD0194F56
:109B4000D7F82C1116F073FD0021204616F084FD85
:109B5000032000EB8500C1B2204616F07DFD3246A1
:109B60004146204618F0B0FEC7F84C411EF01CFDDF
:109B70000020BDE8F0816FF06800FAE72481002042
:109B8000268100209FE8040025733A206F70203062
:109B9000782530327820646174615F6C656E2025B1
:109BA000750A000090AE00202DE9FC47474E814623
:109BB000474D96F83400474F474C0B284DD006F0E0
:109BC000FDFE6FF06808002853D001F083FB0020F1
:109BD0001FF0B2F82888800506D53878C00703D072
:109BE0003E493FA016F09CFC02213848FFF777FA67
:109BF00058B12888800506D53878C00703D0374982
:109C00003CA016F08DFC1CF07FFA19F06FFEFEF7F9
:109C100047FB050037D00EF00BFDD0360146F0654E
:109C2000284616F004FD0021284616F015FD0321F4
:109C3000284616F011FD10224946284618F044FE29
:109C4000F5671EF0B1FC0B2006F89C0C207800F1A3
:109C500001002070E078C8B136E02888800533D54F
:109C60003878C00730D022781C4928A016F058FC5C
:109C70002AE02888800506D53878C00703D0174920
:109C80002DA016F04DFC4046BDE8FC87002012498F
:109C90000090891D019001F11C0000F0ADFB08F05F
:109CA00011F8A0798DF80000D4F82200CDF8010059
:109CB000E08CADF805000722694624200FF008F873
:109CC0000120E07008F000F80020DDE790AE0020F1
:109CD0002481002026810020A4850020AFE8040014
:109CE00025733A206C696E6B2065737461622E2E49
:109CF0002E200A0025733A20636C72206C696E6B0B
:109D0000206163746976650A0000000025733A20BB
:109D10006475706C6963617465206C696E6B206F2B
:109D200070656E206D6573736167652C2073656E59
:109D3000742025640A00000025733A206E6F20729B
:109D400065736F7572636520666F72206E6577202C
:109D50006E6F64650A0A0000F0B50446007889B0A9
:109D60000D46002798B10120274E2860B08898B191
:109D70000A2231462046FCF742FAE8B3287800F080
:109D800067FA287800F07CF930B1AFF30080022048
:109D90001D4E28600A3EE9E701A81C21FCF7FDF9E9
:109DA000019840F010000190207828B1019840F00F
:109DB000010040F002000190A088039060880290AA
:109DC000A07900B907208DF81000207A0199104B76
:109DD00060F3C3010D480191002200788DF8110055
:109DE00000200090287801A900F094F8070007D11E
:109DF00020683060606800E002E070602089308197
:109E000009B03846F0BD00008AAB0020A0850020D4
:109E1000159E020070B50446264827490078097847
:109E20000840C00704D02278244925A016F06AFB18
:109E30002078072820D0132835D1241D002125485B
:109E400018F0E3FD050030D0E27B216918F03CFDFD
:109E500020B11A4920A016F055FB21E02548616881
:109E60002B460160218981802349E0780870A2781F
:109E700094F90A10E01C11E0241D0021154818F087
:109E8000C4FD050011D06278E16818F01DFD0028BE
:109E9000DFD1227894F909102B46A01C07F096FE1A
:109EA000284618F091FD002070BD04490AA016F064
:109EB00029FBF8E7248100202681002021DA040014
:109EC00025733A206576656E742D3E747970652031
:109ED00025640A00F8A2002025733A20436F756CB0
:109EE00064206E6F7420617070656E6420646174AC
:109EF000610A0000C0850020A98500201CB5002053
:109F0000009001900622694622200EF0E1FE00201A
:109F10001CBD000070B50C4600218CB00D460A91A6
:109F2000099100910191032802D316200CB070BD55
:109F3000434A444902281288097803D001280DD0E9
:109F4000AFF30080D00705D0880703D53E493FA076
:109F500016F0D8FA0626694641480AE0D00705D02F
:109F6000880703D538493FA016F0CCFA0726694682
:109F70004248F4F7CAFB2068C1064FEAC07106D414
:109F800009B1012509E0810707D5022505E001B1E6
:109F90000125810701D545F00205410701D545F0AE
:109FA0000405010701D545F00805C00601D545F0B7
:109FB00010051C2102A8FCF7F0F88DF808608DF858
:109FC000095060680390A0680490207B8DF814000D
:109FD000607B8DF81500A07B8DF81600607D8DF8F4
:109FE0001D00207E8DF81E00A07D8DF81F00E07DF5
:109FF0008DF82100607E8DF8220020781C22C0F3AD
:10A00000C0108DF82300D4F80F00CDF81700B4F875
:10A010001300ADF81B0002A925200EF059FE8DF8A3
:10A0200024600098CDF82500BDF80400ADF82900A3
:10A03000072209A927200EF04BFE002076E700003A
:10A040002481002026810020A4DA040025733A2010
:10A0500070625F6164762068616E646C650A0A00F4
:10A060004CA9002025733A2070625F70726F787976
:10A070002068616E646C650A0A0000003CA900203B
:10A0800000207047FEB50446134815460E4600787A
:10A09000C0070AD011480078800706D501230222A4
:10A0A0000F4910A0009416F02DFA022C04D0012CB8
:10A0B00004D04FF0FF30FEBD062000E007208DF8F1
:10A0C00004008DF80550082201A9212002960EF007
:10A0D000FFFD0020FEBD000024810020268100201D
:10A0E000BEDA040025733A2061647620696E73201D
:10A0F000307825782067617474203078257820695D
:10A100006E7320307825780A0A000000FEB50446F8
:10A11000134815460E460078C0070AD0114800784B
:10A12000800706D5012302220F4910A0009416F0E3
:10A13000E9F9022C04D0012C04D04FF0FF30FEBD11
:10A14000062000E007208DF804008DF80550082255
:10A1500001A9282002960EF0BBFD0020FEBD0000E4
:10A160002481002026810020F1DA040025733A20A2
:10A1700061647620696E7320307825782067617479
:10A1800074203078257820696E7320307825780A1D
:10A190000A0000001FB5204CADF802108DF8042015
:10A1A0001B4A1C4902281288097805D0012811D0C1
:10A1B0004FF0FF3004B010BDD00705D0880703D59D
:10A1C000164917A016F09EF906208DF80000D4E974
:10A1D00005010CE0D00705D0880703D50F4915A06D
:10A1E00016F090F907208DF80000D4E90701CDE9B9
:10A1F00002010098CDF80A00BDF80400ADF80E0089
:10A20000082202A923200EF063FD0020D2E70000FF
:10A210002481002026810020B0D90400DBDA04006C
:10A2200025733A2061647620656E616C626C650A04
:10A230000A00000025733A2070625F676174742021
:10A2400061647620656E61626C650A0A0000000038
:10A250001FB50021ADF802108DF804101149022835
:10A2600005D0012809D04FF0FF3004B010BD062002
:10A270008DF80000D1E9090104E007208DF8000005
:10A28000D1E90B01CDE902010098CDF80A00BDF833
:10A290000400ADF80E00082202A923200EF018FDDC
:10A2A0000020E2E7B0D90400F0B589B00021DDE973
:10A2B00010320E9C03B101210AB141F00401A1B397
:10A2C00001260327374D052932D0012957D08DF8B3
:10A2D00000701179643501F001018DF801101188C9
:10A2E000ADF802105188ADF804102ECD03AE2EC685
:10A2F0008DF80C0000980490BDF804008DF80D4016
:10A30000ADF81400102203A926200EF0E1FC254927
:10A3100006228039D1E90301CDE9070107A92220EE
:10A320000EF0D6FC002009B0F0BDFFE71620FAE7DA
:10A330008DF8006019790DF1100C01F001018DF814
:10A3400001101988ADF802105988ADF804108DF885
:10A350000670117901F001018DF807101188ADF830
:10A3600008105188ADF80A10696C03918DF80C0043
:10A370008DF80D409DE80700ACE80700C2E78DF8B6
:10A3800000601979543501F001018DF80110198828
:10A39000ADF802105988ADF804102ECD03AF2EC7CA
:10A3A000A6E7000030DA0400024AC2E900010020FA
:10A3B00070470000388500200020704710B5DCF79A
:10A3C0002FF8002010BD10B50346488841F6280438
:10A3D000A04203D101201080002010BD488841F622
:10A3E0002704A04203D1012010800020F5E74FF0A0
:10A3F000FF30F2E700207047034AD3690360138CF3
:10A400008380507908707047A485002010B511F042
:10A41000B7FB21F01DF811F0FDFA034903480FF0D6
:10A4200036FC002010BD000089A503008C900020A0
:10A430002DE9F04104460078274E284F284D20B1E1
:10A44000012823D00E2835D043E020891AF09CFE45
:10A450006878012802D1208906F0DEFB0120A8706F
:10A4600003F072F878B1022068701E480FF004FC07
:10A47000308840052DD5387880072AD51A491BA089
:10A4800016F050F825E001206870F1E7208B616834
:10A490001AF0E2FE0020A8703088400506D5387812
:10A4A000800703D5104916A016F03CF801200FF0E4
:10A4B000DBFD0EE01749E0888A88904203D1A0882E
:10A4C0001AF0B8FC05E04989884202D1A08819F049
:10A4D000C9F90020BDE8F0812481002026810020F8
:10A4E000A48600208CC70020C5EE040025733A2006
:10A4F00070726F787920636F6E6E0A0A0000000038
:10A5000025733A2070726F787920646973636F6E77
:10A510006E0A0A006CB0002017F086BE0161704719
:10A5200038B504464FF0FF30009000231A4603214F
:10A530002068F8F711FD38BD38B504464FF0FF30FC
:10A54000009000231A4603212068F8F705FD38BD66
:10A5500001468868704700230360C0E90112704714
:10A5600001464FF47A7048434FF47A72B0FBF2F030
:10A5700070470000014821F0ADB8000031A602008C
:10A5800070B50D46A0B0164601461C46202268460E
:10A590001FF0DAFD2022294608A81FF0D5FD202251
:10A5A000314618A81FF0D0FD0B49684621F02DF95F
:10A5B00000280EDB084B10AA18A9684621F090F875
:10A5C00038B1202210A920461FF0BEFD002020B087
:10A5D00070BD1120FBE70000ACFC040030B591B069
:10A5E0000D460446114A2946684621F025F80128FF
:10A5F00002D0112011B030BD0C492022B0312846C4
:10A60000FBF7FDFD0028EDD02022694620461FF013
:10A610009BFD202208A904F120001FF095FD2021B8
:10A6200028461FF09DFD0020E4E70000ACFC04007C
:10A630002DE9F041064600240D46880702D000208F
:10A64000BDE8F08141F2342711E000BFFBF77AFD4D
:10A65000C31906EB840200204FEAC00C23FA0CF168
:10A660001154401CC0B20428F6D3641CE4B2B4EB0D
:10A67000950FEBD302A0FCF72BFF0120E0E70000D1
:10A6800070726E672070726F6475630A000000005C
:10A69000811E0A291AD2DFE801F005061907080C05
:10A6A0001919121300BF00BF00BF0A490A4A5164BA
:10A6B0000DE00849084A5164084A516207E000BFAA
:10A6C0000749064A5162044A516400E000BF00BFD6
:10A6D00070470000E0960020108200205882002081
:10A6E0001097002010B5044600200349087003A00D
:10A6F000FCF7EEFE10BD00006980002073746F70DF
:10A7000020627265617468206D6F64650A000000E4
:10A7100010B50446FCF7EAFC38B14FF4FA6105487D
:10A720000FF0D5FA15F014FD02E003A0FCF7D0FEFF
:10A7300010BD000078900020756E62696E64206D17
:10A740006F64652066696E6973680A00F0B5A5B02C
:10A750000E4607460F4D20211CA8FBF71EFD6C4638
:10A76000204620F05BF8002812D0394620462A689F
:10A7700020F080F800280BD021461CA81FF0E8FF2D
:10A78000002805D010221CA93046FBF7EDFC012063
:10A7900025B0F0BD8485002070B505460E4605B98C
:10A7A00070BD00240AE000BF0648FDF70BFF01283A
:10A7B000FAD0295D0348FCF761FD641CB442F2DB6A
:10A7C00000BFEDE70000024010B588B00C466B46B4
:10A7D000064A00F12001FFF7D3FE18B14FF0FF3019
:10A7E00008B010BD6846A0470020F9E7D4AB0020B0
:10A7F0001FB501AB07C301A81EF03CFB084C4FF48A
:10A800007A70694617F050FE2046009917F0FAFD5D
:10A810000DF076FD002800D0002004B010BD00002F
:10A820001087002030B5144C0346144DE27802EB3B
:10A83000C20000EBC210521C02F003022844E27076
:10A84000442901D2002210E0442100220C4C9D5CDE
:10A8500004EB15152D7800F812509D5C05F00F05DE
:10A86000645D00EB4205521C6C708A42EED30021FD
:10A8700000F8121030BD0000888500205CA900207F
:10A880003EE504002DE9FF470027404D16468DF8B0
:10A890000070894602460078A978DDF830809A4633
:10A8A00001433FD0022801D0D0B301E06878C0B3A3
:10A8B000012137A00191FCF70BFEAEB101980228EF
:10A8C00039D0394A6B46314648461EF002FA002814
:10A8D00058D10198022831D03349C0B29DF80020E8
:10A8E000FFF714FC04004DD1B8F1000F2FD00198F0
:10A8F0008DF80070022824D02B4A6B464146504602
:10A900001EF0E7F900283DD1019802281CD0264905
:10A91000C0B29DF80020FFF7B5FB040031D116E06E
:10A9200007E0FFE701A91046FFF716FA040029D156
:10A93000C3E70221BDE71C4AFB32C3E71A49FB31DA
:10A94000CBE7194AFB32D8E71749FB31E0E701981A
:10A950000126012802D002280AD012E0687880B9C6
:10A96000002201201146FFF715FC04466E7008E036
:10A97000A87830B9002202201146FFF70BFC0446EC
:10A98000AE70204604B0BDE8F08700008885002046
:10A9900074686520696E7374616E636520697320E5
:10A9A000307825780A000000F4AB002070B5064D21
:10A9B000002420B10120FFF74BFC6C7070BD022019
:10A9C000FFF746FCAC7070BD8885002008B50B46CB
:10A9D000009202460249034800F006F808BD000054
:10A9E00081820200F8A200202DE9F0410D461E46AA
:10A9F0001746042118F009F8040015D0A068416832
:10AA0000C8680968201AB0FBF1F0A84705461C2168
:10AA1000A061FBF7C2FB287A67F3010028726E720F
:10AA20000120AC61E8602046BDE8F08108B50FA0C8
:10AA3000124B00903B22322103F6C43018F0A0F8EC
:10AA400038B90F4932233B22A1F10C0017F0F5FF72
:10AA500008B1AFF30080002204212020F7F7BEFAEE
:10AA60000849086014201039886008BD6164765F69
:10AA70006275665F706F6F6C000000004097002089
:10AA800004A300202C8500202DE9F8431A4D1B4E0D
:10AA90000F4604462878317890460840C0070DD00C
:10AAA000E1882068FFF7BEFE0090A069E3881449A2
:10AAB000007A00F0030213A015F024FDA0690760DE
:10AAC000A169C1F80480A069017A41F00401017212
:10AAD000204615F08EFD0146114815F07BFD2878C3
:10AAE00031780840C00705D0BDE8F84304490DA0FF
:10AAF00015F008BDBDE8F8832481002026810020E0
:10AB000000DA040025733A207479706520307825C6
:10AB1000303278206C656E2025753A2025730A0046
:10AB20002C85002025733A206164765F73656E641E
:10AB300020746F2071756575650A0A00054806491D
:10AB4000007809780840C00703D0044904A015F034
:10AB5000D9BC70472481002026810020EDD9040053
:10AB600025733A200A000000F0B5C7B00C46154620
:10AB700001461F461AAA68461FF03CFD6FF0040606
:10AB800090B107E0D4E9001268461FF06DFD58B19E
:10AB90006D1E0834002DF5D1694638461FF0D6FCED
:10ABA00010B1002047B0F0BD3046FBE71CB5CDE941
:10ABB000001201226946FFF7D7FF1CBD2DE9FF4FA8
:10ABC00089B0304DDDE91687DDE91ABA28882E4EA6
:10ABD0001C469146C0050CD53078C00709D0E188E5
:10ABE0002068FFF71FFE0346E288284928A015F0D9
:10ABF00091FC199ACDE9002BCDF808A04A4604A88B
:10AC0000189B0A9908F058FE2888C0051AD5307894
:10AC1000C00717D010210998FFF704FE02461B4910
:10AC200022A015F077FC2888C0050BD53078C00726
:10AC300008D00D2104A8FFF7F5FD024613491FA017
:10AC400015F068FCB9F1000F01D0082100E00421E3
:10AC5000D8F800000FB1102200E00022CDE9020177
:10AC6000CDE90072E38804A92268099800F010FC7D
:10AC7000050003D1A179404615F0CCFC0DB0284663
:10AC8000BDE8F08F2481002026810020D6E4040056
:10AC900025733A20456E634461746120286C656EAB
:10ACA000202575292025730A0000000025733A200D
:10ACB0004170704B65792025730A000025733A2096
:10ACC0004E6F6E6365202025730A00002DE9FF4F4B
:10ACD00089B0474EDDE9188B3088DDF868A0DDF8D3
:10ACE0005890444C1D461746C00534D52078C007FF
:10ACF00031D010210998FFF795FD02463E493FA04B
:10AD000015F008FC3088C00525D52078C00722D072
:10AD1000CDF8008038493DA0179B0A9A15F0FAFB40
:10AD20003088C00517D52078C00714D053465A463E
:10AD3000314940A015F0EEFB3088C0050BD52078D6
:10AD4000C00708D0E9882868FFF76CFD02462A4949
:10AD500041A015F0DFFBCDE9008BCDF808A03A4605
:10AD600004A8179B0A9908F0A7FD3088B046C005D3
:10AD70000BD52078C00708D00D2104A8FFF752FD9D
:10AD800002461D4938A015F0C5FB0FB1082100E0AF
:10AD900004212A68B9F1000F01D0102300E000233C
:10ADA0000391CDF80090CDE90132EB8804A9099810
:10ADB00000F0AAFB060016D10FB1082100E0042123
:10ADC000284615F027FCB8F80000C0050BD5207800
:10ADD000C00708D0E9882868FFF724FD0246064925
:10ADE00025A015F097FB0DB03046BDE8F08F0000B0
:10ADF0002481002026810020C2E4040025733A202B
:10AE00004170704B65792025730A000025733A2044
:10AE10006465765F6B6579202575207372632030D9
:10AE20007825303478206473742030782530347875
:10AE30000A00000025733A207365715F6E756D20FE
:10AE40003078253038782069765F696E64657820BF
:10AE50003078253038780A0025733A20436C6561D4
:10AE6000723A2025730A000025733A204E6F6E63F4
:10AE700065202025730A000025733A20456E637211
:10AE80003A2025730A00000010B5094A00214FF648
:10AE9000FF7300BF01EB810002EBC00000F55070B2
:10AEA00004889C4203D0491C0429F3D3002010BD20
:10AEB0002887002038B504464088ADF800001048C7
:10AEC0008DF802100D460088C00409D50D480078A1
:10AED000C00705D062882B460B490CA015F018FB63
:10AEE0006946114803F068FB15B1204600F0D6FC16
:10AEF0004FF6FF7020802221601DFBF74EF938BD10
:10AF00002481002026810020ACE0040025733A2033
:10AF1000417070496478203078253033782073741C
:10AF20006F72652025750A004178020030B50B4B21
:10AF3000024600214FF6FF7401EB810003EBC000D5
:10AF400000F550700588A54202D04588954203D08F
:10AF5000491C0429F0D3002030BD000028870020C0
:10AF60002DE9F04706460027089DA1F57F401C46C5
:10AF70009146FE3807D06FF01508401C0FD11046DF
:10AF800000F0A4FE18B12F701348206021E048465D
:10AF900005F0E0FC60B1001D20602F7019E03EB1AB
:10AFA0000846FFF7C3FF30B1F17F022906D00CE05D
:10AFB0004046BDE8F0876FF00100FAE7017921B162
:10AFC00000F117012160807D02E0811D2160407940
:10AFD00028700020EDE70000008A00202DE9F041F4
:10AFE000224F0646DFF8888038880D46800407D552
:10AFF00098F80000C00703D01E491FA015F08CFA76
:10B000008EB1B4690DB3606818B1016909B13046F9
:10B0100088474FF47A7005FB00F104F10800BDE8A1
:10B02000F0410EF054BE1A4804680CB12668E9E7F6
:10B030003888800417D598F80000400713D5BDE87C
:10B04000F0410C4913A015F067BA04F108000EF0A6
:10B0500013FE6068002806D04169002903D03046FD
:10B06000BDE8F0410847BDE8F081000024810020E0
:10B0700026810020CCE6040025733A2062745F6DBF
:10B080006573685F617474656E74696F6E0A000041
:10B090009085002025733A204E6F204865616C74BE
:10B0A000682053657276657220617661696C6162B1
:10B0B0006C650A002DE9F0472F4E88B08246308833
:10B0C000DDF840802D4C994615460F46C00525D524
:10B0D0002078C00722D010215046FFF7A3FB02467C
:10B0E000274928A015F016FA3088C00516D5207813
:10B0F000C00713D008212846FFF794FB02462049D9
:10B1000025A015F007FA3088C00507D52078C007BC
:10B1100004D04A461A4924A015F0FCF98DF81070A5
:10B120002868CDF811006868CDF8150049460DF182
:10B1300019001AF08FFD3088C0050BD52078C007A4
:10B1400008D00D2104A8FFF76DFB02460C491CA096
:10B1500015F0E0F96B460D2204A95046FFF726FDD5
:10B16000002805D1009AC8F80020019AC8F80420E8
:10B1700008B0BDE8F087000024810020268100206F
:10B1800020E5040025733A20426561636F6E4B65CC
:10B19000792025730A00000025733A204E65744912
:10B1A000642025730A00000025733A20495620497F
:10B1B0006E646578203078253038780A0000000009
:10B1C00025733A20426561636F6E4D736720257366
:10B1D0000A0000002DE9F84F0E46044604F05CFA20
:10B1E00080460121304615F037FAA07F10B104F1F6
:10B1F000890501E004F130054146304615F02CFA8E
:10B2000005F1210108228946304617F05DFB1A4DF1
:10B210003046296815F00BFA04F1280108228A4605
:10B22000304617F051FB154E3078C00621D5144F2B
:10B230003878C0071DD008214846FFF7F3FA009080
:10B24000A28B43460F4910A015F05EF93078C00676
:10B250000FD53878C0070CD008215046FFF7E2FA26
:10B260002A6801B00346BDE8F04F064911A015F069
:10B270004BB9BDE8F88F000028870020248100200A
:10B280002681002024DB040025733A206E65745F5C
:10B290006964782030782530347820666C61677373
:10B2A00020307825303278204E657449442025734B
:10B2B0000A00000025733A20495620496E646578DB
:10B2C0002030782530387820417574682025730A3D
:10B2D0000000000003484068800102D402480EF0DC
:10B2E000CBBC704728870020A8A800202DE9F0419A
:10B2F00002F02AF9B0B100240D4E4FF6FF77254633
:10B30000C4EBC400C0EB841006EB800000F578703D
:10B31000818BB94203D00571457103F085FC641C33
:10B32000022CEDD3BDE8F04102480EF031BD000023
:10B3300028870020A8A8002002488068002800D0A4
:10B34000C079704768850020014902480EF09FBC13
:10B3500061980200A8A800200A4910B54A6860F365
:10B3600059624A6020B1BDE8104007480EF010BD98
:10B37000FFF7E2FF002804D1BDE8104002480EF0BC
:10B380007BBC10BD28870020A8A8002070B5274DE1
:10B390000446274E2878C0060CD53078C00709D05F
:10B3A000E1882068FFF73EFA0346E288214922A09F
:10B3B00015F0AAF8E08890B1204615F0D1F9020006
:10B3C00013D0012A2BD02878C0062DD5307840071D
:10B3D0002AD5BDE8704017491CA015F095B8BDE806
:10B3E0007040144921A015F08FB826480078012834
:10B3F0001AD1204620F02EFD002815D12248FEF754
:10B40000D3FB224C207800280ED106F05BFC12F012
:10B410005BFD01202070BDE8704006F055BC204661
:10B42000BDE870401BF03ABA70BD000024810020D6
:10B430002681002086DB040025733A2025752062D2
:10B44000797465733A2025730A00000025733A2049
:10B45000556E6B6E6F776E20626561636F6E2074E0
:10B46000797065203078253032780A0025733A20CB
:10B47000546F6F2073686F727420626561636F6EC2
:10B480000A000000A685002098A80020A7850020BB
:10B490002DE9F04F89B09246DDE912B78946804622
:10B4A0001C46FF25202212496846159EFAF75CFECD
:10B4B0008DF8016003A8ADF80240ADF80470A0E873
:10B4C000000F1498079068461DF0F0FC294609A06B
:10B4D000FBF7FEFF4FF47A710A480EF00DFC0CF0FA
:10B4E00025FF002801D06FF0490009B0BDE8F08FBA
:10B4F00044E4040073656D2074616B652030782529
:10B50000780A00007C8500202DE9F04F89B0814643
:10B5100012A81746B0E8600C88461C462022104945
:10B520006846FAF721FE8DF801B0ADF80240ADF89B
:10B530000460CDF81CA0CDE90575CDE903986846F7
:10B540001DF0B4FC4FF47A7106480EF0D5FB0CF0F8
:10B55000EDFE002801D06FF0150009B0BDE8F08FB6
:10B5600064E404007C8500202DE9F84F0546DDE900
:10B570000AA71C46164689461820FBF7EEFD8046B2
:10B5800025484FF6FD7105804180A0F80490FF2109
:10B59000417214211438FAF700FE1F4848F20301E3
:10B5A000143807608680C48007F018FD05002CD190
:10B5B0000021404603F09AF804F00F0046EA0031FB
:10B5C0004546404615F03CF8C4F30711284615F0EF
:10B5D00043F810225146404617F076F90F4842468C
:10B5E000806801688C81002100910B4600680A493F
:10B5F00003F0EAFA050005D00246094909A014F053
:10B6000085FF00E00FB907F0FDFC404617F0DCF9BC
:10B610002846BDE8F88F0000E0A800205C850020E7
:10B62000D1DC040025733A206D6F64656C5F73652F
:10B630006E642829206661696C65642028657272D1
:10B64000202564290A00000070B5044613480D4601
:10B650000078000708D512480078C00704D00A46D1
:10B66000104911A014F052FF6FF0040665B1A069F3
:10B6700068B11149886010C04FF6FE71A1810021A8
:10B6800016F0B2FE002070BD06490CA001E005498D
:10B6900019A014F03BFF304670BD0000248100204B
:10B6A0002681002075DD040025733A207072696DD3
:10B6B0006172792025750A005C85002025733A2087
:10B6C000436F6E66696775726174696F6E20436C53
:10B6D00069656E74206F6E6C7920616C6C6F776534
:10B6E0006420696E207072696D61727920656C6585
:10B6F0006D656E740A00000025733A204E6F20437A
:10B700006F6E66696775726174696F6E20436C69EC
:10B71000656E7420636F6E746578742070726F76D6
:10B72000696465640A000000014880687047000091
:10B7300068850020FEB5DDE908540A9EA4F57F4720
:10B74000FF3F01D1781FFEBDCDE90054029612F0F3
:10B7500097FDFEBD70B516488468002C27D00020E8
:10B7600006F0F8FA002020876087C4E90C00114D2C
:10B7700004464FF6FF7600BFC4EBC400C0EB841054
:10B7800005EB800000F57870818BB14202D0012179
:10B7900006F0B8FB641C022CEED30021064802F030
:10B7A0000BFFBDE870403C210448FAF7F6BC70BDC1
:10B7B0006885002028870020DDEF030000A9002015
:10B7C00070B5846905466FF015063CB360790228B0
:10B7D00027D8E079012824D8A07A7F2821D82046CC
:10B7E00007F01EFF4FF6FE70A88104F10C0010490F
:10B7F00006460EF04CFA214630460EF03BFA4FF664
:10B80000FF70208500212560C4E90C1109480A4910
:10B8100084600A480EF03BFA002070BD084909A078
:10B8200001E0074913A014F073FE304670BD00001C
:10B8300095890300688500200D200400ECA80020F5
:10B84000D3E3040025733A204E6F20436F6E666980
:10B850006775726174696F6E2053657276657220C8
:10B86000636F6E746578742070726F766964656456
:10B870000A00000025733A20496E76616C696420E5
:10B8800076616C75657320696E20636F6E6669679B
:10B8900075726174696F6E0A0000000038B5044665
:10B8A0004288164916A014F047FE61886A460120B6
:10B8B0000EF0ACFA1849611AA1F55071282291FBDB
:10B8C000F2F1CAB208B101880AE0009880B101889B
:10B8D00041F480510180638863F30B0141F400510E
:10B8E00041F480410180827001201AF0B1FD38BD21
:10B8F000C9B2608807F0E6F938BD0000A1FA04007B
:10B9000025733A204170704B6579496E64657820E3
:10B910003078253033780A002887002010B50220BF
:10B920001AF096FD03201AF093FDBDE810400620A2
:10B930001AF08EBD38B5044602880F490FA014F0E6
:10B94000FBFD2088694616F059FC012120B1817069
:10B9500008201AF07DFD38BD009810B122880280C1
:10B96000F5E7208807F096FA002020801021201D9E
:10B97000FAF713FC38BD0000CAFA040025733A2018
:10B980004E6F6465203078253034780A000000005E
:10B9900000201AF05DBD000038B50446828B1649C0
:10B9A00016A014F0C9FDA18B6A4600200EF02EFAF5
:10B9B0001849611AA1F57871E42291FBF2F1CAB23B
:10B9C00008B101880AE0009880B1018841F48051F3
:10B9D0000180A38B63F30B0121F4005141F48041FA
:10B9E0000180827001201AF033FD38BDC9B2A08BEE
:10B9F00007F01CFA38BD00008CFA040025733A20C9
:10BA00004E65744B6579496E6465782030782530D1
:10BA100033780A00288700200148406870470000FA
:10BA2000148500202DE9F843194E1A4F0446708002
:10BA30003878DFF8648000070AD598F80000C0075E
:10BA400006D0706822461549836815A014F058FD89
:10BA5000002516E0C068224600EB05100480397806
:10BA600004F10104A4B209070AD598F80010C90727
:10BA700006D0417900910379084911A014F040FDE6
:10BA80006D1C70688168A942E4D8BDE8F8830000A5
:10BA900014850020248100202681002023D9040061
:10BAA00025733A2061646472203078253034782020
:10BAB000656C656D5F636F756E7420257A750A001D
:10BAC00025733A2061646472203078253034782000
:10BAD0006D6F645F636F756E7420257520766E647C
