:020000040000FA
:10400000187F00205D4200007B420000CD40000090
:104010007F42000081420000834200000000000057
:10402000000000000000000000000000E940000067
:1040300087420000000000002D410000C14E00003A
:10404000A5D30100C5D3010069D501008D42000050
:1040500075D5010081D501008DD501008D4200008C
:104060008D42000099D501008D4200008D42000074
:104070008D4200008D420000A5D50100B1D50100A0
:10408000BDD50100C9D50100D5D501008D42000084
:104090008D4200008D4200008D4200008D420000E4
:1040A0008D4200008D420000E1D501008D420000EC
:1040B0008D42000000600200DFF80CD000F0F4FB3D
:1040C000004800473DC80100187F00201EF0040F83
:1040D0000CBFEFF30880EFF3098081694DF6395288
:1040E000C0F2010210470000224B19680868B0E8CE
:1040F000F00F80F30988BFF36F8F4FF0000080F35B
:1041000011884EF00D0E7047000000000648006850
:10411000006880F3088862B661B6BFF34F8FBFF3C3
:104120006F8F00DF00BF00BF08ED00E0EFF30980F4
:10413000BFF36F8F0F4B1A6820E9F00F106008B5BE
:104140004FF0200080F31188BFF34F8FBFF36F8FC4
:104150001DF024FE4FF0000080F31188BDE80840F8
:1041600019680868B0E8F00F80F30988BFF36F8F13
:10417000704700BF24000020EFF305807047000067
:104180002DE9FF5FEFF31080EFF31181EFF312825F
:10419000EFF313830FB447F6BC00C2F200001A49D4
:1041A0000160EFF30881EFF30982EFF31483EFF37B
:1041B000038441608260C36004611448016841F077
:1041C00001010160BFF34F8F30BFBFF36F8F104805
:1041D00041688268C368046981F3088882F30988AA
:1041E00083F3148884F30388BFF34F8FBFF36F8F7B
:1041F0000FBC80F3108881F3118882F3128883F357
:104200001388BDE8FF5F7047CB41000004030940FD
:10421000BC78002040BA704740BA704740BA704737
:1042200040BA704740BA704740BA704740BA7047CA
:1042300040BA704740BA7047C0BA7047C0BA7047BA
:10424000C0BA7047C0BA7047C0BA7047C0BA7047AA
:10425000C0BA7047C0BA7047C0BA70470C4801680E
:1042600011F0010F07D04FF0010221EA02010160B5
:1042700008480068004708480047FEE7FEE7FEE7F9
:10428000FEE7FEE7FEE7FEE7FEE7FEE7FEE70000EB
:1042900064010440BC780020B94000002DE9F0031F
:1042A0005FEA930C67D000BF30F9024B31F9026B23
:1042B00030F9025B31F9027B04FB06F805FB07F9D4
:1042C0004FEA6848A8EB69487C4322F8028B6414E3
:1042D000754304EB654422F8024B30F9024B31F987
:1042E000026B30F9025B31F9027B04FB06F805FB37
:1042F00007F94FEA6848A8EB69487C4322F8028B2B
:104300006414754304EB654422F8024B30F9024B08
:1043100031F9026B30F9025B31F9027B04FB06F8DC
:1043200005FB07F94FEA6848A8EB69487C4322F887
:10433000028B6414754304EB654422F8024B30F998
:10434000024B31F9026B30F9025B31F9027B04FB5D
:1043500006F805FB07F94FEA68487C43A8EB694873
:104360006414754322F8028B04EB654422F8024B77
:10437000BCF1010C98D113F0030304BFBDE8F003B6
:10438000704700BF30F9024B31F902CB30F9025BC4
:1043900031F9026B04FB0CF77F1405FB06F874433C
:1043A000A7EB6847641422F8027B05FB0CFC04EBC6
:1043B0006C4C22F802CB5B1EE4D1BDE8F0037047E1
:1043C0002DE9F05F0546002092469B46884606464A
:1043D000814640241BE0284641464746224600F0DD
:1043E0009EF853465A46C01A914110D311461846BA
:1043F000224600F085F82D1A67EB01084F46224649
:104400000120002100F07CF817EB00094E41201E2E
:10441000A4F10104DFDC484631462A464346BDE8A4
:10442000F09F00000649074A0868504343F23902EA
:104430001044086040087047014908607047000058
:10444000680400206D4EC64110B5431A934209D24C
:104450008318881803E010F8011D03F8011D521E8F
:10446000F9D210BD40EA01039B0703D009E008C957
:10447000121F08C0042AFAD203E011F8013B00F829
:10448000013B521EF9D210BDD2B201E000F8012B5F
:10449000491EFBD270470022F6E710B513460A46C4
:1044A00004461946FFF7F0FF204610BD421C10F8E5
:1044B000011B0029FBD1801A704730B5044600204B
:1044C000034600E05B1C934203D2E05CCD5C401BE2
:1044D000F8D030BD30B50B46014600202022012423
:1044E00009E021FA02F59D4205D303FA02F5491BC2
:1044F00004FA02F52844151EA2F10102F1DC30BDD8
:10450000202A04DB203A00FA02F100207047914093
:10451000C2F1200320FA03F3194390407047202A88
:1045200004DB203A21FA02F00021704721FA02F35D
:10453000D040C2F1200291400843194670472DE94E
:10454000FE4F804681EA0300C00F0C46009021F028
:10455000004123F00045B8EB0200A94105D24046D6
:10456000214690461C460B46024623F0004010436D
:1045700004D14046214603B0BDE8F08F270DC7F3B4
:104580000A00C3F30A510290401A0190402866DAEB
:10459000C3F3130040F4801B0098924620B100231F
:1045A000D2EB030A63EB0B0B01985946C0F14002B2
:1045B0005046FFF7A5FF06460D4650465946019A5C
:1045C00000F084F910EB08006141002487EA1152E1
:1045D00084EAE7731A433BD0009A3AB3019A012A5E
:1045E0004FEA075210DC001B61EB02014FF0004262
:1045F00002EA0752CDE90042001C41F58011324623
:104600002B4600F082F9B6E7001B61EB0201001CAB
:1046100041F5801300185B412018A2F5001747EB05
:10462000030140EAD570B6196D4111E06D084FEAFB
:10463000360645EAC0754FEA0752001B61EB0201DE
:10464000001C41F5801149084FEA30000019514122
:1046500032462B4603B0BDE8F04F00F049B9009850
:10466000012240000023D0EB020263EBE0730098CC
:1046700021464FEAE074B8EB000061EB0401E9E782
:1046800083F000435BE781F0004158E72DE9FE4FDE
:1046900081EA030404F0004421F0004100944FF04B
:1046A000000B23F0004350EA010402D052EA030455
:1046B00004D10020014603B0BDE8F08FC3F30A54D3
:1046C000C1F30A552C44A4F2F3340194A0FB025424
:1046D000C1F3130141F48011C3F3130343F48013B6
:1046E00001FB024400FB034E840A970A44EA81540A
:1046F00047EA8357A4FB076802958D0A05FB0785E7
:104700004FEA932C04FB0C542705029D4FEA0658F0
:1047100047EA1637B5EB08056EEB070C870E920ECD
:1047200047EA811742EA8312A7FB0201B6EB0B01AD
:1047300064EB00042B0D43EA0C335E1844EB1C5071
:10474000DA465146E7FB0201C5F313044FEA0B3387
:1047500043EA14534FEA0432019C43EA0603A4F1EE
:104760000C040294009CCDE900B400F0CEF8A2E75E
:104770002DE9F04D81EA030404F0004B21F00045DF
:1047800014464FF0000A23F0004150EA050220D001
:1047900054EA01021DD0C5F30A570246C5F31303BC
:1047A000C1F31300C1F30A5640F4801543F480139B
:1047B000A7EB0608101BD64608F2FD3873EB050080
:1047C00002D308F1010801E092185B41B8F1000F33
:1047D00003DA00200146BDE8F08D00204FF480117F
:1047E000064684460EE0171B73EB050705D3121B24
:1047F00063EB050306434CEA010C49084FEA30001D
:1048000092185B4150EA0107EDD152EA030012D041
:1048100082EA040083EA0501084303D100224FF035
:10482000004308E0101BAB4102D20122002302E04A
:104830006FF0010253101AEB06004CEB085110EB1D
:104840000A0041EB0B01BDE8F04D00F051B8C1F397
:104850000A52C1F3130140F2FF3341F480119A422E
:1048600002DA00200146704740F233439A42A2F236
:10487000334202DC5242FFF752BEFFF741BE000056
:1048800030B5002904DB4FF00044404264EB0101E5
:10489000002B04DB4FF00044524264EB03039942C7
:1048A00008BF904230BD0000064C074D06E0E068AE
:1048B00040F0010394E8070098471034AC42F6D367
:1048C000FFF7FEFB0049020020490200202A06DB18
:1048D000CB17203A41FA02F043EAE07306E041FACE
:1048E00002F3D040C2F120029140084319467047BC
:1048F00010B5002B08DA401C41F1000192185B4111
:104900001A4301D120F0010010BD2DE9F04D92466F
:104910009B4611B1B1FA81F202E0B0FA80F2203286
:104920009046FFF7EDFD04460F4640EA0A0041EAD3
:104930000B0153465A46084303D120463946BDE889
:10494000F08D114653EA010015D0C8F140025046DF
:10495000FFF7E5FD05460E46504659464246FFF72D
:10496000CFFD084301D0012000E00020054346EAC6
:10497000E0762C4337430A984FEA4453A0EB0800F3
:104980004FEAD4240A304FF0000244EA47544FEA79
:10499000D72502D500200146D1E70105101969414C
:1049A000DDE9084500196941BDE8F04DA0E770B5A3
:1049B00001EB020410F8015B15F0070301D110F8B8
:1049C000013B2A1106D110F8012B03E010F8016B0E
:1049D00001F8016B5B1EF9D12B0705D40023521E91
:1049E0000FD401F8013BFAE710F8013B02F1020293
:1049F000A1EB030303E013F8015B01F8015B521E16
:104A0000F9D5A142D6D3002070BD000070B50B4986
:104A1000D1E9000105F0F0FD002001F099FE4FF012
:104A2000FF34074D02E000BF01F0B0FE21462868C8
:104A30001DF0F0FE0028F7D170BD0000E82F020045
:104A4000040000200348006810F0FF0F01D11CF0A3
:104A500027BF704704ED00E00348006810F0FF0F27
:104A600001D11CF03DBF704704ED00E010B50C46CD
:104A7000091D8AB2FB2A00D9FB22014644F2902389
:104A8000024806F0B9F8E0B210BD0000E4350200BB
:104A900010B5C368D9B280290FD98468E06800B125
:104AA00001204F2213A100F09FFFE16819B1206996
:104AB000BDE81040084772B6FEE70446008A616907
:104AC00082B2D8B2124B1B68984706F0ADF90028A5
:104AD0000FD1E068022806D004280AD1A069BDE8F9
:104AE000104006F09BB9A08BA169BDE8104006F00C
:104AF00093B910BD4863695F696E7465726E616CCD
:104B00005F7472616E73706F72742E6300000000C8
:104B1000F00100201FB5416899B1052911D00A297B
:104B20000ED10A4C1ECC8DE81E00C168019141696E
:104B30000291008AADF80C001021684605F0B8FF1C
:104B40001FBD04B0BDE81040FFF7A2BFA4360200AD
:104B50002DE9FE4F044606F091F908B1002000E06F
:104B60000220494E00278346B8464FF00109A6F1BE
:104B7000EC0A7CBB5920BDE8FE8FE38F03B351B331
:104B8000431AA08E834200DC184685B202EBC200B5
:104B900000EB02120AEB82000144208E7080B4F810
:104BA0004A0040B3358004208DE82300284482B2B7
:104BB0005946608D334606F057FB47B2D7BB25E018
:104BC00032496FF0050081F8018081F8009081F88A
:104BD0000380D0E724E0FFE7A18E8B1E984201DD21
:104BE000891E00E001468DB202EBC20000EB02110B
:104BF0000AEB8101D1E7A81C308094F8430004EB54
:104C00004000B0F84600B0800620CDE7B4F84A0076
:104C100001222844A4F84A001146204600F054F826
:104C200094F84320B4F84A1004EB4200B0F8460070
:104C30008142A2D394F84300B4F84A1004EB400038
:104C4000B0F8462091421CD14334A4F80780A0F864
:104C50004680207800EBC00101EB00110AEB8100D7
:104C60006421FFF718FC21786078433C814204D12D
:104C7000FF2043346070207003E029EA010084F8CB
:104C80004300384677E70000606F002010010020E5
:104C900010B590F820200B2A11D090F8451001296A
:104CA00001D0002010BD0749002301244B700C7077
:104CB000CB700A2A03D1C08D002106F0A3FF01208A
:104CC00010BD00001001002000290ED022B1C28FBB
:104CD0008A420BD3511A0AE0B0F840208A4201D32D
:104CE000511A00E00021A0F8401070470021C18750
:104CF000704730B500290FD000234FF6FF7462B122
:104D0000C28F1144B1FBF4F504FB1514944213D87F
:104D1000C387012180F8451030BDB0F84020114410
:104D2000B1FBF4F504FB1514944202D8A0F840300E
:104D300030BDA0F8401030BDC18730BD2DE9F04135
:104D40001E4613460D4602284AD1B5F84000254CB0
:104D50004FF00108002730B322462178224892F90B
:104D60000120012910442DD032461946FFF76CFB73
:104D7000607830446070B5F84000401EA5F84000EF
:104D800094F90100E178884227D183B26E68E98DF9
:104D9000154A0B20B047677084F80080E7702846FA
:104DA000FFF776FF0BE0677084F80080E77095F8F6
:104DB00020000A2803D1E88D002106F023FF0120FE
:104DC000BDE8F0811978E1702770B21E991CFFF7D9
:104DD0003BFB60783044801ECCE72846FFF758FF45
:104DE0000020EDE7100100205B70002000F01F02A2
:104DF0000121914040094FF0E02202EB8000C0F811
:104E00008012704700F01F020121914040094FF0CD
:104E1000E02202EB8000C0F88011704700F01F0212
:104E20000121914040094FF0E02202EB8000C0F8E0
:104E30000011704700F01F020121914040094FF01E
:104E4000E02202EB8000C0F8001170474907090E0C
:104E5000002803DA00F00F00024A00E0024A815401
:104E60007047000014ED00E000E400E0024A114049
:104E7000014302480160704780FFFF1F08ED00E01A
:104E800000B589B019F02CFB816803910021CDE9B0
:104E9000011004480B464A1E694600681DF03EF9A1
:104EA00009B000BD080000200148006870470000FC
:104EB0006801044001490872704700007401002035
:104EC00010B5202080F31188BFF34F8FBFF36F8F91
:104ED0001DF038FE18B104494FF0805008600020E2
:104EE00080F3118810BD000004ED00E00FB4054B05
:104EF00010B503A9044A029800F0EAF810BC5DF866
:104F000014FB0000817600006C0400200FB4084BF5
:104F100010B504A902AA039800F0DAF8044602A921
:104F2000002000F078FC204610BC5DF814FB000067
:104F300017580000014B024A00F0CAB88176000001
:104F40006C04002070477047704770477047704787
:104F500070477047704702E008C8121F08C1002A56
:104F6000FAD170477047002001E001C1121F002AEA
:104F7000FBD170472DE9FF5FDDE90220010DDDF86F
:104F800038B0024310D10F9801244CA2012808D058
:104F9000002100980F9BC0E90021C0E90243BDE851
:104FA000FF9F6FEA0B01F4E7A1F2FF3144F61050C6
:104FB00041430D140F9801280ED0A5EB0B00401CA7
:104FC0004FF000043E4EDFF8FC90B0F1000AA0461E
:104FD00005DACAF1000717E0CBF10000F0E7074659
:104FE00012E0F80707D02246334640464946FFF70D
:104FF0004DFB804689462246334610461946FFF748
:1050000045FB04460E467F10002FEAD1DDE9020180
:10501000BAF1000F42464B4602DAFFF737FB01E0D8
:10502000FFF7A6FB04460E460022274BFFF728FC9D
:1050300003D84FF0FF30014607E00022234B204603
:105040003146FFF77CFAFFF702FC102409E0002C40
:105050000ADB0A220023FFF7B3F9019B30321A550D
:10506000641E50EA0102F2D1641C019AC4F11103DA
:1050700014440F9A012A09D00122084301D15B454B
:105080000FDD4FF0000205F101050DE0084303D1EB
:10509000A3EB0B056D1E09E000204FF0110B0F90E4
:1050A00088E701DA00226D1E002A83D000980F994C
:1050B000C0E90231C0E9004571E70000300000009E
:1050C000000024400000F03F0000F0430000E03FFB
:1050D0002DE9FF4F95B09B4689460646002512E212
:1050E000252878D10024761CF94A27460121059409
:1050F0003378203B01FA03F0104202D00443761CBF
:10510000F6E730782A2811D06FF02F033078A0F11D
:105110003002092A16D8059A44F0020402EB8202F2
:1051200003EB42021044761C0590EFE759F8042B7C
:105130000592002A03DA504244F40054059044F0EA
:105140000204761C30782E2816D116F8010F44F090
:1051500004042A280DD06FF02F023078A0F130031C
:10516000092B09D807EB870302EB4303C718761C0A
:10517000F3E759F8047B761C30786C280FD006DCF6
:105180004C2817D068280DD06A2814D104E0742860
:1051900010D07A280FD10DE044F400140AE044F452
:1051A000801401E044F440147278824202D1761CEB
:1051B00004F58014761C307866280BD013DC582850
:1051C00077D009DC002875D04528F6D04628F4D0E1
:1051D00047281AD19FE118E0632835D0642879D098
:1051E000652812D197E1702873D008DC6728F1D0C8
:1051F00069286FD06E280DD06F2806D1B5E07328CE
:105200002CD0752875D0782874D05A4617999047B5
:105210006D1C76E1C4F30250022809D003280DD09A
:10522000D9F8001004280DD00D6009F1040968E1D7
:10523000D9F80010EA17C1E90052F6E7D9F80010D2
:105240000D80F2E70D70F0E719F8041B8DF80010DF
:1052500000208DF80100EA46012003E059F804AB74
:105260004FF0FF3061074FF0000102D40DE008F16C
:1052700001018846B9420FDA8045F8DB1AF80810B8
:105280000029F4D108E008F1010188468142FADBE7
:105290001AF808100029F6D105985B46A0EB08071C
:1052A00021463846179A00F09EFA284400EB08057C
:1052B00007E04DE02BE10DE01AF8010B5A46179973
:1052C0009047B8F10108F7D25B4621463846179A55
:1052D00014E142E00A220092C4F302524FF0000AA5
:1052E000022A08D059F804CB032A4FEAEC710AD0FD
:1052F0000DE029E02AE009F1070121F00702F2E8B8
:1053000002C1914609E00FFA8CFC4FEAEC71042AC5
:1053100003D14FFA8CFC4FEAEC71002907DA0A46F8
:105320000021DCF1000C61EB02012D2202E02205DC
:1053300004D52B228DF80420012203E0E20701D0DE
:105340002022F7E7904653E00A2102E010220DE008
:1053500010214FF0000A00910BE010224FF0000ADC
:1053600044F004040827009203E008224FF0000AEA
:105370000092C4F30252022A05D059F804CB00214E
:10538000032A08D009E009F1070121F00702F2E839
:1053900002C1914605E01FFA8CFC042A01D10CF0F1
:1053A000FF0C4FF00008220722D5702827D0009B61
:1053B00083F0100353EA0A0309D15CEA010206D024
:1053C00030228DF804208DF8050002229046009BC3
:1053D00083F0080353EA0A030AD15CEA010201D10F
:1053E000620705D530228DF804204FF001087F1E9A
:1053F000582809D037A003900EA8029013E040224D
:105400008DF804200122E1E737A0F4E75346604617
:10541000009AFEF7D5FF84460398825C0298A0F1BB
:105420000100029002705CEA0100EFD1029806A927
:10543000A1EB000000F1200A600702D524F48034BB
:1054400000E00127574502DDA7EB0A0000E000203D
:1054500000EB0A01009005984144A0EB0100059083
:10546000E00306D45B462146179A059800F0BBF985
:105470000544002706E001A85A46C05D17999047E9
:105480006D1C7F1C4745F6DBE0030CD55B462146CF
:10549000179A059800F0A7F9054404E030205A4611
:1054A000179990476D1C0099481E00900029F5DC63
:1054B00008E0029802995A460078491C029117990F
:1054C00090476D1CBAF10001AAF1010AF1DC6BE111
:1054D00009280100303132333435363738396162CA
:1054E000636465660000000030313233343536378E
:1054F00038394142434445460000000000F060F95D
:10550000054406F10106307800287FF4E9AD19B0B2
:105510002846BDE8F08F620700D4062709F107028C
:1055200022F0070CFCE80223E14603F000485FEAA2
:10553000080C02D00FF27C2C0DE05FEA045C02D56F
:105540000FF2742C07E05FEAC47C02D00FF26C2CDF
:1055500001E0AFF2700C4FF0FF3823F00043CDF8BC
:1055600050C065280CD006DC452809D046281DD03F
:1055700047283ED13EE0662818D0672839D139E067
:105580000021112F01DB112000E0781CCDE9000182
:1055900006A90EA8FFF7EEFCDDE90F010E9A0391B4
:1055A0000021009207F1010A04914EE04FF0004003
:1055B0000097CDE9011006A90EA8FFF7DBFCDDE995
:1055C0000F0203920E9B11990022DDF80CA00093AC
:1055D000049219B907F1010100EB010AB7EB0A00C7
:1055E00004D4C0F1FF3007F1010A0490AAEB0700D0
:1055F000019046E0012F00DA01270021112F01DD83
:10560000112000E03846CDE9000106A90EA8FFF7F9
:10561000B1FCDDE90F010E9A039100210491009283
:10562000BA4621070CD40399514500DA8A46BAF1EB
:10563000010F05DD009AAAF10101515C302908D063
:10564000B84202DA10F1040F06DA0121CDE90110A7
:1056500017E0AAF10101E9E7002805DC04990144FB
:105660000491AAEB000102E0411C514500DD8A468D
:105670000499A0EB010000F1010001904FF00040FF
:105680000290200704D40198504501DBCDF8048036
:1056900000208DF84F0002980DF14F07B0F1004F38
:1056A00025D02B200E9002984FF0020800280CDA2B
:1056B000404202902D200E9007E00A210298FEF74A
:1056C00009FF3031029007F8011DB8F10001A8F17F
:1056D0000108F2DC02980028EFD1791E0E980870BC
:1056E000307800F0200040F0450007F8020D12A8C5
:1056F000A0EB070000F107081498007800B1012022
:1057000000EB0A01019801EBE07105984144A0EB20
:105710000100A0F101000590E00306D45B4621469C
:10572000179A059800F05FF805441498007820B1A6
:105730005A461799904705F10105E00323D55B46CA
:105740002146179A059800F04EF805441BE004988E
:10575000002807DBDDE90301884203DD0098405C97
:10576000179901E0179930205A46904704986D1C0C
:10577000401C04900198401E019004D12E205A46EE
:10578000179990476D1CBAF10001AAF1010ADEDCFD
:1057900005E017F8010B5A46179990476D1CB8F1B0
:1057A0000001A8F10108F4DC5B462146179A059830
:1057B000A4E600002D0000002B00000020000000E7
:1057C0002DE9F041044600251E461746880405D4FD
:1057D00006E039462020B04705F10105641EF8D5E2
:1057E0002846BDE8F0812DE9F041044600251E461B
:1057F0009046C80301D5302700E02027880405D54E
:1058000006E041463846B04705F10105641EF8D56B
:105810002846BDE8F0810A68531C0B601070704781
:105820002DE9F05F064600880B46C0F30B00834667
:1058300005F090F80400707875884FEA10170AD0C8
:1058400005F10408984509D02A1DBDE8F05F194606
:105850003548FFF77CBB594634A01EE001F048F9FB
:1058600007F00301002740F2031A6063012903D007
:1058700002292CD03CA010E0A08F60B14119B1F5F5
:10588000827F0ED328485B4652465C30FFF75FFBB1
:10589000A787BDE8F09F594643A0BDE8F05FFFF73A
:1058A00056BBA16B2A4608440E30311DFEF7CCFDD5
:1058B000A08F284481B2A187E08F083081422FD386
:1058C000A06B0E3005F0CEF8E787A78728E0A08F01
:1058D00028B115485946B030FFF739FBA787B7887C
:1058E000381D8146854205D31FFA88F1304605F000
:1058F000B9F815E0FF2D07D95B465246291DBDE8D2
:10590000F05F3848FFF723BBA06B2A1D0E303146ED
:10591000FEF79AFDA4F83C80E787A16BA1F81090F0
:10592000BDE8F05F05F0CEBB043302006863692E6A
:10593000633A2061636C5F68616E646C65722063BA
:10594000616C6C65642077697468206E6F6E2D726F
:105950006567697374657265642068616E646C65FF
:1059600020257521000000006863692E633A2061DC
:10597000636C5F68616E646C65722063616C6C65FA
:1059800064207769746820696E76616C6964207040
:1059900061636B657420626F756E646172792066F5
:1059A0006C6167732025750041434C20436F6E7412
:1059B00020467261676D656E7420627574206E6F2B
:1059C00020666972737420667261676D656E7420FB
:1059D000666F722068616E646C65203078253032A5
:1059E000780000000834020010B50B46002803D1EF
:1059F0001146184607F0C2FB10BD70471CB506499A
:105A00008C68002C07D0002100910191B0F80601AC
:105A10000B460322A0471CBDA400002070B50D4614
:105A2000002824D1082D22D2114C4FF4947654F83A
:105A3000250020B9304600F05DFF44F82500040041
:105A400015D031462046FEF726FDA4F80651172052
:105A5000A4F8000106F0BEFDA4F80201FB2802D95B
:105A6000FB20A4F802014FF0FF30A4F8080170BD3C
:105A700080640020F8B51646028A069FA2EB010258
:105A800094B2C288D2050AD50A4A55683DB100933E
:105A900000890A46014633463846A847F8BD9C426D
:105AA00000D91C464069224601443046FEF7CCFC32
:105AB0002046F8BDA4000020042105F029BF0421E0
:105AC00006F068BE024908600421024806F0DABD0B
:105AD000B0000020396000000249486004210248FB
:105AE00006F0D0BDB000002039600000042105F0B0
:105AF0000FBF042106F04EBE00B58BB0D0F82401D4
:105B0000009028E0684600F033FABDF8081000293C
:105B100023D0BDF8062012A0FFF714FABDF8060046
:105B20008005039808D506A918F0E0FD06A81BF02B
:105B3000D5FD014614A001E0018814A0FFF702FA88
:105B4000BDF8101013A0FFF7FDF9BDF8101005986F
:105B500016F062FE00980028D4D10BB000BD000002
:105B600048616E646C653A203078253034782C209A
:105B7000666C6167733A203078253034782C207554
:105B80007569643A200000002573000025303478E0
:105B9000000000002C2076616C75655F6C656E3AC4
:105BA0002025752C2076616C75653A200000000078
:105BB000064A30B41468002C06D00B46A4460246B0
:105BC000002130BC0420604730BC7047B800002082
:105BD0007CB51446042819D120783E283FD016DC25
:105BE000052846D0082801D030280FD1B2F803503C
:105BF000284600F0BDF8040008D0284619F082FAC3
:105C000004F8FD0F284618F0D6FF60707CBDD72839
:105C10004CD0D8283BD0DA28F8D1608800F0A8F81A
:105C20000500F3D0B5F8060104F094FE0600EDD0AF
:105C30002079317A8842E9D16946601D18F065FD06
:105C4000062231466846FEF738FC0028DED1E07AAD
:105C500085F8FF00B5F80601FFF74BFF7CBDA07883
:105C6000012801D00A28F9D19188D078FFF7D6FE13
:105C70007CBDB2F80340204600F07AF80028F7D047
:105C800000F03AFE0F49002041F824007CBD6088F6
:105C900000F06EF80500F9D0B4F80B0001B2A5F8D9
:105CA000081109A0FFF74FF9284608E0508800F0D6
:105CB0005FF80028EAD04FF0FF31A0F8081100F09B
:105CC0009BFA7CBD80640020534D5F4556454E5481
:105CD0005F4944454E544954595F5245534F4C56C1
:105CE000494E475F53554343454544454420696405
:105CF000202575003EB50C468DF8080000208DF873
:105D0000092000900190022302AA0421204606F0F7
:105D100097FF3EBD7FB50DF1200C1446BCE8640032
:105D20008DF80800ADF80930ADF80B20ADF80D1076
:105D3000CDE90056072302AA0421204606F080FF81
:105D40007FBD70B515000C4603D0D0F8240120604B
:105D500008E0002070BD204600F00AF92089A84222
:105D600003D020680028F6D170BD012070BD00006E
:105D7000082803D2024951F82000704700207047DC
:105D8000806400202DE9FF410C4616460978002565
:105D9000B0F800211F4604F1050C0E2976D00CDC6A
:105DA000A1F1020EBEF10B0F15D2DFE80EF02114A7
:105DB0003814401450146014660018296FD006DCA3
:105DC000102970D012297ED0162904D181E05229E1
:105DD00068D0D22966D048A0FFF7B4F8A6F109012F
:105DE00004F1090016F018FD04B02846BDE8F08162
:105DF000B4F80110B0F802218A4202D9A0F80011CB
:105E000001E0A0F80021032500F580703D700188B5
:105E1000A7F801100188C088FEF728FEE4E7641C9B
:105E2000394663880093238803F018FB0DE0E31DD7
:105E3000641CF61F3946B5B2A7886688CDE90253BF
:105E4000CDE90067238803F071FA0546CCE7072EF9
:105E500001D8022100E01021641C6388CDE90031E3
:105E6000CDF808C02388394603F0D4FCEDE7394665
:105E7000B4F8013003F0E0FDE7E7641C39466388BD
:105E80000093238803F0C0FBDFE7FFE71946761E87
:105E9000641CC6F34F03009403F064FDD5E71EE0D5
:105EA00001E010E021E0072E01D8022100E01021DE
:105EB000641C6388CDE90031CDF808C023883946D9
:105EC00003F00AFCC1E700923246214603F03AFE95
:105ED000BBE700923246214603F038FBB5E700925B
:105EE0003246214603F0F0F9AFE7009232462146F0
:105EF00003F0F8FD78E70000556E68616E646C652C
:105F0000642041545420436F6D6D616E643A2025C6
:105F10003032582C20444154413A20001CB50B4BE0
:105F20001C68002C10D0B6238DF8003005238DF8A6
:105F300001308DF80200ADF80310ADF805200723FD
:105F400000216A460420A0471CBD0000B8000020C4
:105F500010B580B2FFF70CFF002808D0B0F80A2176
:105F6000B0F80611BDE810409120FFF7D7BF10BD73
:105F700010B501680A88828072B14B88C3808C8812
:105F8000048101F10604C4609B050CD5A2F116033F
:105F9000038201F116030BE00021C1800181C16081
:105FA0000182416106E0A2F10803038201F10803C6
:105FB00011444361016010BD70B5044600890D466F
:105FC00000281BD0022A08D0E08880050BD51022BB
:105FD000E068FEF772FA80B111E009882046BDE85A
:105FE000704000F00EB8084605F02EFB002805D0E2
:105FF000E168A8890988884201D1012070BD00208C
:1060000070BD70B5044600890D46002810D0E088A8
:106010008005E06808D505F017FB002808D0E06887
:106020008089A84203D004E00088884201D1012081
:1060300070BD002070BD00002DE9F041194C0646EE
:106040001F4615468846042809D0082E28D12878EE
:10605000C00720D0D4F800C01FE03046E0472878C1
:1060600078281DD1D4F804C0BCF1000F08D03B46FD
:106070002A4641463046E04704F064FB00280FD032
:106080002468002C0CD03B462A4641463046A446A4
:10609000BDE8F0416047D4F804C0BCF1000FDCD18A
:1060A000BDE8F081B00000202DE9F0410F46154613
:1060B000044601461E46127828A0FEF744FF042C31
:1060C0000CD0082C48D13846FFF752FE040043D0CC
:1060D00029781E2909D0522918D01EE0287878285E
:1060E0003AD1BDE8F04100F009B9B4F80A01A0B115
:1060F00004F5867000F0FEFC04F583740020A2888D
:10610000A0802188BDE8F041FFF708BF324629464C
:10611000BDE8F0410023FFF735BEFB2E06D932461D
:10612000BDE8F041FB231A48FEF70DBF22782AB1E3
:10613000BDE8F04116485030FEF705BF0120207041
:10614000A4F8046132462946A01CFEF77DF92046DA
:10615000BDE8F04100F050B8BDE8F0816174745FB3
:106160007061636B65745F68616E646C65723A2020
:1061700074797065203078253032782C2070616316
:106180006B65745B305D203078253032780000001C
:106190005031020010B5B0F80001029CC01E80B260
:1061A0001970A3F80120844200D8204610BD1FB505
:1061B00014468DF80800069AADF80930ADF80B20AA
:1061C000ADF80D10002000900190072302AA0421D1
:1061D000204606F035FD1FBD3EB50C468DF8080083
:1061E000ADF80920002000900190032302AA0421A9
:1061F000204606F025FD3EBD2DE9FF41044601780D
:1062000028A0FEF7A0FE207801282DD1A078D22862
:1062100008D003202070B4F8060104B0BDE8F041B6
:10622000FFF767BC18F090FE0027E0B1B4F8040156
:106230000F2818D3B4F8060119F032FB002813D147
:10624000B4F9080106F0A6FE05000CD0B4F804115C
:10625000A4F10A000E58696C324615A0FEF773FED1
:10626000686CB04202D92770BDE8FF81022020701F
:10627000B4F80411A01F0844082116F0CDFAB4F8B0
:1062800003201849601DCDE90006CDE90214B4F8D9
:106290000401A1780F3883B205F1340018F05EFED6
:1062A000E2E700006174745F72756E3A2025640045
:1062B000415454205369676E656420577269746550
:1062C0002C20444220636F756E7465722025752CF6
:1062D000207061636B657420636F756E74657220E6
:1062E000257500005D650000FFF700BC00B5FFF7F5
:1062F0003FFD002801D0B0F8000100BD2DE9F843B2
:106300000025144F144EA84657F82540E4B12078D4
:1063100003280BD1204600F0A7F838B1607898B177
:10632000B4F80601BDE8F843FFF7E3BB607858B165
:106330000AA084F8018000680090346824B1022328
:1063400000216A460420A0476D1C082DDCD3BDE85F
:10635000F883000080640020B8000020B70000002F
:106360002DE9FE431F4616460D468046FFF700FD09
:10637000040005D0B4F80A0120B19020BDE8FE83E6
:106380005920FBE74046FFF7B1FB88B102AB2A4634
:106390001D2120460097FFF7FDFECDE90060032395
:1063A00002AA0421404606F04BFC060002D014E08D
:1063B0005720E3E7A4F80A5104F5867042460849DD
:1063C000044600F0CDFB47F2305240F282412046B5
:1063D00000F0AEFB204600F07DFB3046CEE700002B
:1063E000515F000070B505460B480A4C0E464460EC
:1063F00004F08CF908480830446018F0D9FA0748CE
:10640000FFF76AFB284600F09DF83046BDE8704073
:1064100000F09EB8D15B0000BC000020A960000025
:106420002DE9FE431E4615460F468046FFF7A0FCA9
:10643000040014D04046FFF759FB90B102AB3A4636
:106440001B2120460096FFF7A5FECDE9005003234F
:1064500002AA0421404606F0F3FBBDE8FE83592062
:10646000FBE75720F9E700002DE9FC41244D002708
:1064700007700446B0F804212B46811CFFF782FC0C
:10648000064604280FD3287801280CD1287908283B
:1064900009D194F8FE0030B1B4F8060118F0B2FB4F
:1064A00078B1012811D086B100970197B4F80601A0
:1064B00033462A46042106F0C3FB2878032807D078
:1064C0001CE0B4F8060119F07FFD0020BDE8FC8156
:1064D0000C4AB4F80601B4F80011146874B1B5227E
:1064E0008DF8002004228DF80120ADF80410ADF8DD
:1064F0000200062300216A460420A0470120E5E7A8
:10650000606F0020B800002001490860704700005B
:10651000B800002010B50246FFF72AFC002806D07C
:1065200001214170BDE810401046FFF7E2BA10BDEE
:1065300010B50C46FFF71CFC002801D0C0F8244120
:1065400010BD00000149486070470000A400002011
:106550000149886070470000A40000207CB5044613
:1065600000780A4602280ED16946104618F0CAF88B
:10657000B4F80411A01F014408226846FDF79DFFEE
:1065800010B1002020707CBDB4F80411A4F10A0001
:106590000E58B4F9080106F0FDFC050001D00120F9
:1065A00000E00020E62207A1FFF71EFA45B1761CA5
:1065B0006E6403202070B4F80601FFF79AFA7CBDE0
:1065C00072B6FEE76174745F7365727665722E63EE
:1065D000000000000A6882654968C16535210170C4
:1065E00002F030BBF8B50446C0880E46C0050BD596
:1065F00006484568002D07D000200090034602465B
:1066000021893046A8472082F8BD0000A400002060
:106610007CB50E46C98804460D0B00D06D1C14F8DD
:10662000FD2F6078CDE90002A378FD3C2A46104892
:10663000FEF788FCF088410502D594F8FE1079B188
:10664000000502D594F8FF0060B1002D02DD94F83A
:10665000FD0048B194F8FD00A84207DA0C207CBD8B
:1066600005207CBD08207CBD0F207CBD00207CBDAA
:106670004C3002003EB50C468DF808000699ADF886
:106680000920CDE90013032302AA0421204606F0C5
:10669000D7FA3EBD0622FDF710BF0A68026089885E
:1066A0008180704710B50C49002203463A24985C5B
:1066B000000900F025FB0870985C00F00F0000F066
:1066C0001FFB48708C70C91C521C062AEFDB00208F
:1066D00001F8010C004810BD4569002008440088FD
:1066E00040BA70474218405C5378528852BA63F3FC
:1066F0001F4242EA00607047130A4354491C89B2A2
:1067000042547047130E4354491C89B2C2F30743E5
:106710004354491C89B2C2F307234354491C89B22C
:106720004254704710B50446FEF78CF903480188BF
:10673000A1430180BDE81040FEF78EB90C04002093
:1067400010B503F088FBBDE81040012000F010B840
:1067500010B506490A68C2F30312022AFAD10121D0
:1067600000F0CAFBBDE8104004F0E8BE040004409D
:1067700010B50446FEF766F90348018821430180FD
:10678000BDE81040FEF768B90C040020034800780B
:10679000C00701D116F054BB704700000C04002064
:1067A00008B50020009008480068C1050748006847
:1067B00003D069461BF0C8FD08BD00231A461946E0
:1067C0001BF0ACFC08BD000004ED00E0040000205C
:1067D00010B518B103F041FB0FF0ACF810F052F80F
:1067E0000120FFF79FFFBDE81040032016F03CBCDE
:1067F00070B50D480088A0B90FF074FF40F2E24573
:106800000446A8420DD30948406D50B916F000FD6A
:1068100038B116F005FDA84203D3A04200D32046AC
:1068200070BD002070BD00000C0400200000094075
:106830000268134602E08A4204D01268002AFAD1A4
:106840000B600160704702E08A4205D01046026882
:10685000002AF9D10A6001607047006808B1002081
:1068600070470120704704E0884201D10120704741
:1068700000680028F8D170470268816832B140682A
:106880000068884200D1086808B9704709B1012042
:106890007047002070470022C0E90021096881602C
:1068A0007047016851B141680A6881688A4203D122
:1068B00041600968816003E0826001E001210160BC
:1068C00080687047816809688160426811600021B2
:1068D000016070474FF0FF3351B107E002688A4210
:1068E00003D1096801600020704710460028F5D1E7
:1068F0001846704717F074BD1BF008B81BF006B8B7
:10690000782017F06DBD000010B50446806B06F0CE
:1069100076FB2146BDE81040014800F071B8000048
:10692000D800002070B50C4800F09AF804000CD094
:1069300040F2111006F086FB050008D09021204699
:10694000FDF7A9FD2046A56370BD002070BD21465E
:10695000014800F055F8F8E7D800002010B5902362
:1069600008220F490F4800F037F80E4914230C395C
:10697000002201F1100000F02FF80A494C230839D9
:10698000002201F1100000F027F806490C23002234
:10699000091FBDE8104001F1100000F01DB8000013
:1069A000A0640020D80000200146014800F028B86B
:1069B000E0000020014800F053B80000E000002093
:1069C0000146014800F01CB8DC000020014800F03E
:1069D00047B80000DC0000202DE9F0410646002009
:1069E000984617460C460546306005E0214630467D
:1069F00000F006F844446D1CBD42F7DBBDE8F081B1
:106A000030B40268134607E08B4204D1024630BC22
:106A100004A0FEF799BA1B68002BF5D10A6001604B
:106A200030BC70476274737461636B5F6D656D6FCA
:106A300072795F706F6F6C5F667265653A20626C29
:106A40006F636B20257020667265656420747769BA
:106A5000636520666F7220706F6F6C202570000078
:106A6000016819B10A680260084670470020704743
:106A700001460148FFF7C4BFE40000200148FFF7CA
:106A8000EFBF0000E400002000B589B00A230193A5
:106A90000E4B1B6802930591CDE903020C48006878
:106AA000C00518464FF0000304D0002269461BF0D1
:106AB000EBFB04E04FF0FF3269461BF02FFB01288F
:106AC00002D0012009B000BD0020FBE70800002033
:106AD00004ED00E038B504461CF026F802464FF0FD
:106AE000FF3000900023012160691CF035FA38BDA9
:106AF0000020704738B50446406948B14FF0FF3177
:106B0000002300911A4605211CF026FA002060613E
:106B1000002038BD38B504461CF006F802464FF098
:106B2000FF3000900023022160691CF015FA38BD87
:106B300038B5044681604FF47A704243B2FBF0F1FD
:106B4000044800902346002203A01CF099F96061DC
:106B500038BD0000814E00006800000001617047F0
:106B6000C0E90312704708B54FF0FF3100910023D0
:106B700040691A4603211CF0EFF908BD70B50C00FE
:106B8000054601D0012000E000206A2206A1FEF7A0
:106B90002BFF284600F034F810B100206C60206014
:106BA000286820602C6070BD6C6973745F626173CB
:106BB00069632E630000000070B50C00054601D02B
:106BC000012000E00020532207A1FEF70DFF284618
:106BD00000F016F808B12C6001E06868046000203D
:106BE0006C60206070BD00006C6973745F626173DB
:106BF00069632E630000000000210160416070475E
:106C0000006808B10020704701207047006808B193
:106C10000020704701207047016819B10A680260BE
:106C200012B103E00022FAE70022426008467047F2
:106C300070B5054600680C4600B10120C32209A1C9
:106C4000FEF7D2FE206800B10120C42205A1FEF7A4
:106C5000CBFE69682068086060686860002020607A
:106C6000606070BD6C6973745F62617369632E6389
:106C70000000000070B5034600200246012513F80D
:106C80000240002105FA01F6344201D0401C80B2D6
:106C9000491CC9B20829F5D3521CD2B2052AEED339
:106CA00070BD70B50446008942F6554290472521D3
:106CB000B0FBF1F201FB1201CA0801F00705A25C6A
:106CC0000123AB401A4201D0084670BDE188414320
:106CD0002046BDE87040C1F3074102F0C9BA30B5A3
:106CE00004461068206010790D4600F01F002071E6
:106CF0002046FFF7BFFFE08085EA1540208130BDC8
:106D00000A2801DA303003E00A38062802DA413076
:106D1000C0B270473F20704770B50446C08E88B03F
:106D2000002822D0258F94F83430A2268DF80060F8
:106D30001A268DF80160A6890A46ADF80400ADF860
:106D4000082004F11C01ADF80260ADF80650ADF862
:106D50000A30102203A8FDF777FBA1891C236A469D
:106D6000A06800F021F90020E08608B070BD0000A6
:106D70000249CA6D82430243CA6570470000094058
:106D800043688B4204D18068904201D10120704752
:106D9000002070471CB50022202140201BF01EF966
:106DA000104C03220021A06001201BF017F9606045
:106DB00004F10C010E20CDE900014FF480640023A2
:106DC000224609A109481BF035FE06490220103170
:106DD000CDE900010023224605A106481BF02AFE4A
:106DE0001CBD000000000020630000000D4A0000F0
:106DF0007000000089D9010010B504F0FEFB0022EC
:106E0000BDE810401146022004F0BEBB70B5064636
:106E1000401E1D460C46042809D220782968884265
:106E200005D10622211D6868FDF747FB08B1002047
:106E300070BDC5E90264032070BD00000248017AFC
:106E4000491C0172704700007401002010B504460F
:106E500003F0DAF800200EF059FD0FF079FB0EF088
:106E6000ADFB07F0C9FE0BF0DBFA10F0EFFF14F0FA
:106E7000E9FE002C03D0BDE8104010F0BEB810BDF4
:106E800070B50446B0F1A53F19D0B4F1C33F16D098
:106E90000123DA0205211B2015F034FF0546B4F169
:106EA000F23F09D08C2206A10020FEF79DFD284666
:106EB000BDE8704016F086B807202870F7E770BD6F
:106EC0006474626C652E630070B50A4C4FF4202028
:106ED000074DE06419F054FF800602D54FF480306E
:106EE00001E04FF400402844C0F31300A06470BDDB
:106EF00000000A4000000940F8B505461B480E4650
:106F0000002101800EF0E2FD19F048FF15F0A2FE0D
:106F100068460EF019FE0446009842F203114FF441
:106F20006367884201D3012000E00020852210A180
:106F3000FEF75AFD3A462146002015F0F7FE00986C
:106F400004F56361A0F5636082B2012015F0EEFEE6
:106F500019F0CEFE3046FFF779FF002D04D0284609
:106F6000BDE8F840FFF78CBFF8BD00000C0400201E
:106F7000647469702E63000009490120096809B131
:106F8000002070470749CA69002AF9D1044A28320B
:106F900012688968491E8A42F3D1022070470000B6
:106FA000580B00202400002030B4040003D0A44675
:106FB00030BC0420604730BC7047FEB51E46174603
:106FC0000C46054602F070F9002816D0011D6846EF
:106FD000FFF761FC0CE06846FFF763FC0189A14202
:106FE00006D1D0F804C033463A4629460420E0478B
:106FF0006846FFF741FC0028EDD1FEBD1CB5A0227C
:107000008DF8002003228DF801208289ADF802203E
:107010008DF804108189806805236A46FFF7C4FF54
:107020001CBD30B587B00446A3250A988DF80050E2
:1070300018258DF80150A589ADF80410ADF806208B
:107040000146ADF80250ADF8083010220DF10A00EB
:10705000FDF7FAF9A1891A236A46A068FFF7A4FF91
:1070600007B030BD10B586B00446A1208DF80000F1
:1070700016208DF80100A089ADF80410ADF80200CB
:10708000ADF806201022194602A8FDF7DDF9A18906
:1070900018236A46A068FFF787FF06B010BD0000FE
:1070A0002DE9F05F0024924689460546274626468C
:1070B00024E000BF05EB8400B0F9021035F924008C
:1070C00017F04AFB834605EB8800B0F9021035F94A
:1070D000280017F041FBABEB000043F6FF7188423C
:1070E00003DBA0F5FE40FF3804E00849884201DCDC
:1070F000490C0844074404EB4904761C04EB0908D6
:10710000D045D7DB97FBF6F0BDE8F09F01C0FFFF4D
:107110002DE9F04742780446901C86B00E46814225
:1071200006D006B0921CBDE8F047F548FDF70FBF4A
:107130002178F4A0FDF70BFF20780122DFF8D4833B
:107140004FF000094FF0070A10287DD00BDCA0F1AA
:1071500005000B2835D2DFE800F0BA9734833434C9
:107160005A3434112B003E286FD004DC12286DD025
:10717000132826D12CE0572823D19CE1D8F8000011
:10718000A278454690F85210E3A0FDF7E0FE617941
:10719000EAA0FDF7DCFE2968A07881F85200EC49EE
:1071A000B4F803000988884207D0EA49098804E056
:1071B000D8F80000E17880F85210D8F80010A1F853
:1071C0008690D8F8000090F86800012877D07CE11C
:1071D0000325002717E0635BAD1C625BAD1C1846FE
:1071E00003F0B8FB38B190F84010914208D3891AE7
:1071F00080F8401006E01946D7A0FDF7A8FE01E090
:1072000080F840907F1CA078B842E4DCD9E7B4F85D
:10721000030003F09FFB0500D3D0A07860B9E17AAA
:1072200004F10500090703D5698A41F00401698268
:10723000C078000600D5EA75688A40F00201B048BF
:107240006982EA7D603002E04FE05FE052E0FDF7E6
:107250007EFE688A0106B4D540F020006882B0E75F
:10726000B4F80350284603F075FB0028A9D0A17894
:1072700031BB61790029816902D041F4004101E00C
:1072800021F4004181611BE0B4F80350284603F06B
:1072900061FB002895D0418A0A0607D521F08001BC
:1072A00041F010014182A17801758AE7A2783AB9CC
:1072B000427D022A04D841F04001418281E700E189
:1072C00000F094FC0146284603F044FC79E762791B
:1072D000A178AFA0FDF70AFEB4F8030003F03AFB73
:1072E000002893D080F811A06BE703F067FE03F04D
:1072F00079FE66E7A078002888D1B4F8030003F08F
:1073000029FB0028ABD0617A01745AE7A0780628DF
:107310007DD010DC01281CD00428A0D1E078002802
:1073200076D1A08803F016FB002871D08030A179B7
:107330004170027045E70A280BD012288FD12079BE
:1073400008288CD2E178002970D097A0FDF7FFFDC6
:1073500037E7E0780028A8D1A788082F27D2D8F8E7
:10736000000000EB8705686910B9FFF7DBFA686178
:1073700005001CD0EF800220C5F8189068752A46D9
:10738000924905F11C00FFF7EBFBFFF7B1FB6863C7
:10739000E0792872294604F1080017F0B6F90520B3
:1073A0006874A0792874A0780A2804D012E0A08814
:1073B00000F0D0F905E7D4F80E10C5F88210618A04
:1073C000A5F886106169C5F88810218B05F1800049
:1073D000A5F88C10E089A5F85200287C60B9D8F88F
:1073E000001091F85010E973D8F8000005F1090178
:1073F00090F8500000F086FA2846FFF753F902464D
:10740000E98873A0FDF7A3FD03F07AFB01E00EE02D
:1074100023E0D8F8000090F85E00C0068AD5E9881D
:1074200040F6B832724803F0E7FBCAE618E034F8D9
:10743000035F284603F08EFA6288A388E1882489D6
:1074400000280AD0543046880088CDE90014CDE9E0
:1074500002062946674803F0CFFB06B0BDE8F08777
:10746000B4F80520104603F075FA0546217962A0AC
:10747000FDF76DFD2079D8F80020C0EBC001114464
:1074800091F89310E97369B12179D8F80000C1EB44
:10749000C101014401F18000D1F8941045F8091FA1
:1074A000008B06E0D8F80000416C45F8091FB0F8E1
:1074B0004800A88085E6608803F04CFA0028B4D123
:1074C000CBE7B1B2204603F033FCB1B2204603F063
:1074D000EFFA2078052811D1B4F8030003F03AFA46
:1074E00060B1D0E90012047D458ACDE9031203F0B2
:1074F00057FFE80502D503AD214695E0A7E000005F
:10750000743402004843493A4556454E543A2530B2
:107510003278000090320200434D445F434F4D509B
:107520004C45544520636D6473206F6C6420257551
:10753000202D206E6577202575000000636D645F47
:10754000636F6D702073746174757320257500000E
:107550002C360200343602006863695F6E756D6216
:1075600065725F636F6D706C657465645F70616395
:107570006B6574206C6973747320756E75736564C4
:1075800020636F6E2068616E646C65202575000055
:10759000646973203A20732030782578202C72207B
:1075A000307825780A0000006164762073657420C5
:1075B0007465726D696E61742064756520746F20E6
:1075C000636175736520307825780A006DA9000025
:1075D0004E657720636F6E6E656374696F6E3A20D7
:1075E00068616E646C652025752C20257300000091
:1075F00054350200DC3502006164762068616E64F7
:107600006C6572203078257820636F6E6E656374C8
:10761000656420746F20636F6E2068616E646C65B2
:1076200020307825780A00000BA0FDF790FCE120BF
:107630008DF800008DF801A08DF802400DF10301D6
:10764000284617F062F80921684603F031FA06B0BF
:10765000BDE8F04703F036BD6863695F656D697426
:107660005F6465646963617465645F626F6E6469B9
:107670006E675F726573756C74202575200000005D
:1076800010B5044603F0B2FF204610BD13460A466B
:1076900010B50146024803F0AFFAC0B210BD0000B9
:1076A0008436020010B50246024803F0A5FAC0B2C3
:1076B00010BD00008435020010B588B00C46694644
:1076C00017F014F804A9204617F010F804AA694628
:1076D000024803F091FA08B0C0B210BDB435020000
:1076E00010B5024803F088FAC0B210BD7C35020024
:1076F00010B5024803F080FAC0B210BD3436020063
:1077000010B5024803F078FAC0B210BD94360200FA
:1077100000B1012004490A6892F88920824202D00F
:10772000096881F8890070479032020010B502485C
:1077300003F062FAC0B210BD7435020008B50093C0
:1077400013460A460146024803F056FAC0B208BD85
:10775000F432020010B5034603F0FCF840B10621F4
:10776000417413221946054803F046FA002010BD63
:107770000021184603F088F9F8E7000024350200DC
:1077800038B54FF0FF30ADF80200ADF80000062527
:107790000DE0684603F02EF90446407C062806D02A
:1077A000E1881322054803F027FA00B9657468469A
:1077B00003F000F90028ECD138BD000024350200A8
:1077C00038B500B101200D490A6892F8884084421A
:1077D00010D121460AA0FDF7BAFB66208DF8000003
:1077E00001208DF801008DF802400321684603F066
:1077F0005FF938BD82F8880038BD00009032020081
:107800004254535441434B5F4556454E545F44499F
:1078100053434F56455241424C455F454E41424CC1
:1078200045442025750000002DE9FF4FDFF8A8A092
:1078300085B00024DAF80020DDE912691268DFF86B
:1078400094808B460A2000EB061153692746B8F84E
:10785000000003AA9847050001D001210FE056203F
:1078600009B0BDE8F08F00BF04EBC40219F8122084
:10787000521E01FA02F03843641CC7B2E4B2B442AB
:10788000F2D3DDE907018DE883005B46D8F80410E8
:107890002846059A03F054F8C7B200240DE000BF53
:1078A00004EBC40109EB4101891CE8191022FCF723
:1078B000CBFD1037641CFFB2E4B2B442F0D3DAF867
:1078C0000010404681F850B02946039A03F030FD7D
:1078D0000020C5E7643602009032020002480068CA
:1078E00090F88A007047000090320200044909684D
:1078F00051F8CC2F02604A68426089688160704705
:1079000090320200074A0028106804D050F84A2F2D
:107910000A60808803E0426C0A60B0F84800888002
:10792000704700009032020010B50146024803F093
:1079300063F9C0B210BD0000A43502000349096814
:107940004A6C0260B1F848108180704790320200A2
:1079500010B50446014604A0FDF7F9FA022C01D93E
:10796000012010BD002010BD6761705F6D69746DEE
:107970005F70726F74656374696F6E5F7265717545
:10798000697265645F666F725F736563757269744F
:10799000795F6C6576656C20257500007FB50DF10B
:1079A000200CBCE870008DE8780013460A460146BA
:1079B000024803F021F904B0C0B270BD6C36020079
:1079C00010B5024803F018F9C0B210BD74360200B9
:1079D00013460A4610B50146024803F00DF9C0B23D
:1079E00010BD0000E432020013460A4610B50146FD
:1079F000024803F001F9C0B210BD0000DC32020001
:107A00001CB5049CCDE9003413460A4601460248E1
:107A100003F0F2F8C0B21CBDEC32020010B5014612
:107A2000024803F0E9F8C0B210BD00007C36020045
:107A30000448417A012903D10221417218F00CBB9C
:107A40007047000074010020074810B5426D40F2F5
:107A500082210648FFF76CF80448FFF73BF8BDE8C1
:107A60001040FFF7E5BF000074010020CC73002038
:107A700010B5002207490848FFF772F8074840F29E
:107A80008221426D0448FFF753F8BDE810400248D8
:107A9000FFF720B8497A0000CC7300207401002061
:107AA00010B5024803F0A8F8C0B210BD6C35020052
:107AB00010B5024803F0A0F8C0B210BDCC320200ED
:107AC00010B5024803F098F8C0B210BD9C36020011
:107AD00010B50146024803F08FF8C0B210BD000097
:107AE000EC35020010B50146024803F085F8C0B23B
:107AF00010BD00004435020010B50146024803F0F5
:107B00007BF8C0B210BD0000AC35020010B50146D4
:107B1000024803F071F8C0B210BD00005C350200ED
:107B200010B50246024803F067F8C0B210BD00006D
:107B30008C3502002DE9F0410E46074602F00AFF9F
:107B4000040010D0384600F047F80546024631469A
:107B50000AA0FDF7FCF9B54207D329463846BDE82F
:107B6000F04102F0F7BF0121F8E76675608A40F046
:107B700020006082BDE8F04103F0A4BA6761705F45
:107B8000726571756573745F736563757269747915
:107B90005F6C6576656C2025752C20637572726547
:107BA0006E74206C6576656C2025750010B50146F5
:107BB000024803F021F8C0B210BD00002C360200CC
:107BC00013460A4610B50146024803F015F8C0B244
:107BD00010BD00008C36020010B502F0BBFE18B1DB
:107BE000BDE8104000F002B8012010BD10B1008BBC
:107BF000000401D401207047022070470220704722
:107C0000084B10B51B68C0EBC0021A440B6842F861
:107C1000943F8B8893800A460146034802F0ECFFAC
:107C2000C0B210BD903202000436020000B1012043
:107C30000249096881F88A0070470000903202000A
:107C40000149096808647047903202001CB5049C21
:107C5000CDE9003413460A460146024802F0CCFF43
:107C6000C0B21CBDBC3202000A4610B50146024833
:107C700002F0C2FFC0B210BDC43202002DE9FE4FB7
:107C8000144E8846A6F11C011D4609681746814618
:107C900009683088DDF830A04B6902AA691D984751
:107CA000040014D0CDE9007543464A46716802F0DD
:107CB00047FEC0B220442A465146FCF7C5FB214688
:107CC0003046029A03F034FB0020BDE8FE8F5620B8
:107CD000FBE70000AC3202002DE9FC47124D0F46D5
:107CE000A5F1240199460968164680460968288846
:107CF00001AA4B69311D9847040013D000963B46FA
:107D00004246696802F01CFEC0B220443246494631
:107D1000FCF79AFB21462846019A03F009FB002054
:107D2000BDE8FC875620FBE7B43202000449026834
:107D3000096841F8CC2F42684A60806888607047C3
:107D4000903202000A4610B50146024802F054FF84
:107D5000C0B210BD9C3202002DE9FF5F154D89466F
:107D6000291FDDE90E6B09681F46904609688246A7
:107D700028884B6903AA711D9847040018D0CDF8D4
:107D80000080CDE901764B4652462046696802F0F4
:107D9000D7FDC0B2204432465946FCF755FB214678
:107DA0002846039A03F0C4FA002004B0BDE8F09F0F
:107DB0005620FAE7943202002DE9FF5F164D8946FE
:107DC000A5F11401DDE90E6B09681F4690460968AC
:107DD000824628884B6903AAB11D9847040018D031
:107DE000CDF80080CDE901764B46524620466968C1
:107DF00002F0A6FDC0B2204432465946FCF724FBEF
:107E000021462846039A03F093FA002004B0BDE807
:107E1000F09F5620FAE70000A432020013460A46FB
:107E200010B50146024802F0E7FEC0B210BD0000E6
:107E3000F435020008B50B460092024600210248C4
:107E400000F074F808BD0000143602002DE9FC476C
:107E500091461B4A194F884612680446022112684F
:107E600001EB88013888536901AA9847060007D0BA
:107E700043462246796802F063FDC5B2002414E04F
:107E80005620BDE8FC8700BF04EB440009EB40012D
:107E90000A7900924B8819F81020701909A102F094
:107EA0004FFD2D1D641CEDB2E4B24445ECD33146C8
:107EB0003846019A03F03CFA0020E2E7243602003B
:107EC00090320200313231002DE9F04F8DB0DFF8F1
:107ED00054C0DDE91F89DDE91BBADCF800C0DDE92B
:107EE0001D56C0EBC0076744DDF868E0179C87F8B3
:107EF000934008AFA7E86003DDF864C0CDE906BA97
:107F0000CDE904CE169E189DCDE9003613460A46EB
:107F100001460548CDE9024502F06EFE0DB0C0B243
:107F2000BDE8F08F903202000C3602002DE9FC47CC
:107F30001C460A9D174688468146F72B28D9F7200C
:107F4000CDE900050B4601223946484602F054FEB1
:107F500010F0FF0025D1F73CA4B2F73516E0F72C5E
:107F600001D3F72600E02646A01BCDE900650404F6
:107F7000240C01D0002200E0022243463946484644
:107F800002F03AFE10F0FF000BD13544002CE6D190
:107F90004346032239464846CDE9004502F02CFE0F
:107FA000C0B2BDE8FC87000008B5009313460A463E
:107FB0000146024802F020FEC0B208BD5C36020055
:107FC0002DE9FC4716460F4602EB8601244ADFF8EE
:107FD0008C8099461268824600241268C91CB8F841
:107FE0000000536901AA9847050002D00020012231
:107FF0000DE05620BDE8FC8700EB400319F8133074
:108000005B1E02FA03F12143401CCCB2C0B2B04265
:10801000F2D300943B4652462846D8F8041002F0AA
:108020008FFCC7B200240FE004EB440109EB4100D0
:108030008188009143884278E8190AA102F080FC07
:108040007F1D641CFFB2E4B2B442EDD32946404622
:10805000019A03F06DF90020CCE7000054360200CD
:10806000903202003132320008B50B4600920246CF
:1080700000210248FFF75AFF08BD00001C3602002D
:108080000A4610B50146024802F0B6FDC0B210BD66
:108090009C3502002DE9F8431A4F15460C468046E0
:1080A000F82925D90146F82301223846009502F027
:1080B000A3FD10F0FF0023D1F83CA4B2F83515E081
:1080C000F82C01D3F82600E02646A01B0404240C5B
:1080D000009501D0002200E0022233464146384696
:1080E00002F08AFD10F0FF000AD13544002CE7D1E0
:1080F0002346032241463846009502F07DFDC0B27A
:10810000BDE8F883443602000A4610B5014602482D
:1081100002F072FDC0B210BD4C36020008B50093EB
:1081200013460A460146024802F066FDC0B208BD89
:108130003C3602000A4610B50146024802F05CFDDA
:10814000C0B210BDD43202001CB5049CCDE900348D
:1081500013460A460146024802F04EFDC0B21CBD5D
:10816000FC35020005490268096841F84A2F8288F7
:108170008A800146024802F03FBD000090320200B2
:10818000643502000249096881F851007047000017
:10819000903202000B4900B50A6892F85C20C2F3E5
:1081A000C00262B1096891F8511041B102F0D2FBEE
:1081B00028B1807CC0F3800008B1012000BD002000
:1081C00000BD000090320200F0B587B0DDE90C453B
:1081D000DDE90E67DDE910CE8DE81840CDE9057CBC
:1081E00013460A46CDE903560146034802F004FD52
:1081F00007B0C0B2F0BD0000FC3202007FB50DF147
:10820000200CBCE870008DE8780013460A46014651
:10821000024802F0F1FC04B070BD00009435020089
:108220002DE9F0478AB01E461546884604280AD034
:10823000082875D128781B280FD01D2808461FD084
:1082400001F032F81EE02978782969D1FA494C68A2
:10825000002C50D04146A0474DE0B5F801700C46C7
:10826000EA1CDE1E3946A72016F08AFB0246F61CE1
:108270000AB0B3B239462046BDE8F047FEF79DBECE
:1082800015F0A6FB04004BD02978771E4FF00109AA
:108290000D297CD009DC0C2915D2DFE801F014FA95
:1082A000143114F914F8146414CE172970D006DCB4
:1082B0000F296ED0112934D0132904D147E119298F
:1082C00068D01D293CD0DDA0FCF740FE28788DF851
:1082D00008908DF80900002006218DF80A008DF81D
:1082E0000C108DF80B0000900190A089052302AAC4
:1082F000042104F0A5FC0AB0BDE8F04700F0A2BCE0
:10830000B5F8015004F066F9854200D22846E082B3
:1083100084F81890A28901461046FCF7A7FBEAE70B
:10832000DDE120780228E6D132462946204616F0C3
:108330009FF969782046711A294401224988A3E0EF
:108340004746B5F80180EA1CF61E4146A82016F003
:1083500017FB0246F61CB3B241463846FEF72DFE27
:1083600084F85190C7E720780C2820D016DC062826
:1083700001D00828BFD132462946204616F02BF9F5
:108380003146284600F09AFF0146204603E0E6E029
:1083900013E16DE145E119F029F8ACE7142832D07A
:1083A0002428A8D16888A4F84C00252037E195F846
:1083B0000180B8F1070F07D26888A085A8882086B9
:1083C000E88860860D202AE1022715E0E91935F8D2
:1083D00007904A8822868A886286C98801A819F08F
:1083E000A9F901A80090638E228E49462046FEF727
:1083F00018FE07EB080087B2B742E7D3697820463A
:10840000711A695A3FE095F8018000210227A8F10E
:10841000020A0DE035F80790EA191FFA8AF3921C58
:108420004946204616F0C8F807EB0800494687B2CF
:10843000B742EFD32046132226E020780E2814D02E
:10844000102827D028288DD1204600F07DFA218FD2
:108450006A1CA92016F094FA02460837BBB2A1891B
:10846000A068FEF7A1FD002135E101A9681C16F006
:108470003DF9A18D01AA00922046638E228EFEF75F
:10848000D0FDA18D20460B2218F0D0FF33E70BE082
:1084900022E0F7E0204600F057FABBB2218F6A1CB9
:1084A000204616F089F8DEE74FF004094FF6FF7812
:1084B000012704F11C0A09E0E819E95B40885346EA
:1084C000804602462046FEF7CDFD4F44B742F3DB1F
:1084D000204641460322D7E768780427022800D1C6
:1084E0001227F01B35F800A0AD1CB61E1FFA86F847
:1084F000002621E035F80690042F05EB060021D078
:10850000801C06A916F0F2F8A4228DF8002014228F
:108510008DF80120A289ADF8022006A9ADF80490DB
:1085200010220DF10600FBF78FFFA18916236A4682
:10853000A068FEF739FD3E444645DBDB2046514648
:108540000922A1E7418806A819F0F4F8DCE72078B1
:10855000182803D0262801D02C2897D1AAE0761E0F
:108560002078B6B2761DBFB2122815D02A288DD138
:10857000218F628F6B1CAA20009716F00FFA020061
:1085800004D0B3B2A189A068FEF70EFD3A462921B6
:10859000204618F013FFAEE6218F628F6B1CA620D9
:1085A000009716F0FBF9020004D0B3B2A189A068CD
:1085B000FEF7FAFC3A461121EAE720781A2812D091
:1085C0001C281CD02E2814D03228E4D1204600F0DC
:1085D000BBF932462946204603F056F800287FF4BE
:1085E00062AF7E2177E0B5F803001D226087192174
:1085F00010E0B5F803002F2260872D210AE03246F3
:108600002946204603F040F840B1B5F803001D228A
:1086100060871B21204618F0F8FE6CE621202070B0
:1086200069E620781E2845D0202843D022281BD078
:108630003028B0D13EE00000E80000204154542032
:1086400048616E646C65722C20756E68616E646C36
:10865000656420726573706F6E73652074797065E0
:108660002030782530327800204600F06DF9B8E7E8
:10867000207816288FD1BBB26A1C0021204615F045
:108680009BFF17E029790A2910D12078082815D0F6
:1086900006DC02280ED004280CD0062806D10DE0F6
:1086A0000A2807D00C2805D014280CD0204600F04A
:1086B000B8FA20E6204600F047F9D4E6E18D2046DE
:1086C000FEF72AFBF6E7204600F03EF9A08D218E4A
:1086D0008842F2D10A212046FEF790FC0BE60AB050
:1086E000BDE8F08710B50446084615F0A5F918B1A5
:1086F000017819B1952010BD562010BD1F2184604E
:10870000017000F09FFA002010BD70B505461446B8
:10871000084615F091F918B1017819B1952070BD8E
:10872000562070BD6188A288914203D10021FEF7D6
:1087300065FC09E085606188491C8185A188C18547
:108740000921017000F07EFA002070BD2DE9F04192
:1087500007461D4616460846DDF8188015F06CF9E8
:10876000040004D0207820B19520BDE8F081562087
:10877000FBE7A760A685E585012084F85000002569
:1087800065831022414604F11C00FBF75DFEE5867F
:108790000720207000F056FA0020E6E72DE9F041AE
:1087A00007461D4616460846DDF8188015F044F9C0
:1087B000040004D0207820B19520BDE8F081562037
:1087C000FBE7A760A685E585012084F85000A4F8A2
:1087D0001A80414604F11C0018F0ACFF0020E0862E
:1087E0000720207000F02EFA0020E6E770B506465C
:1087F0001C461546084615F01FF918B1017819B145
:10880000952070BD562070BD86608585C485002189
:1088100080F85010C1860521017000F013FA002085
:1088200070BD10B50446084615F006F918B1017878
:1088300019B1952010BD562010BD0121846081859D
:108840004FF6FF72C28501700021418300F0FAF9F2
:10885000002010BD70B505461646084615F0ECF828
:10886000040003D0207818B1952070BD562070BD4B
:108870000120A560A0854FF6FF70E0850020608391
:108880001022314604F11C00FBF7DEFD03202070AE
:1088900000F0D8F9002070BD70B5054614460846B2
:1088A00015F0CAF818B1017819B1952070BD56209D
:1088B00070BD0121856081854FF6FF71C18503215F
:1088C0000170448321461C3018F034FF00F0BAF9DF
:1088D000002070BD10B50446084615F0ADF818B17B
:1088E000017819B1952010BD562010BD1D2184605E
:1088F000017000F0A7F9002010BD70B506461C46B7
:108900001546084615F098F818B1017819B1952068
:1089100070BD562070BD86608585C4850B210170B1
:1089200000F090F9002070BD10B50C4615F050F81D
:1089300010B1017E012903D017202080952010BDA1
:10894000C08A2080002010BD10B5002101700446AF
:1089500081890448FCF7FAFA04F16000BDE8104090
:10896000FEF7C8B86832020070B5042817D1107835
:10897000052810D1B2F80350284600F095FC0400F9
:1089800009D01F2100F04DF90549002041F82500CC
:108990002046FDF7B3FFBDE8704000F053B970BD4D
:1089A00058690020074910B50020087008310648B2
:1089B0004860084601F0AAFEBDE810400348FDF7F4
:1089C00081B80000E80000206989000021820000D1
:1089D00010B514F0FDFF002802D0007808B1002087
:1089E00010BD012010BD70B504461D460E46104650
:1089F00000F05AFC002807D0666025812146BDE8BA
:108A00007040001DFDF714BF70BD2DE9F041064612
:108A1000DDE906781C461546084615F00DF820B12C
:108A2000017821B19520BDE8F0815620FBE78660F2
:108A30000587878744873121C0F84080017000F0A6
:108A400001F90020EFE7000001490120087070479C
:108A5000E800002070B505461446084614F0ECFF07
:108A600018B1017819B1952070BD562070BD856090
:108A700004872721017000F0E5F8002070BD002375
:108A8000AFF3008070B506461C461546084614F044
:108A9000D3FF18B1017819B1952070BD562070BD73
:108AA0008660058744872921017000F0CBF80020FB
:108AB00070BD0023AFF3008070B506461C46154616
:108AC000084614F0B9FF18B1017819B1952070BDAE
:108AD000562070BD8660058744871121017000F023
:108AE000B1F8002070BD70B506461D461446084614
:108AF00014F0A2FF18B1017819B1952070BD56206D
:108B000070BD8660A0F8444015218564017000F0B6
:108B100099F8002070BD70B505461446084614F05B
:108B20008BFF18B1017819B1952070BD562070BD2A
:108B300085600487002141870F21017000F082F8D1
:108B4000002070BD2DE9F04107461D461646084637
:108B5000DDF8188014F070FF040004D0207820B1F4
:108B60009520BDE8F0815620FBE7A760A685E58546
:108B700026866586002060831022414604F11C0091
:108B8000FBF762FC1320207000F05CF80020E8E79F
:108B90002DE9F04107461D4616460846DDF81880C7
:108BA00014F04AFF040004D0207820B19520BDE8DD
:108BB000F0815620FBE7A760A685E58526866586B9
:108BC000A4F81A80414604F11C0018F0B3FD1320EC
:108BD000207000F037F80020E9E700000149486004
:108BE00070470000E80000202DE9F04106461C46D1
:108BF00015460846069F14F01FFF20B1017821B1E9
:108C00009520BDE8F0815620FBE7866005878487C4
:108C1000002141871B210764017000F013F8002038
:108C2000EFE770B5044600780D46002808D02046CE
:108C3000FFF78AFE29462046BDE87040FEF7DEB900
:108C400070BD00002DE9F04F002689B04FF01E09DD
:108C50004FF0040A4FF0020B37464FF00808CC489B
:108C600050F82640002C79D0A089FCF725FF90B160
:108C70002278217EC7A0FCF769F994F8510080B1F1
:108C800084F85170A08901238DF80890009702AAFA
:108C90000421019792E0A08909B0BDE8F04FFCF7EC
:108CA0000EBF2078172801D02B2818D1204614F0A9
:108CB000E9FCA18FC01E884211DA204614F0E2FCC4
:108CC0000246A18FC1A0FCF741F92046FFF73CFE08
:108CD00009B02046BDE8F04F0D21FEF78FB9606D59
:108CE00004F058F905462178C3A0FCF72FF9207845
:108CF000362833D2DFE800F09E1B9E259E469E4913
:108D00009E519E659E719E759E779E799EA39EB68E
:108D10009EB89EBC9EBE9EC19EC39ECB9EED9ED322
:108D20009EDD9EE59EFE9EFC9EBA9EFB9EFA84F80A
:108D300000B0E08D0090A38DA2894FF42051102047
:108D400048E084F800A0608B4FF4205538B1ADF8AE
:108D50001C00E18D07AA8DE806080AE06AE003A975
:108D600004F11C0015F0C2FCE08D102203A98DE86F
:108D70000700A38DA28929460620FCF7CBFF09B086
:108D8000BDE8F08F0620207001E084F8008009B073
:108D90002046BDE8F04F15F076BD84F80080A58927
:108DA000A18DE08D8DF808A0ADF80910ADF80B008D
:108DB0000097052302AA04212846019703F040FFEB
:108DC000DDE70C202070E08D0090A38DA28942F693
:108DD00002010820FDF7EBF9D1E70E202070228E6A
:108DE00060E010205CE0122064E014202070618BB1
:108DF000204639B1C28D0092838DA2890820FDF7EB
:108E0000D6F917E000F11C028489818DC08D8DF8A0
:108E10000880ADF80910ADF80B000DF10D011046FA
:108E200015F064FC0097152302AA0421204601973F
:108E300003F006FF761C082EFFF411AF9FE7162003
:108E40002070A089B4F844200E23A16C8DF808305E
:108E50004FF6FF7303EA4202CDE90012012302AA92
:108E60000421E5E718202DE01A2044E0322042E0FA
:108E70001C2040E084F8009046E0202000E0222002
:108E8000207009B02046BDE8F04F15F0F7BC242053
:108E9000207009B02046BDE8F04F15F034BD282001
:108EA0002070228FA18909B00A20BDE8F04FFDF79C
:108EB00093B92A20207009B02046BDE8F04F15F084
:108EC0000DBD2C20207009B02046BDE8F04F15F0F4
:108ED00025BD2620207004F14E000090B4F84C20EF
:108EE000A18902231220FDF7C5FB48E726E011E027
:108EF00008E0FFE72E20207009B02046BDE8F04FC3
:108F000015F0D1BC3020207009B02046BDE8F04FEC
:108F100015F0C4BC16F018F800288FD0342020704B
:108F2000A86D216C01AB0091394A15C3A38F228F24
:108F3000D22105F1480016F011F820E73620207004
:108F4000A96DB4F80C90228FB4F83C80D223266C23
:108F50008DF81030ADF81120059104F158000DF195
:108F6000140A06A915F0CEFB0C20CDE902A0CDE92C
:108F70000068032304AA0421484603F0A9FE2770D1
:108F80002046FFF7E1FCA86D401CA865F7E600004D
:108F9000586900202D2068616E646C655F70657291
:108FA0006970686572616C5F6C6973742C206D7494
:108FB000752073746174652025752C20636C696558
:108FC0006E74207374617465202575006761747414
:108FD0005F636C69656E745F72756E3A2076616C62
:108FE0007565206C656E202575203E204D545520FA
:108FF0002575202D20330A00676174745F636C69E6
:10900000656E745F737461746520257500000000DF
:10901000D56500002DE9F04707461D4616468946EE
:109020000846DDF8208014F0D3FC0446007850B9DF
:10903000484616F077FD014660650AA0FBF786FFFB
:10904000606D002802DA9520BDE8F087A7602687CA
:10905000A5873320C4F840802070FFF7F3FD00207F
:10906000F2E700006C655F6465766963655F6B6558
:1090700079206973203A307825780A0070B50A4E55
:109080000546002456F82400A84207D1A98907A064
:10909000FBF75CFF7F212846FFF7C3FD641CA4B2E9
:1090A000082CEFD370BD000058690020474154548C
:1090B00020636C69656E742074696D656F757420CA
:1090C00068616E646C652C2068616E646C6520302C
:1090D00078253032780000002DE9F04106461C4624
:1090E00015460846069F14F0A7FC20B1017821B16F
:1090F0009520BDE8F0815620FBE7866005878487D0
:10910000002141872B2107640170FFF79BFD0020A0
:10911000EFE770B506461D461446084614F08CFC71
:1091200018B1017819B1952070BD562070BDE907BE
:1091300004D0A179C90601D4982070BDA90704D52F
:10914000A179890601D4992070BD866061888185E6
:10915000A188C185A0F84E5023210170FFF772FD50
:10916000002070BD1CB5049CCDE90034002300F044
:1091700001F81CBD2DE9F0410646DDE906781C46E4
:109180001546084614F058FC20B1017821B195200D
:10919000BDE8F0815620FBE7866005878787448716
:1091A0002D21C0F840800170FFF74CFD0020EFE753
:1091B0001CB5049CCDE90034002300F001F81CBD6F
:1091C0002DE9F0410646DDE906781C4615460846BD
:1091D00014F032FC20B1017821B19520BDE8F08176
:1091E0005620FBE786600587878744871921C0F8EA
:1091F00040800170FFF726FD0020EFE72DE9F041E8
:1092000006461C4615460846069F14F015FC20B17C
:10921000017821B19520BDE8F0815620FBE78660FA
:1092200005878487172107640170FFF70BFD002075
:10923000F1E7F8B51E4615460F4614F0C9FB0400C9
:1092400003D0207818B19520F8BD5620F8BD2046EF
:1092500014F018FAC01EA84201DA9720F8BD009653
:10926000A1892B463A465220FDF704FAC0B2F8BD58
:10927000F0B5002423460125C65C002205FA02F75A
:109280003E4207D08C4203D102EBC300C0B2F0BD16
:10929000641CA4B2521CD2B2082AEFD35B1CDBB20E
:1092A000052BE9D3FF20F0BD082803D2024951F86D
:1092B0002000704700207047586900204278891AC2
:1092C0000844B0F8030070472DE9FC41164C1827FC
:1092D0001E46D4F808C0BCF1000F11D04978D9B1AE
:1092E0002178002579B1FCF789FB23786288257005
:1092F000658002B039463046BDE8F04115F046BB06
:1093000003230022F5E7002300950195B0F806013C
:1093100002221946E04701E0FCF770FB192030708B
:109320000120BDE8FC810000A40000202DE9FF4FD2
:1093300087B01D46DDE914738946824600264FF04A
:10934000060B0124B0463A4629463448FBF7FAFD9D
:10935000DDE9161013F060FABD4204D81DB1DAF849
:109360002401009046E0012351E06846FCF700FE2E
:10937000BDF8080008B1A8423CD3B8423DD8CEB1F0
:1093800058B14FF420516846FCF73BFE28B942F62D
:1093900001016846FCF735FE60B1414620A0FBF7AD
:1093A000D1FD29F80480A41CA4B209990026201D2F
:1093B000884222D8BDF808005FEA00081AD0684643
:1093C0001599FCF71EFEA8B1BDF810201698824230
:1093D00010D105991798FBF770F858B9BDF8081027
:1093E00016A0FBF7AFFDBDF8081029F80410A41C67
:1093F000A4B2012600980028B7D1012C06D007217D
:1094000089F8001020460BB0BDE8F08F0A232A46E9
:109410005946484615F0BAFAF5E70000BC3002009C
:10942000456E64206F662067726F75702C206861CE
:109430006E646C6520307825303478004265676949
:109440006E206F662067726F75702C2068616E6485
:109450006C65203078253034780000002DE9F04F1D
:1094600087B09346109F884681461E464FF0040AF7
:10947000012400253A46194628A0FBF763FDBE42A9
:1094800004D81EB1D9F82401009033E001233EE056
:109490006846FCF76DFDBDF8080070B3B8422CD8E3
:1094A000B04227D3BDF80610880501D5102000E092
:1094B0000220012C02D9A84221D109E008D1054699
:1094C000880501D5022100E0012188F8011002245D
:1094D0006019801C584510D8BDF8081028F80410F1
:1094E000A41CA4B208EB04002A460399FAF7ACFFC7
:1094F000601984B200980028CAD1012C06D005203A
:1095000088F80000204607B0BDE8F08F0A233246F5
:109510005146404615F03AFAF5E700004154545FD1
:1095200046494E445F494E464F524D4154494F4E75
:109530005F524551554553543A2066726F6D202550
:1095400030345820746F2025303458002DE9F04F06
:109550002C4C8346B1F80150B1F803A0A06889B043
:10956000984691460E46162758B12A4602A95846F3
:10957000FCF7E7FB38B1BDF80E00010701D5C005C7
:1095800003D403231DE001231BE002A95846FDF785
:109590003FF808B1034614E0A9F10500711D80B23F
:1095A000CDE90010D4F808C0BBF8060153460122EB
:1095B0002946E04710F0FF0319D0072B09D00D2BE7
:1095C00007D02A463946404615F0E0F909B0BDE813
:1095D000F08F0D2B02D0072B06D008E020780D2845
:1095E00005D02370658002E020780028F9D04A4633
:1095F00031464046FAF728FF172188F80010484600
:10960000E4E70000A40000202DE9F04387B01646EF
:109610000E9D0C46074699464FF00C082A461946FF
:1096200021A0FBF78FFC4A4601A93846FCF789FBCD
:1096300028B1BDF80A00800703D4022307E0012304
:1096400005E001A93846FCF7E3FF030007D04A46CE
:109650004146204615F09AF907B0BDE8F083B7F807
:10966000061101A8FCF7BEFFBDF81400A84201D204
:109670000723ECE7401C401BB04203DD7019401E7D
:10968000ADF81400B7F806010090BDF81400621C94
:10969000401B83B2294601A8FCF7ECF9401C0D21C0
:1096A00080B22170D8E700004154545F52454144D4
:1096B0005F424C4F425F524551554553543A2068E2
:1096C000616E646C6520253034782C206F6666737B
:1096D00065742025750000002DE9FF4F89B0002436
:1096E000DDF858901020CDE906041E468A46012573
:1096F000A0460894A3464A46314645480B9BFBF7D3
:1097000021FCDDE9171013F087F84E4513D896B108
:10971000DDE91707022810D0384601F095FF40B167
:10972000B7F80C004FF42057B84208D0791C884293
:1097300005D0102366E0012364E03888F2E7099839
:10974000D0F82401009050E06846FCF711FCBDF809
:10975000080008B1B04248D3484549D8B8F1000FD5
:1097600023D050B139466846FCF74BFC28B942F685
:1097700001016846FCF745FCB8B108992AF80510C4
:10978000AD1CA8B22AF800B0801C85B20AEB050017
:10979000221F0799FAF758FE2819001F85B20B9867
:1097A00029194FF00008814222D8BDF808005FEA6D
:1097B000000B1AD0DDE917216846FCF7FDFBA0B1CC
:1097C000BDF81000001D80B2012D02D9A04211D1B8
:1097D00004E003D104468AF801000225BDF8080020
:1097E000089005984FF00108079000980028ABD129
:1097F000012D06D011208AF8000028460DB0BDE8E2
:10980000F08F0A2332465046069915F0BFF8F5E767
:10981000043102002DE9FF4F87B08846149F81462E
:109820004FF0000A1D464FF0080B012456463A46F9
:1098300019463FA0FBF786FBDDE9151012F0ECFF9F
:10984000BD4204D81DB1D9F82401019058E001238C
:1098500062E001A8FCF78CFBBDF80C00E8B3A8425D
:109860004ED3B8424FD8DDE9152101A8FCF7A4FB7F
:10987000A0B3BDF80A00800703D47EBBBDF80C601E
:109880003EE001A94846FCF7C3FE030002D0012CCC
:109890003BD841E0B9F8061101A8FCF7A3FEBDF8DA
:1098A0001400801C80B2012C02D982452DD104E025
:1098B00003D1824688F801000224099804EB0A01CA
:1098C000814207D9022C20D8001FADF81400801C5B
:1098D00088F80100BDF80C1001E014E010E028F851
:1098E0000410B9F80601A41C0090A4B2BDF814300D
:1098F00008EB0402002101A8FCF7BCF8204484B264
:1099000001980028A5D1012C08D9092188F8001058
:1099100020460BB0BDE8F08F2A4602E036B10223A4
:1099200032465946404615F031F8F2E70A23F3E78C
:109930004154545F524541445F42595F5459504528
:109940005F524551554553543A2066726F6D20253C
:1099500030345820746F20253034582C207479709E
:10996000653A20002DE9FF4F87B0884683461F46A1
:109970004FF00E090124194624A0DDF850A0FBF792
:10998000E1FA00253BE000BF3AF815605EB13246CF
:1099900001A95846FCF7D5F928B1BDF80A0080079F
:1099A00003D4022307E0012305E001A95846FCF790
:1099B0002FFE030007D032464946404614F0E6FF2A
:1099C0000BB0BDE8F08FBBF8061101A8FCF70AFE4A
:1099D000BDF8140001190998814202D9401EADF862
:1099E0001400BBF806010090BDF8143008EB040227
:1099F000002101A8FCF73EF8204484B26D1CBD4252
:109A0000C2DB0F2188F800102046D9E74154545F8B
:109A1000524541445F4D554C5449504C455F524569
:109A200051554553543A206E756D2068616E646CD3
:109A300065732025750000002DE9F04387B01546B9
:109A40000C46064699464FF00A081A4601A9FCF74B
:109A500078F9074649461BA0FBF774FA2FB1BDF809
:109A60000A00800703D4022307E0012305E001A9CF
:109A70003046FCF7CDFD030007D04A46414620465C
:109A800014F084FF07B0BDE8F083B6F8061101A812
:109A9000FCF7A8FDBDF81400401CA84202D96D1EB9
:109AA000ADF81450B6F806010090BDF81430621CF1
:109AB000002101A8FBF7DEFF401C0B2180B22170C2
:109AC000E0E700004154545F524541445F52455124
:109AD000554553543A2068616E646C6520253034D6
