:020000040002F8
:10600000000000001D600200DFF80CD000F012F864
:106010000048004725600200749A002001B503483B
:10602000004700000248804701BD000035600200C3
:10603000F17B0200064C074D06E0E06840F00103EA
:1060400094E8070098471034AC42F6D3FFF7E0FF1E
:1060500098C10200B8C102002DE9F05F054600209A
:1060600092469B4688460646814640241BE02846C9
:1060700041464746224600F0EEF953465A46C01ABA
:10608000914110D311461846224600F0D5F92D1A39
:1060900067EB01084F4622460120002100F0CCF9B1
:1060A00017EB00094E41201EA4F10104DFDC484635
:1060B00031462A464346BDE8F09F000038B5D0E996
:1060C0000221491E01EB410102EBC1014268C1EB13
:1060D000011102EB81010268C1EB011102EB8102A7
:1060E000D0E9043101EB410103EB81013023A1F53B
:1060F000527191FBF3F4174D6C4302EBC41291FB08
:10610000F3F403FB141100921A2902DB124B1A4418
:1061100000920C2291FBF2F3104C6343009C04EBC1
:10612000C313009391FBF2F302FB13110C4A08E036
:10613000491E40F2A324535C6343009C04EBC31349
:1061400000930029F4DC0146684600F0ADF90098A0
:1061500038BD00003F0C0F008051010067C20300F2
:10616000B8C0020040EA01039B0703D009E008C958
:10617000121F08C0042AFAD203E011F8013B00F80C
:10618000013B521EF9D27047D2B201E000F8012B58
:10619000491EFBD270470022F6E710B513460A46A7
:1061A00004461946FFF7F0FF204610BD10B504461F
:1061B00004E00B7800F8013B03B1491C521EF8D2F1
:1061C000204610BD10B5002200E0521C835C8C5CA0
:1061D000A34201D1002BF8D1D8B2E1B2401A10BDD0
:1061E0002DE9FE4F804681EA0300C00F0C46009067
:1061F00021F0004123F00045B8EB0200A94105D28F
:106200004046214690461C460B46024623F000407D
:10621000104347D0270DC7F30A00C3F30A51029079
:10622000401A019040286BDAC3F3130040F4801B3E
:106230000098924620B10023D2EB030A63EB0B0BCC
:1062400001985946C0F14002504600F0F5F8064664
:106250000D4650465946019A00F00DF910EB080022
:106260006141002487EA115284EAE7731A4340D05F
:10627000009A62B3019A012A4FEA075215DC001B0B
:1062800061EB02014FF0004202EA0752CDE9004201
:10629000001C41F5801132462B4600F05AF903B03C
:1062A000BDE8F08F40462146F9E7001B61EB020193
:1062B000001C41F5801300185B412018A2F500175F
:1062C00047EB030140EAD570B6196D4111E06D0846
:1062D0004FEA360645EAC0754FEA0752001B61EBEC
:1062E0000201001C41F5801149084FEA30000019F5
:1062F000514132462B4603B0BDE8F04F00F01AB9C9
:106300000098012240000023D0EB020263EBE0730F
:10631000009821464FEAE074B8EB000061EB0401FD
:10632000E9E783F000435BE781F0004158E72DE99E
:10633000F04D81EA030404F0004B21F000451446BF
:106340004FF0000A23F0004150EA050220D054EA41
:1063500001021DD0C5F30A570246C5F31303C1F36A
:106360001300C1F30A5640F4801543F48013A7EBE1
:106370000608101BD64608F2FD3873EB050002D361
:1063800008F1010801E092185B41B8F1000F03DA4F
:1063900000200146BDE8F08D00204FF48011064634
:1063A00084460EE0171B73EB050705D3121B63EB46
:1063B000050306434CEA010C49084FEA30009218E5
:1063C0005B4150EA0107EDD152EA030012D082EAA4
:1063D000040083EA0501084305D0101BAB4106D237
:1063E0000122002306E000224FF0004302E06FF09C
:1063F000010253101AEB06004CEB085110EB0A0097
:1064000041EB0B01BDE8F04D00F094B830B50B4600
:10641000014600202022012409E021FA02F59D42D4
:1064200005D303FA02F5491B04FA02F52844151EA8
:10643000A2F10102F1DC30BD202A04DB203A00FA8F
:1064400002F1002070479140C2F1200320FA03F3CB
:10645000194390407047202A04DB203A21FA02F0C9
:106460000021704721FA02F3D040C2F1200291408E
:10647000084319467047202A06DBCB17203A41FA19
:1064800002F043EAE07306E041FA02F3D040C2F1C1
:10649000200291400843194670470000014900F06E
:1064A00003B80000449A002010B500683C22B0FBFD
:1064B000F2F302FB1303B0FBF2F00B60B0FBF2F35C
:1064C00002FB1303B0FBF2F018224B60B0FBF2F3B7
:1064D00002FB1303B0FBF2F0021D8B600723B2FB3B
:1064E000F3F403FB1422800040F2B55300F66C3045
:1064F0008A61B0FBF3F2B0FBF3F403FB1400443207
:1065000080084A61C8613B2802D3920700D0401C32
:106510000022074C13460A61E25C824203D8801ACB
:106520005B1C0B61F8E7401CC860084610BD00000A
:10653000C4C0020010B5141E73F1000408DA401C38
:1065400041F1000192185B411A4301D120F0010092
:1065500010BD2DE9F04D92469B4611B1B1FA81F282
:1065600002E0B0FA80F220329046FFF765FF044661
:106570000F4640EA0A0041EA0B0153465A460843D7
:1065800013D0114653EA010019D0C8F14002504619
:10659000FFF761FF05460E46504659464246FFF753
:1065A0004BFF084305D0012004E020463946BDE8F2
:1065B000F08D0020054346EAE0762C4337430A98E5
:1065C0006305E40AA0EB08000022FD0A44EA4754F0
:1065D0000A3002D500200146E9E70105101969419A
:1065E000DDE9084500196941BDE8F04DA2E72DE954
:1065F000FE4F81EA030404F0004421F000410094BE
:106600004FF0000B23F0004350EA01045ED052EA41
:1066100003045BD0C3F30A54C1F30A552C44A4F21B
:10662000F3340194A0FB0254C1F3130141F480112F
:10663000C3F3130343F4801301FB024400FB034E36
:10664000840A970A44EA815447EA8357A4FB0768FF
:1066500002958D0A05FB07854FEA932C04FB0C5429
:106660002705029D4FEA065847EA1637B5EB08059D
:106670006EEB070C870E920E47EA811742EA8312EF
:10668000A7FB0201B6EB0B0164EB00042B0D43EA00
:106690000C335E1844EB1C50DA465146E7FB02010E
:1066A000C5F313044FEA0B3343EA14534FEA0432A1
:1066B000019C43EA0603A4F10C040294009CCDE97A
:1066C00000B4FFF746FF03B0BDE8F08F002001469D
:1066D000F9E7C1F30A52C1F3130140F2FF3341F469
:1066E00080119A4202DA00200146704740F233439B
:1066F0009A42A2F2334202DC5242FFF7ACBEFFF7ED
:106700009BBE000030B5041E71F1000404DB4FF0A5
:106710000044404264EB0101141E73F1000405DBE8
:106720001C464FF00043524263EB0403994208BFFA
:10673000904230BD70B58C1810F8015B15F007035E
:1067400001D110F8013B2A1106D110F8012B03E00A
:1067500010F8016B01F8016B5B1EF9D12B0705D412
:106760000023521E0DD401F8013BFAE710F8013B5B
:10677000CB1A921C03E013F8015B01F8015B521E77
:10678000F9D5A142D8D3002070BD00000449096B9F
:1067900021F4004141EAC031014A11637047000011
:1067A0000000074010B5064A126BC31C01249C4030
:1067B000A24301FA03F31A43014B1A6310BD000010
:1067C0000000074000B50146F1B11A48006820F00A
:1067D0000300C01C174A943AC2F8940000BF01F0AD
:1067E0009BF90328FBD11348006820F00400114AEC
:1067F000943AC2F894001048006B20F07C4040F0BE
:1068000080400D4A106314E00A48006820F003003D
:10681000084A943AC2F8940000BF01F07DF90028BC
:10682000FBD10448006840F00400024A943AC2F8E0
:10683000940000BD9400044000000740014600227F
:10684000082923D2DFE801F004080C0F13171A1EE1
:106850001048406B020A19E00E48406B820C15E0AC
:106860000C48826B12E00B48806B820A0EE00948EC
:10687000806B020D0AE00748C26B07E00548C06B59
:10688000820A03E00348C06B020D00BF00BFC2F3E1
:1068900009007047000007400548006B20F0807039
:1068A000034908630846006B40F080700863704736
:1068B000000007400349096B60F30201014A1163BC
:1068C00070470000000007400449096B21F0007187
:1068D00041EA4061014A116370470000000007402F
:1068E00010B5094B1B68012B01D1772300E04F2322
:1068F0001A4604E0002100E0491C9142FCD3031E2B
:10690000A0F10100F6D110BD8081002010B50A4B26
:106910001B68012B02D142F6746301E041F6FA6371
:106920001A4604E0002100E0491C9142FCD3031EFA
:10693000A0F10100F6D110BD808100204FF4C830D5
:106940004FF4442188607047022001490860704775
:106950000010044000200149086070470010044006
:1069600001200549086000BF0448C068C0F300105A
:106970000028F9D1704700000010044000000740D3
:1069800070B504460D4625600120FFF7A9FF00BF42
:106990000348C06A00F001000028F9D170BD000072
:1069A0000000074000204FF44421C86070470220D7
:1069B0004FF44421C860704710B50446074820448E
:1069C0004FF4442148600120FFF7A0FF00BF0448B6
:1069D000C06AC0F340000028F9D110BD00006584F2
:1069E0000000074070B505460C461646324629465B
:1069F000084800F011F804F001022946054820304B
:106A000000F00AF8621029460248103000F004F83D
:106A100070BD00005000004030B5012404FA01F3BD
:106A200004689C4302FA01F52C43046030BD014622
:106A30004FF080400068C84000F00100704700003F
:106A400070B505460C46224629460548FFF7E4FF87
:106A50002CB9002229464FF04020FFF7DDFF70BD22
:106A60002000004070B504460D4616460DB10120C9
:106A700000E00020024621460648FFF7CDFF0EB990
:106A8000012000E000200246214602480830FFF7BE
:106A9000C3FF70BD1040004070B504460D462A4645
:106AA00021460248FFF7B8FF70BD0000100000400B
:106AB0000146C81F0D2818D2DFE800F00709170BA0
:106AC0000D171717170F111315000020704701201D
:106AD000FCE70220FAE70320F8E70420F6E70520A8
:106AE000F4E70620F2E70720F0E74FF0FF30EDE78C
:106AF00070B5064D43193F2505FA01F41D68A543FD
:106B000002FA01F635431D6070BD00000000074029
:106B100070B504460D460CB9002000E01220014675
:106B20002A465420FFF7E4FF70BD00002DE9F04134
:106B300004460F461646984627B1012F1AD0022F59
:106B40004ED138E00B2C06DC274801680122A24018
:106B50009143016000BF2046FFF7AAFF0546002DC4
:106B600007DB2148203001680122AA4091430160DF
:106B700000BF35E00B2C1DDC1B4802680123A3403D
:106B80001A430260072C04DC17481830A206110EC5
:106B900004E015481C30E21F9206110E02680F2314
:106BA0008B409A430260026808EB46038B401A430D
:106BB000026000BF14E02046FFF77AFF0546002D73
:106BC0000DDB0948203002680121A9400A43026018
:106BD000054802680121A1408A43026000BF00BF4E
:106BE00000BFBDE8F08100006800074030B5C41068
:106BF000064D05EB84024407E30E14680F259D4003
:106C0000AC4301FA03F52C43146030BD4400074047
:106C100010B50246064829B1036801249440234375
:106C2000036004E0036801249440A343036010BDA3
:106C30006800074070B504460D4601232A462146E8
:106C40000C2000F043F870BD70B504460D460123DA
:106C50002A462146042000F039F870BD30B5044CB6
:106C6000402505FB0044083404EB81031A6030BD65
:106C70002010014070B504460D46164645EA460010
:106C8000C2B202232146002000F020F870BD70B58A
:106C900004460D4603232A462146142000F016F828
:106CA00070BD70B504460D4602232A4621461020C9
:106CB00000F00CF870BD000010B5034B402404FB3D
:106CC0000032116010BD000020100140F0B5094EE7
:106CD000841901269E40761E01FB03F706FA07F58C
:106CE0002668AE4301FB03F702FA07F73E4326602E
:106CF000F0BD000000100140014908687047000025
:106D0000680104401CB5FFF7F7FF009000F00EF893
:106D10000190FFF7F1FF03460098984203D900F075
:106D200005F801900093DDE900011CBD02490A68E5
:106D3000C2F3CF10704700003001044001460648FE
:106D4000082219B9036823F0080302E0036843F03E
:106D5000080303607047000030010440024949689D
:106D60000143014A516070470000074001607047CD
:106D70000FB4054B10B503A9044A029800F006FBB6
:106D800010BC5DF814FB000005B20200C4820020B4
:106D90000FB4054B10B503A9044A029800F0EEF8B1
:106DA00010BC5DF814FB000005B20200C482002094
:106DB0000FB4084B10B504A902AA039800F0DEF83E
:106DC000044602A9002000F0A1FE204610BC5DF898
:106DD00014FB00000D7B020002E008C8121F08C16E
:106DE000002AFAD170477047002001E001C1121F4C
:106DF000002AFBD1704700002DE9FF5F82B000211F
:106E0000DDE90430020DDDF840B0034318D044F64C
:106E10001050A2F2FF3242431514119801281FD0DE
:106E2000A5EB0B00401C5FEA000A4FF000064E4F36
:106E3000DFF83891B046504615D5CAF1000413E08A
:106E4000119801244AA3012801D16FEA0B0102988D
:106E5000119AC0E90031C0E9024206B0BDE8F09FD6
:106E6000CBF10000DFE704460021404A491842EB1D
:106E70000450CDE9001012E0E00707D032463B464F
:106E800040464946FFF7B3FB8046894632463B46BB
:106E900010461946FFF7ABFB06460F466410002C60
:106EA000EAD1DDE90401DDE90023BAF1000F06DAD9
:106EB000FFF79DFB42464B46FFF799FB05E0FFF7C6
:106EC00036FA42464B46FFF732FA04460E46002297
:106ED000284BFFF717FC03D84FF0FF30014607E0BF
:106EE0000022254B20463146FFF77AF9FFF7F1FBE8
:106EF000102409E0002C0ADB0A220023FFF7ACF87B
:106F0000039B30321A55641E50EA0102F2D1641C10
:106F1000039AC4F111031444119A012A03D00122E7
:106F200008430DD10AE0084304D000204FF0110BB4
:106F3000119072E7A3EB0B056D1E0DE05B4504DDC0
:106F40004FF0000205F1010504E003DA4FF0000202
:106F5000A5F10105002AECD002981199C0E902318F
:106F6000C0E9004579E70000000014400000F03F50
:106F7000300000000000F0430000E03F2DE9FF4F2B
:106F80008DB00F460546002606E025280BD0DDE92A
:106F90000F1290476D1C761C28780028F5D111B08F
:106FA0003046BDE8F08F0024A246A1460122EC49FC
:106FB00000E0044315F8013F203B02FA03F00842C9
:106FC000F7D128782A2810D06FF02F022878A0F166
:106FD0003001092914D80AEB8A0102EB410144F07F
:106FE000020400EB010A6D1CF0E701CF5FEA000A22
:106FF00003D544F40054CAF1000A44F002046D1CA5
:1070000028782E2817D115F8010F44F004042A28F7
:107010000ED06FF02F022878A0F1300109290AD88C
:1070200009EB890102EB410100EB01096D1CF2E75C
:1070300057F8049B6D1C28786C280FD006DC4C2870
:1070400017D068280DD06A2814D104E0742810D015
:107050007A280FD10DE044F400140AE044F48014BF
:1070600001E044F440146978814202D104F58014AF
:107070006D1C6D1C2A786E2A1FD00CDC632A31D05F
:1070800004DC002A8BD0582A11D1A3E0642A68D0EE
:10709000692A0CD165E0732A2ED004DC6F2A73D0E4
:1070A000702A04D19BE0752A6FD0782A6ED01046E2
:1070B000DDE90F129047761C50E1C4F3025002281C
:1070C00006D0032809D0042801CF09D0066045E185
:1070D00001CFF117C0E9006140E101CF06803DE139
:1070E00006703BE117F8040B8DF8000000208DF8C6
:1070F0000100EB46012003E057F804BB4FF0FF30DE
:1071000061074FF0000102D40DE008F1010188464B
:1071100049450FDA8045F8DB1BF808100029F4D147
:1071200008E008F1010188468142FADB1BF80810EB
:107130000029F6D1DDE90F23AAEB0800814621469C
:1071400000F0B6FC304400EB080604E0DDE90F1265
:107150001BF8010B9047B8F10108F7D221464846C9
:10716000F7E00A21C4F302534FF0000B0891022B01
:1071700004D001CFC117032B09D00AE0FF1D27F06F
:107180000707F7E8020108E032E01FE020E000B264
:10719000C117042B01D140B2C117031E71F10003C6
:1071A00007DA4FF0000CD0EB0C006CEB01012D2343
:1071B00002E0230504D52B238DF82430012303E0BE
:1071C000E30701D02023F7E7984658E00A2110E0B2
:1071D00010210EE010204FF0000B08900CE0102161
:1071E0004FF0000B44F004044FF00809089103E04D
:1071F00008214FF0000B0891C4F30253022B04D076
:1072000001CF0021032B06D006E0FF1D27F0070762
:10721000F7E8020103E080B2042B00D1C0B24FF0C6
:10722000000823072BD5702A07D0DDF820C08CF08A
:10723000100C5CEA0B0C05D00EE040238DF82430D6
:10724000012308E050EA010306D030238DF82430F2
:107250008DF8252002239846DDF820C08CF0080C1C
:107260005CEA0B0C0BD150EA010301D1630706D590
:1072700030238DF824304FF00108A9F10109582A74
:1072800004D038A20B9208AA0A920BE03AA2F9E7BE
:107290005B46089AFEF7E0FE0B9B9B5C0A9A521E27
:1072A0000A92137050EA0102F2D10A98ADEB000085
:1072B00000F1200B600702D524F4803401E04FF088
:1072C0000109D94502DDA9EB0B0000E0002000EB2D
:1072D0000B0141440890AAEB010AE00306D4DDE962
:1072E0000F232146504600F0E3FB06444FF000090F
:1072F00008E009A911F80900DDE90F12904709F12A
:107300000109761CC145F4DBE0030CD5DDE90F2350
:107310002146504600F0CCFB064404E0DDE90F12A4
:1073200030209047761C0899481E08900029F5DC0B
:1073300008E00A980A990078491C0A91DDE90F12C1
:107340009047761CBBF10001ABF1010BF1DC21464B
:107350005046DDE90F2300F087FB06446D1C1BE659
:10736000092801003031323334353637383961621B
:1073700063646566000000003031323334353637DF
:107380003839414243444546000000002DE9FF4F93
:1073900095B09B468946064600250FE2252877D101
:1073A00000242746F84A0121059400E0044316F81A
:1073B000013F203B01FA03F01042F7D130782A2830
:1073C00011D06FF02F033078A0F13002092A16D8BF
:1073D000059A44F0020402EB820203EB42021044DD
:1073E000761C0590EFE759F8042B0592002A03DA82
:1073F000504244F40054059044F00204761C307866
:107400002E2816D116F8010F44F004042A280DD0B6
:107410006FF02F023078A0F13003092B09D807EB69
:10742000870302EB4303C718761CF3E759F8047B84
:10743000761C30786C280FD006DC4C2817D06828D2
:107440000DD06A2814D104E0742810D07A280FD106
:107450000DE044F400140AE044F4801401E044F424
:1074600040147278824202D104F58014761C761C96
:10747000307866280BD013DC582877D009DC002838
:1074800075D04528F6D04628F4D047281AD19DE17A
:1074900018E0632835D0642879D0652812D195E1A9
:1074A000702873D008DC6728F1D069286FD06E2867
:1074B0000DD06F2806D1B5E073282CD0752875D073
:1074C000782874D05A46179990476D1C75E1C4F31B
:1074D0000250022809D003280DD0D9F80010042842
:1074E0000DD00D6009F1040967E1D9F80010EA1721
:1074F000C1E90052F6E7D9F800100D80F2E70D70EF
:10750000F0E719F8041B8DF8001000208DF8010039
:10751000EA46012003E059F804AB4FF0FF30610761
:107520004FF0000102D40DE008F101018846B94294
:107530000FDA8045F8DB1AF808100029F4D108E0CA
:1075400008F1010188468142FADB1AF80810002987
:10755000F6D105985B46A0EB080721463846179AF6
:1075600000F0BDFA284400EB080507E04DE029E1F2
:107570000DE01AF8010B5A4617999047B8F1010827
:10758000F7D25B4621463846179A13E142E00A22B9
:107590000092C4F302524FF0000A022A08D059F8B0
:1075A00004CB032A4FEAEC710AD00DE029E02AE06F
:1075B00009F1070121F00702F2E802C1914609E052
:1075C0000FFA8CFC4FEAEC71042A03D14FFA8CFCC1
:1075D0004FEAEC71002907DA0A460021DCF1000CC1
:1075E00061EB02012D2202E0220504D52B228DF849
:1075F0000420012203E0E20701D02022F7E79046B1
:1076000059E00A2102E010220DE010214FF0000A9B
:1076100000910BE010224FF0000A44F00404082708
:10762000009203E008224FF0000A0092C4F30252D5
:10763000022A05D059F804CB0021032A08D009E01A
:1076400009F1070121F00702F2E802C1914605E0C5
:107650001FFA8CFC042A01D10CF0FF0C4FF000083B
:10766000220728D5702806D0009B83F0100353EA28
:107670000A0305D00EE040228DF80420012208E024
:107680005CEA010206D030228DF804208DF8050056
:1076900002229046009B83F0080353EA0A030AD1B2
:1076A0005CEA010201D1620705D530228DF8042081
:1076B0004FF001087F1E582804D034A003900EA874
:1076C00002900DE036A0F9E753466046009AFEF7B7
:1076D000C3FC84460398825C0298401E02900270AC
:1076E0005CEA0100F0D1029806A9081A00F1200A0C
:1076F000600702D524F4803400E00127574502DDFD
:10770000A7EB0A0000E0002000EB0A0100900598BA
:107710004144401A0590E00306D45B462146179A7F
:10772000059800F0DCF90544002706E001A85A4658
:10773000C05D179990476D1C7F1C4745F6DBE00341
:107740000CD55B462146179A059800F0C8F9054408
:1077500004E030205A46179990476D1C0099481E46
:1077600000900029F5DC08E0029802995A4600785A
:10777000491C0291179990476D1CBAF10001AAF1BA
:10778000010AF1DC65E100000928010030313233E3
:10779000343536373839616263646566000000004D
:1077A0003031323334353637383941424344454637
:1077B0000000000000F06AF90544761C30780028CB
:1077C0007FF4ECAD19B02846BDE8F08F620700D415
:1077D000062709F1070222F0070CFCE80223E14624
:1077E00003F000485FEA080C02D00FF2702C0DE0A5
:1077F0005FEA045C02D50FF2682C07E05FEAC47C04
:1078000002D00FF2602C01E0AFF2700C4FF0FF38A5
:1078100023F00043CDF850C065280CD006DC452885
:1078200009D046281DD047283DD13DE0662818D014
:1078300067287ED138E00021112F01DB112000E004
:10784000781CCDE9000106A90EA8FFF7D5FADDE9FD
:107850000F010E9A03910021009207F1010A049191
:107860004DE04FF000400097CDE9011006A90EA8A9
:10787000FFF7C2FADDE90F0203920E9B1199002275
:10788000DDF80CA00093049211B9791C00EB010AF9
:10789000B7EB0A0004D4C0F1FF3007F1010A0490ED
:1078A000AAEB0700019044E0012F00DA0127002134
:1078B000112F01DD112000E03846CDE9000106A9B5
:1078C0000EA8FFF799FADDE90F010E9A0391002146
:1078D00004910092BA4621070CD40399514500DA6D
:1078E0008A46BAF1010F05DD009AAAF10101515C47
:1078F000302908D0B84202DA10F1040F06DA01216B
:10790000CDE9011015E0AAF10101E9E7002805DC45
:10791000049901440491AAEB000102E0411C514585
:1079200000DD8A460499401A401C01904FF0004047
:107930000290200704D40198504501DBCDF8048063
:1079400000208DF84F0002980DF14F07B0F1004F65
:1079500025D02B200E9002984FF0020800280CDA58
:10796000404202902D200E9007E00A210298FEF777
:107970004DFD3031029007F8011DB8F10001A8F16A
:107980000108F2DC02980028EFD1791E0E980870E9
:10799000307800F0200040F0450007F8020D12A8F2
:1079A000C01B00F107081498007800B1012000EB1B
:1079B0000A01019801EBE07105984144401A401E0C
:1079C0000590E00306D45B462146179A059800F01F
:1079D00086F805441498007818B15A4617999047CC
:1079E0006D1CE00324D55B462146179A059800F0EC
:1079F00076F805441CE00498002807DBDDE9030164
:107A0000884203DD0098405C179901E01799302007
:107A10005A469047049805F10105401C04900198CE
:107A2000401E019004D12E205A46179990476D1C94
:107A3000BAF10001AAF1010ADDDC05E017F8010B3B
:107A40005A46179990476D1CB8F10001A8F101083A
:107A5000F4DC5B462146179A0598ABE62D00000042
:107A60002B000000200000002DE9F0410446002515
:107A70001E461746880404D405E039462020B04746
:107A80006D1C641EF9D52846BDE8F0812DE9F04152
:107A9000044600251E461746880404D405E03946EE
:107AA0002020B0476D1C641EF9D52846BDE8F08142
:107AB0002DE9F041044600251E469046C80301D535
:107AC000302700E02027880404D505E041463846E9
:107AD000B0476D1C641EF9D52846BDE8F0812DE93C
:107AE000F041044600251E469046C80301D53027C4
:107AF00000E02027880404D505E041463846B04719
:107B00006D1C641EF9D52846BDE8F0810A68531C37
:107B10000B6010707047000002480068C0F3C1009D
:107B2000704700008800044070B50B461446DE0024
:107B3000B6FBF4F2D109A2EBC112561C75084162E2
:107B4000B1F5803F00D209B900BFFEE74FF6FF76DE
:107B5000B14202D10026866201E0521A8562C66AED
:107B6000C66270BD01468869C0F3001070470146C7
:107B70008869C0F3401070470146C86B704770B504
:107B800005460C461646002028636864A8636860B2
:107B90006862A862E8622846D4E90312FFF7C4FFCE
:107BA0006078C0F38000C001217840EA4110A178DC
:107BB00040EA0110E17840EAC100617801F0030178
:107BC00040EA4100E862A07A617A40EA01206863F5
:107BD000AE6320794002617940EA0120A17908432F
:107BE000E17940EAC130217A40EA8130286370BDF2
:107BF00038B50024002218491046F5F711FE01217E
:107C00000520F5F74FFD1548F9F712FA04F03CF896
:107C100000F05CF903F040FA03F02CF80022104960
:107C20000120F5F7FDFD0F48002301224FF47A7182
:107C300000900DA0FBF724F90446FAF775FF0546FE
:107C40004FF0FF3000232A46012100902046FBF729
:107C500083F9002038BD0000E1B1020000A102005C
:107C60009DBD020035B202006D61696E5F31735FC8
:107C70007461736B000000002DE9F04105460E466B
:107C800017461C4604F108081FFA88F000F08EF829
:107C900008B9BDE8F08120490968204A128821F816
:107CA00002801E480088801C1C4908801A48006811
:107CB0000988465219480088801C184908801848CD
:107CC000008815490968154A1288885213480088A7
:107CD000801C1249088012480088401C1049088006
:107CE0000D4800680D49098845520C480088801CE1
:107CF0000A49088008490968084A128888182246F3
:107D00003946FEF72FFA05480088204403490880C9
:107D100000F08CF800BFBCE784810020888100203F
:107D20008C8100202DE9FC4705460C4616461F466F
:107D30004FF00008C146E0B28DF8000014480088FA
:107D4000401C80B2ADF80100ADF8035005236A462F
:107D5000022142F60300FFF78FFF0D48B0F80080C4
:107D60003B46324621462846FFF786FF04F03000A6
:107D700058B14FF485790020ADF8000002236A461F
:107D8000494642F60210FFF777FF4046BDE8FC8700
:107D90008C81002038B50446009402236A461946B7
:107DA0004FF42050FFF768FF38BD000010B50446BF
:107DB000A01C84B2064800882044064909888842ED
:107DC00001DC012010BD04A0F5F7E4FC0020F9E778
:107DD000888100208A8100206174745F64623A2087
:107DE0006F7574206F66206D656D6F72790000008D
:107DF00001480068704700008481002070B5054686
:107E00000C460648056006490C800020054908809C
:107E100001200549088000F009F870BD8481002028
:107E20008A810020888100208C8100200020064962
:107E30000968064A128888540021034802680348EA
:107E40000088401C115470478481002088810020E4
:107E50002DE9F04180460C4615461E46069F3B46DE
:107E600032462946204602F0F5F880B2BDE8F0819E
:107E70002DE9F04704460D4691461E46DDE9087897
:107E800006480480018806A0FEF782FF43463A4672
:107E90003146284602F066F9BDE8F08748820020A6
:107EA0006174742077726974652063616C6C6261BF
:107EB000636B20636F6E6E65637465642068616ECA
:107EC000646C652030782578200D0A0010B5034ACF
:107ED00003480168034803F071F810BD1D7F0200DC
:107EE000988100209081002030B503460C46002187
:107EF00008E0A14200DB0AE0585C555CA84200D0D3
:107F000005E0491C585C10B1505C0028F1D100BF5D
:107F1000505C08B9012030BD0020FCE770B5054673
:107F20000C46502C00DD5024224629460848FEF716
:107F300019F9002006490855064804600120064941
:107F40000860002211460220DEF79EFD70BD000091
:107F500040990020748200204C8200202DE9FF4FC0
:107F600081B00746144698464FF00409042642465D
:107F700026A12046FEF71AF90298A0EB090000900E
:107F8000A8EB060A0098002802DBBAF1000F04DA19
:107F90004FF0FF3005B0BDE8F08F002529E01D4906
:107FA00051F8352007EB09000099FFF79DFFF8B164
:107FB000184800EBC5004068D0B1A019524616A180
:107FC000FEF7F4F8A21907EB0900124901EBC5010D
:107FD0005346D1F804C00099E0478346BBF1000F37
:107FE00004D0A01952460EA1FEF7E0F80020D1E718
:107FF0006D1C0D4800688542D1DBA01952460BA1CB
:10800000FEF7D4F84FF0FF30C4E7000054544D3A67
:10801000000000009C8100204F4B0D0A0000000072
:108020004552500D0A0000000C8200204E4F434D77
:10803000440D0A00000000002DE9F04385B004461D
:108040000D4690469946042614216846FEF7A3F88B
:10805000AF1B002F03DA701F05B0BDE8F083A01935
:1080600010236A46394600F026F8012803D16846F5
:1080700000F034FEF0E74FF0FF30EDE72DE9F84374
:1080800004460D4690469946042600200090AF1BFA
:10809000002F02DA401EBDE8F883A0196A4639466F
:1080A00000F025F8012803D1009800F031FEF2E736
:1080B0004FF0FF30EFE7F0B504460D4600200126F3
:1080C00000210BE0A94201D3012009E0675C57546D
:1080D000675C0FB9012003E00026491C9942F1D9E1
:1080E00000BF012E00D1002000275754F0BDF0B58D
:1080F00003460C46154600210026002217E0A24246
:1081000001D3012615E0985C302809DB985C3928FA
:1081100006DC985C303801EB810700EB470105E095
:10812000985C0D2801DC012603E002E0521C032AC2
:10813000E5D300BF012E14D102290FD005290DD09F
:108140000A290BD00F2909D0142907D0192905D0E5
:108150001E2903D0282901D0322902D1296001200B
:10816000F0BD0020FCE7F0B503460C4615460021A3
:108170000026002217E0A24201D3012615E0985CF8
:10818000302809DB985C392806DC985C303801EB34
:10819000810700EB470105E0985C0D2801DC012612
:1081A00003E002E0521C072AE5D300BF012E14D1E0
:1081B000B1F5965F0ED0B1F5165F0BD0B1F5964FC5
:1081C00008D0B1F5164F05D0B1F5614F02D0B1F529
:1081D000E13F02D129600120F0BD0020FCE7000052
:1081E0002DE9F84F0546894616461F46042400200F
:1081F0000090A9EB0408A7EB040AB8F1000F02DB1A
:10820000BAF1000F03DA4FF0FF30BDE8F88F285DB8
:108210003F2810D1B8F1010F03D0601C285C0D2855
:1082200019DC3A460DA13046FDF7C0FF3019514622
:1082300000F0AAFCE9E728196A464146FFF793FFD8
:10824000012808D13A4607A13046FDF7AFFF009854
:1082500000F07AFDD9E74FF0FF30D6E74250532DBA
:1082600000000000425053205345542041465445DD
:10827000522032532E2E2E0D0A0000002DE9F84F09
:1082800005460E4691469A46042700200090A6EB2C
:108290000708B8F1000F02DA401EBDE8F88FE819B0
:1082A0006A46414600F06FF90446D4B9009888B197
:1082B000009802280ED0009805280BD000980A28B4
:1082C00008D000980F2805D00098142802D00098F4
:1082D000192804D1009800F051FD044601E04FF048
:1082E000FF342046D9E72DE9F84F05460E461746DC
:1082F00098464FF0040900200090A6EB090ABAF155
:10830000000F02DA401EBDE8F88F05EB09006A464F
:10831000514600F038F904466CBB0098142824D06C
:1083200000981E2821D0009832281ED0009864287A
:108330001BD00098C82818D00098B0F5967F14D0AC
:108340000098B0F5C87F10D00098B0F5FA7F0CD037
:108350000098B0F57A7F08D040F2DC51009888424E
:1083600003D00098B0F5FA6F06D14246394600981E
:1083700000F020FD044601E04FF0FF342046C2E744
:108380002DE9F05F05460F4691469A460426A7EB75
:108390000608B8F1000F02DA701FBDE8F09F002454
:1083A0001AE0114951F83420A8194146FFF79CFD05
:1083B00088B10D4800EBC400406860B1A8190A49B3
:1083C00001EBC40153464A46D1F804C04146E04798
:1083D00083465846E1E7641C044800688442E0DBB9
:1083E0004FF0FF30D9E700001082002020820020EB
:1083F0002DE9F04704460D46904699460326AF1BEB
:10840000002F02DA301FBDE8F0872FB1A05D0D28E4
:1084100002DD4FF0FF30F6E7002000F0FBFCF2E752
:108420002DE9F04704460D46904699460226AF1BBB
:10843000002F02DAF01EBDE8F0872FB1A05D0D28F5
:1084400002DD4FF0FF30F6E7012000F0E3FCF2E739
:108450002DE9FE4F0546894616461F460424002096
:10846000009001900290A9EB0408A7EB040AB8F170
:10847000000F02DBBAF1000F03DA4FF0FF30BDE866
:10848000FE8F285D3F2810D1B8F1010F03D0601C8A
:10849000285C0D2816DC3A460CA13046FDF786FE16
:1084A0003019514600F0A0FBE9E728190C236A4671
:1084B000414600F00FF8012804D10C21684600F075
:1084C000E5FCDCE74FF0FF30D9E700004D41432DDC
:1084D0000000000030B504460D469D4201DA002040
:1084E00030BD9D4204DDE05C0D2801DD0020F7E792
:1084F000002120E0605C302806DB605C392803DC6A
:10850000605C3038505415E0605C612806DB605CCC
:10851000662803DC605C573850540BE0605C4128EF
:1085200006DB605C462803DC605C3738505401E0B1
:108530000020D5E7491C9942DCDB0120D0E730B5AB
:1085400004460D4600210FE0A94203DB00205054F1
:10855000012030BD605C5054605C0D2803DC0020BD
:1085600050540120F5E7491C9942EDDB994208D1AE
:10857000A94201D10120ECE7605C0D2801DC01205B
:10858000E7E70020E5E7F0B503460C4600250026A6
:10859000002114E0585C302809DB585C392806DCDF
:1085A000585C303805EB850700EB470506E0585C62
:1085B0006D2802D10126491C03E002E0491CA142BA
:1085C000E8D300BF012E07D1A14205D2585C732821
:1085D00002D115600020F0BD4FF0FF30FBE7000036
:1085E0002DE9F0470546884616461F460424A8EBA9
:1085F0000409A7EB040AB9F1000F02DBBAF1000F7E
:1086000003DA4FF0FF30BDE8F087285D3F2810D136
:10861000B9F1010F03D0601C285C0D2809DC3A4633
:1086200005A13046FDF7C2FD3019514600F0F4FABD
:10863000E9E74FF0FF30E6E74E414D2D0000000026
:108640002DE9F84304460D4690469946042600203D
:108650000090AF1B002F02DA401EBDE8F883A0197E
:1086600002236A46394600F00AF8012804D10221A3
:10867000684600F073FCF0E74FF0FF30EDE770B5AF
:1086800004460D460020022D00DA70BD002105E0F1
:10869000A94200D304E0665C5654491C9942F7D9BC
:1086A00000BFA6780D2E00DC012000BFEDE72DE90C
:1086B000F04385B004460D4616461F464FF00408A9
:1086C00014216846FDF767FDA5EB0809B9F1000F15
:1086D00004DA4FF0FF3005B0BDE8F08304EB08008A
:1086E00010236A464946FFF72AFF012805D13A467A
:1086F0003146684600F006FCEDE74FF0FF30EAE750
:108700002DE9F05F05460F4691469A460426A7EBF1
:108710000608B8F1000F02DA701FBDE8F09F0024D0
:108720001AE0114951F83420A8194146FFF7DCFB43
:1087300088B10D4800EBC400406860B1A8190A492F
:1087400001EBC40153464A46D1F804C04146E04714
:1087500083465846E1E7641C044800688442E0DB35
:108760004FF0FF30D9E7000024820020348200203F
:108770002DE9F04704460D46904699460326AF1B67
:10878000002F02DA301FBDE8F0872FB1A05D0D2861
:1087900002DD4FF0FF30F6E7002000F00DFCF2E7BD
:1087A0002DE9F04704460D46904699460226AF1B38
:1087B000002F02DAF01EBDE8F0872FB1A05D0D2872
:1087C00002DD4FF0FF30F6E7012000F0F5FBF2E7A5
:1087D0002DE9FE4F05460F4691469A460426002095
:1087E0000090019002900B24A7EB0608A04502DA46
:1087F000401EBDE8FE8FA04506DD3019285C0D281F
:1088000002DD4FF0FF30F4E7A91922466846FDF774
:10881000CDFC00200DF8040005A16846FDF7D2FC50
:1088200010B900F033FAE4E74FF0FF30E1E7000061
:1088300053595354454D5245534554002DE9F04F7B
:1088400095B00546894616461F460424142110A8F3
:10885000FDF7A1FC2C2105A8FDF79DFCA9EB040860
:10886000A7EB040AB8F1000F02DBBAF1000F04DA3B
:108870004FF0FF3015B0BDE8F08F285D3F2826D1BE
:10888000B8F1010F03D0601C285C0D282ADC3A46A1
:1088900016A13046FDF78AFC05A800F0DDF98346F5
:1088A00005A80BC8089ACDE90023CDE90210099864
:1088B000431C0A9800F26C720EA110A8FEF778FA19
:1088C0003019524610A9FDF771FC5846D2E7281915
:1088D00005AA414600F01CF8012803D105A800F0C4
:1088E0008DFBC7E74FF0FF30C4E700005254432D23
:1088F0000000000025303475253032752530327582
:108900002530327525303275253032750D0A00005C
:10891000F0B58BB004460E4617460E2E02DA002044
:108920000BB0F0BDA07B0D2801DD0020F8E700258D
:1089300008E0605D302802DB605D392801DD002041
:10894000EEE76D1C0E2DF4DB207830384FF47A7191
:1089500048436178303901EBC10202EB011100EBB1
:108960008101A078303800EB800001EB4001E07815
:1089700030380844A0F26C70059060793038217965
:10898000303901EB810100EB4100401E0490E07999
:108990003038A179303901EB810100EB41000390BF
:1089A000607A3038217A303901EB810100EB4100E7
:1089B0000290E07A3038A17A303901EB810100EB86
:1089C00041000190607B3038217B303901EB81011F
:1089D00000EB4100009042F20F710598884227DABF
:1089E0000598002824DD04980C2821DA0498002832
:1089F0001EDB039820281BDA0398002818DD029854
:108A0000182815DA0298002812DB01983C280FDAA2
:108A1000019800280CDB00983C2809DA009800280F
:108A200006DB2C2269463846FDF79CFB012077E7E0
:108A3000002075E72DE9F84304460D469046994617
:108A4000042600200090AF1B002F02DA401EBDE874
:108A5000F883A0196A46394600F009F8012803D1C5
:108A6000009800F0FDFAF2E74FF0FF30EFE7F0B5C5
:108A700003460C46154600220026002718782828B1
:108A800002D15878292801D10020F0BD58782D282E
:108A900002D10221CE1E07E058782B2802D10221F4
:108AA000012601E00121012616E0A14200D315E0D4
:108AB000585C302809DB585C392806DC585C3038B3
:108AC00002EB820C00EB4C0205E0585C292801D136
:108AD000012703E002E0491C0629E6D300BF012F6D
:108AE0000AD17243042A04D01AB1901D08B1113082
:108AF00010B92A600120C8E70020C6E72DE9F04739
:108B000005460E4617469846DDF820906FF0010A9C
:108B10001448006810B95046BDE8F087002419E0F9
:108B20001048006850F83400A84212D10D4800687F
:108B300000EBC400406860B10A48006800EBC40064
:108B40004B4642463946D0F804C03046E04782469C
:108B500004E0641C044800688442E1DB00BF504626
:108B6000DAE70000388200203C82002033B581B073
:108B70000C4602202346042201A900900E20FFF794
:108B8000BDFF054628463EBD38B504460D4605A046
:108B9000FEF7FEF823460022114615200095FFF748
:108BA000ADFF38BD676574206261756420726174C1
:108BB000650D0A0038B504460120234600221146FF
:108BC00000900220FFF79AFF0546284638BD38B5C9
:108BD0000446012023460022114600901046FFF76C
:108BE0008DFF0546284638BD38B504460D4605A01C
:108BF000FEF7CEF823460022114617200095FFF716
:108C00007DFF38BD676574206D61632061646472A7
:108C10006573730D0A000000F8B504460D4623463F
:108C20000022114613200095FFF768FF06463146E3
:108C300002A0FEF7ADF83046F8BD0000676574206D
:108C40006D6F64756C65206E616D65207265742052
:108C500025640D0A0000000038B504462C20234688
:108C60000022114600901120FFF748FF05462846D4
:108C700038BD38B50446082023460022114600902E
:108C80001020FFF73BFF0546284638BD38B507A042
:108C9000FEF77EF8002003460246014600901A20A7
:108CA000FFF72CFF0446204638BD00006D6F647549
:108CB0006C652072657365740D0A0000024612B976
:108CC0004FF0FF3070470348026003480160002006
:108CD000F8E70000388200203C82002038B50446C6
:108CE000214607A0FEF754F800200346024601463D
:108CF00000901C20FFF702FF0546284638BD000003
:108D000061647620646174613A2025730D0A000065
:108D100038B50446214607A0FEF73AF8002003467E
:108D20000246014600901B20FFF7E8FE0546284654
:108D300038BD000061647620706572696F643A2006
:108D400025750D0A0000000011B581B007A001993A
:108D5000FEF71EF800200346042201A90090162009
:108D6000FFF7CCFE044620461CBD0000626175641E
:108D700020726174653A2025750D0A0038B50446E5
:108D8000214607A0FEF704F80020034602460146EC
:108D900000901F20FFF7B2FE0546284638BD0000B0
:108DA000636F6D206F75742064656C61793A20255E
:108DB000750D0A0077B581B00C4616460BA00199D7
:108DC000FDF7E6FF00200346042201A900901920C8
:108DD000FFF794FE0546E81C28B932460AA1204652
:108DE000FDF7E4F90025284604B070BD636F6E6E90
:108DF000656374696F6E20696E74657276616C3A32
:108E00002025750D0A00000054494D454F55540D5D
:108E10000A00000038B50446012C01D108A000E08A
:108E200008A0014608A0FDF7B3FF00200346024654
:108E3000014600902020FFF761FE0546284638BD18
:108E40006F6E00006F666600656E61626C6520750E
:108E5000703A2025730D0A0038B5044600200346F9
:108E60000122214600900320FFF748FE05462846D0
:108E700038BD38B504460020034601222146009043
:108E80001046FFF73BFE0546284638BD70B58AB050
:108E900004460D46E07AA17A627A237ACDE905325A
:108EA000CDE90710E179A27960792379CDE9013024
:108EB000CDE90321E0780090A3786278217807A0BB
:108EC000FDF766FF002003462A4621460090182041
:108ED000FFF714FE064630460AB070BD6D61632090
:108EE0003078257825785F257825785F257825786E
:108EF0005F257825785F257825785F257825780D9A
:108F00000A000000F8B504460D46174621460BA09E
:108F1000FDF73EFF00200346024621460090142044
:108F2000FFF7ECFD0646F01C28B93A4608A1284692
:108F3000FDF73CF900263046F8BD00006D6F647502
:108F40006C65206E616D653A2025730D0A00000086
:108F500054494D454F55540D0A000000F8B50446DC
:108F60000D466278217807A0FDF712FF0020034626
:108F70002A46214600901D20FFF7C0FD06463046D8
:108F8000F8BD000070726F647563742069643A20E4
:108F9000307825785F25780D0A000000F8B5044682
:108FA0000D46002003462A46214600900D20FFF77B
:108FB000A5FD06463046F8BD11B581B001980128DF
:108FC00001D109A000E009A0014609A0FDF7E0FEDB
:108FD00000200346042201A900902120FFF78EFD06
:108FE000044620461CBD00006F6E00006F666600E0
:108FF000727373693A2025730D0A00003EB504466A
:10900000D4E901212068CDE90012029009A0D4E939
:1090100003326169FDF7BCFE002003462C22214685
:1090200000901220FFF76AFD054601200B490860F9
:1090300028463EBD7365742072746320777269742C
:109040006520792575206D25752064257520682596
:1090500075206D2575207325750D0A006882002026
:1090600011B581B007A00199FDF792FE00200346DB
:10907000042201A900901E20FFF740FD044620466F
:109080001CBD0000747820706F7765723A202564EB
:109090000D0A0000F8B504460D46002003462A4696
:1090A000214600900520FFF729FD06463046F8BD11
:1090B00010B50446012007490860074800680749C1
:1090C0000968084320B1002211460320DDF7DCFCCB
:1090D00010BD000050820020848200208882002081
:1090E00010B5044601200749086007480068074991
:1090F0000968084320B1002211460320DDF7C4FCB3
:1091000010BD0000548200208C820020908200203C
:10911000F8B505460C461646002000903CB10DEB14
:10912000050132462046FDF71DF83046F8BD012006
:10913000FCE70000F8B507460C461546012D01D0A6
:109140000020F8BD207830B1012821D0022832D08B
:10915000032867D142E000203449086034490860A0
:109160003449086034490860401E00231A46032130
:10917000009032480068F9F7EFFE4FF0FF3000230F
:109180001A46032100902E480068F9F7E5FE4AE0F0
:1091900001202649086027490860F9F7C5FC064602
:1091A0004FF0FF3000233246012100902348006831
:1091B000F9F7D2FE37E001201D4908601E4908601A
:1091C000F9F7B2FC06464FF0FF300023324601218A
:1091D00000901B480068F9F7BFFE24E00120134906
:1091E0000860134908601349086013490860F9F7DB
:1091F0009BFC06464FF0FF300023324601210090D1
:109200000E480068F9F7A8FEF9F78EFC06464FF005
:10921000FF30002332460121009009480068F9F729
:109220009BFE00E000BF00BF00208AE78482002090
:109230008C82002088820020908200207C82002086
:1092400080820020F8B505460C46164600200090A6
:1092500001208DF800000B480078401CC0B28DF84A
:10926000010008480078401C064908703CB10DEB2D
:10927000050132462046FCF775FF3046F8BD022056
:10928000FCE700006C8200200346002070470000CD
:1092900070B505460C4616462088022807D10120E5
:1092A0000849086008480088DDF734F908E020889C
:1092B000012805D10549086003480088DDF72AF92F
:1092C000002070BD88820020488200208482002017
:1092D000F8B505460C4616460020009000F04DF803
:1092E000074638128DF80100F8B28DF800003CB145
:1092F0000DEB050132462046FCF734FF3046F8BD41
:109300000220FCE770B505460C4616462088022868
:1093100007D101200849086008480088DDF7FAF8FD
:1093200008E02088012805D1054908600348008825
:10933000DDF7F0F8002070BD908200204882002008
:109340008C820020F8B505460C4616460020009099
:10935000012000F012F8074638128DF80100F8B22B
:109360008DF800003CB10DEB050132462046FCF7BC
:10937000F9FE3046F8BD0220FCE738B5044600206F
:10938000009069462046FFF7F1FB08B1002038BD88
:10939000BDF80000FBE700001CB500200190009024
:1093A0002A480068012826D10020FFF7E6FF04467E
:1093B00020128DF80400E0B28DF80500214624A0AB
:1093C000FDF7E6FC2E48006838B1022301AA2D48BB
:1093D00001882D480088DDF723F82C48006838B153
:1093E000022301AA2748018827480088DCF7B8FF34
:1093F00000201649086026480068012825D1FFF79B
:10940000BCFF044620128DF80000E0B28DF8010088
:10941000214620A0FDF7BCFC2A48006838B1022391
:109420006A462948018818480088DCF7F9FF274870
:10943000006838B102236A46234801881248008830
:10944000DCF78EFF0020124908601CBD508200200E
:1094500062745F626D5F6D6F64756C655F6164639C
:109460005F76616C75655F736572766963655F735E
:10947000656E645F6461746130202575200D0A009B
:109480008482002078820020488200208882002088
:109490005482002062745F626D5F6D6F64756C65ED
:1094A0005F6164635F76616C75655F736572766931
:1094B00063655F73656E645F6461746131202575F7
:1094C000200D0A008C8200207A82002090820020E9
:1094D0002DE9FC4105460C4616460DA103C9CDE910
:1094E00000010720FFF749FF074638128DF80100F9
:1094F000F8B28DF8000044B10DEB0501324620466C
:10950000FCF730FE3046BDE8FC810520FBE700009B
:109510000102030405000000F0B587B007460D46C0
:109520001446182101A8FCF736FE142C00DD142483
:109530002246294601A8FCF739FE002001A908555A
:1095400005A0FDF725FC214601A8FFF7A3FD06466F
:10955000304607B0F0BD0000626C6520746F207566
:109560006172742025730D0A000000007CB5002193
:10957000009101913A480068012816D1002038492D
:10958000086000240FE0374800EB841090F83B009F
:10959000012800D006E0E0B200F074F8064606B1FB
:1095A00000E000BF641C202CEDDB2E48083890F84A
:1095B0000C08012809D12B480838D0F8080820B138
:1095C0002948007800F0010000B97CBD6846FFF72B
:1095D00050FB064606B1F8E700243CE0214800EBCA
:1095E000841090F83A00012800D033E01D4800EBC9
:1095F00084100CC8DDE90010891A984100D229E0D6
:10960000E0B200F0A1FB174800EB8410808E00B997
:1096100020E000251BE0134800EB8410808E012120
:10962000A940084000B911E00F480088691C0122D8
:109630008A40104000B909E02A4621460BA0FDF7F8
:10964000A7FB2946204600F081F900BF6D1C0A2DBA
:10965000E1DB00BF641C202CC0DB00BFB5E70000CD
:1096600068820020108900205E8200206163746996
:109670006F6E2065767420256420706F72742025CB
:10968000640D0A002DE9F04F89B00546AE4800EBA5
:10969000851080690790AC4800EB85104069069002
:1096A000A94800EB851000690590A74800EB8510DC
:1096B000C0680490A44800EB8510D0F808B00024DE
:1096C00000210291039100BF9F4800EB851090F8A4
:1096D0003B00012803D1002009B0BDE8F08F02A8AB
:1096E000FFF7C7FA0090009810B14FF0FF30F3E792
:1096F00002A8FCF7D3FE04460120A840019092483E
:1097000000EB851090F83C0006287CD2DFE800F0E2
:10971000CD03071331655E46D4F80090EDE0049860
:10972000C0EB00100BEB8006D4E90001C1EB011186
:1097300000EB8109E1E00598C0EB00108000C0EB70
:10974000001081000498C0EB001001EB800000EBDA
:109750000B06A068C0EB00108000C0EB001080007A
:109760006168C1EB011100EB8100216800EB010988
:10977000C3E0069800EB4000C000C0EB0010800082
:10978000C0EB001081000598C0EB00108000C0EB1A
:10979000001001EB80010498C0EB001001EB800089
:1097A00000EB0B06E06800EB4000C000C0EB0010CF
:1097B0008000C0EB00108000A168C1EB011189009E
:1097C000C1EB011100EB81006168C1EB011100EBFD
:1097D0008100216800EB01098FE0069800EB400052
:1097E000C000C0EB00108000C0EB001081000598A5
:1097F000C0EB00108000C0EB001001EB800104986A
:10980000C0EB001000E050E001EB800000EB0B0625
:109810004FF0000A12E0616901F26C700AF1010177
:1098200000F032FD00EB4000C000C0EB00108000F3
:10983000C0EB001006EB80060AF1010A079882458A
:10984000E9DBE06800EB4000C000C0EB00108000E6
:10985000C0EB00108000A168C1EB01118900C1EBD1
:10986000011100EB81006168C1EB011100EB810087
:10987000216800EB01094FF0000A12E0616901F272
:109880006C700AF1010100F0FFFC00EB4000C00029
:10989000C0EB00108000C0EB001009EB80090AF15A
:1098A000010A20695045E9DC27E0274901EB8511D1
:1098B00001F10800FCF702FC4FF000080746DDE963
:1098C0000212781A78EB020015D31F4800EB8510BE
:1098D000C0E9007801211C4800EB851080F83A109F
:1098E0001948083800680199084317490839086081
:1098F000012081F80C080020EEE600BFDDE902201F
:10990000921940EBE670B2EB090160EBE9700E4A88
:1099100002EB8512C2E900104E4502DA284600F03B
:1099200013FA0121084800EB851080F83A10064828
:109930000838006801990843034908390860012084
:1099400081F80C080020C7E610890020F8B505460C
:109950000C463E48007800903D4800EB851090F89A
:10996000376064207043FF2190FBF1F086B23848E5
:1099700000EB851090F83600062863D2DFE800F08F
:1099800003041A3148555DE0052C00DDF8BD31486F
:1099900000780121A140084000B9F7E70120A0406C
:1099A0009DF80010814300916846FFF762FA00B10C
:1099B000ECE747E0052C00DDE8E7264800780121C8
:1099C000A140084000B9E1E70120A0409DF8001047
:1099D0000843C0B200906846FFF74BFA00B1D5E7E4
:1099E00030E0052C00DD2DE01A4800780121A1406F
:1099F000084000B926E00120A0409DF80010484032
:109A0000C0B200906846FFF734FA00B1BEE719E033
:109A1000052C00DC16E0A01F0F4A16540421104646
:109A2000FFF7BCFA00B1B1E70CE0052C00DC09E05F
:109A3000A01F094A165404211046FFF7AFFA00B1DF
:109A4000A4E700BF00BF00BFA0E7000065820020C0
:109A5000108900206482002060820020034639B112
:109A600004480078087003484078487010467047F2
:109A70000220FCE75E82002010B50346022A01D0D6
:109A8000002010BD0878034C2070487860700020DA
:109A9000F7E700005E820020034621B1034800780A
:109AA0000870104670470120FCE700005D8200202E
:109AB00010B50346F9B111480078087010480F4CF2
:109AC000247810F8240048700D480C4C247800EBE2
:109AD0008400407888700A48084C247800EB8400A1
:109AE0008078C8700648054C247800EB8400C07864
:109AF0000871104610BD0520FCE700005D820020C3
:109B000018910020F0B506460B461546012D01D0F0
:109B10000020F0BD1878334F3870384600780A2896
:109B200001DB0920387058782F4FDFF8B8C09CF857
:109B300000C007F82C009878DFF8A8C09CF800C097
:109B400007EB8C077870D878274FDFF898C09CF81F
:109B500000C007EB8C07B8701879234FDFF884C07A
:109B60009CF800C007EB8C07F8701F481D4F3F782A
:109B700050F827401B4807780120B84082B23CB912
:109B80001A48D0F808089043184FC7F8080806E0AC
:109B90001648D0F808081043144FC7F808080021E9
:109BA0001BE001208840204058B91048083000EBE5
:109BB0008110808E90430D4F083707EB8117B886D0
:109BC0000AE00A48083000EB8110808E1043074FEE
:109BD000083707EB8117B886491C2029E1DB0020F4
:109BE00097E700005D82002018910020088900207E
:109BF00010B50346012A01D0002010BD0878054C9D
:109C00002070204600780A2801DB092020700020FF
:109C1000F3E700005D820020034621B1034800788D
:109C20000870104670470120FCE700005C820020AD
:109C300010B50346012A01D0002010BD0878024C5F
:109C400020700020F9E700005C820020F0B58DB0A4
:109C500007460C46154600200B900C902C216846B8
:109C6000FCF799FA6846FEF7F7FF06464CB32EBBA1
:109C7000059800F26C70000A8DF83200059800F229
:109C80006C70C0B28DF831000498401CC0B28DF8E1
:109C900030000398C0B28DF82F000298C0B28DF842
:109CA0002E000198C0B28DF82D000098C0B28DF83A
:109CB0002C002A460BA92046FCF754FA28460DB082
:109CC000F0BD02A0FDF764F80720F8E762745F6258
:109CD0006D5F6D6F64756C655F6576745F727463DC
:109CE0005F726561645F63616C6C6261636B206766
:109CF00065742073697A650D0A000000F0B58BB0B9
:109D000007460C4615462C216846FCF744FA002607
:109D1000072D02D000200BB0F0BD6079A17940EA98
:109D20000126A6F26C7005902079401E0490E07820
:109D30000390A078029060780190207800906846A7
:109D4000FFF75CF9E7E700002DE9F0418CB004462D
:109D50002C2101A8FCF71FFA012000FA04F866483C
:109D600000EB841090F83C00062879D2DFE800F080
:109D7000031220303F7E00215F4800EB841080F802
:109D80003A105D480838006820EA08005A49083946
:109D90000860A4E0584800EB8410D0E900103C3182
:109DA00040F10000544A02EB8412C2E9001096E030
:109DB000514800EB8410D0E900104FF46163C918DA
:109DC00040F100004C4A02EB8412C2E9001086E028
:109DD000494800EB8410D0E90010484BC91840F105
:109DE0000000454A02EB8412C2E9001077E001A8A6
:109DF000FEF732FF064676B13F4800EB8410D0E90B
:109E000000103F4BC91840F100003B4A02EB84129E
:109E1000C2E9001063E0059F24E0069901F26C702E
:109E2000791C00F031FA0546334800EB8410D0E984
:109E3000003105EB4500C000C0EB00108000C0EB16
:109E400000108000C217181851412B4A02EB8412EF
:109E500003C2294800EB84104169A94201DC03E0F8
:109E600036E07F1C0C2FD8DB00BF38E001A8FEF7DE
:109E7000F3FE064676B1204800EB8410D0E90020BE
:109E8000204BD11840F100001B4A02EB8412C2E9BA
:109E9000001024E0059A511C069A02F26C7000F042
:109EA0001AFA0546144800EB8410D0E9003105EB9E
:109EB0004500C000C0EB00108000C0EB0010800027
:109EC000C217181851410C4A02EB841203C206E073
:109ED0000021094800EB841080F83A1000BF00BF51
:109EE00005480838006820B900200349083981F87E
:109EF0000C080CB0BDE8F0811089002080510100F1
:109F0000008D27008033E101034621B1034800782A
:109F10000870104670470C20FCE700005C820020AF
:109F20002DE9F04781460D4617464FF000080C2FEB
:109F300002D00020BDE8F0872C78202C00DB1F2405
:109F4000A879E97940EA0128A8F26C78404800EB4A
:109F50008410C0F81C806979491E3D4800EB8410CC
:109F6000816129793A4800EB84104161E9783848E9
:109F700000EB84100161A978354800EB8410C160C2
:109F80006978334800EB84108160297A304800EB0F
:109F9000841080F83610697A2D4800EB841080F820
:109FA0003710A97A2A4800EB841080F83810E97A33
:109FB000274800EB841080F83910A878FF2806D1D4
:109FC0000121234800EB841080F83C1030E0E87851
:109FD000FF2806D102211E4800EB841080F83C10B7
:109FE00026E02879FF2806D10321194800EB8410C8
:109FF00080F83C101CE06879FF2806D10421144841
:10A0000000EB841080F83C1012E0A879FF2809D1F9
:10A01000E879FF2806D105210D4800EB841080F86F
:10A020003C1005E000210A4800EB841080F83C1049
:10A030000121074800EB841080F83B102046FFF711
:10A0400021FB06460EB1002074E7002072E70000F5
:10A05000108900202DE9F04105460E461746984626
:10A06000294610A0FCF794FE002414E0144830F8B0
:10A070003400A8420ED1124800EBC400406848B139
:10A080000F4800EBC40042463946436830469847C3
:10A09000BDE8F081641C0B4800688442E6DB4FF0A9
:10A0A000FF30F5E767617474207265616420636155
:10A0B0006C6C6261636B3A2025750D0A000000002C
:10A0C000C88200204082002070B505460E46164822
:10A0D0000068642805DB15A0FCF75AFE4FF0FF303E
:10A0E00070BD00240BE01E4830F83400A84205D1B2
:10A0F0001B4800EBC40046600020F1E7641C0A48DE
:10A1000000688442EFDB16480749096820F831509F
:10A110000549096800EBC100466003480068401C1F
:10A12000014908600020DBE74082002062745F6222
:10A130006D5F6D6F64756C655F676174745F726588
:10A1400061645F63616C6C6261636B5F72656769B8
:10A1500073746572206661696C210D0A000000004D
:10A16000C88200202DE9F04105460E461746984664
:10A17000294612A0FCF70CFE002417E0164830F820
:10A180003400A84211D1144800EBC400406860B10B
:10A1900012A0FCF7FDFD104800EBC4004246394612
:10A1A000436830469847BDE8F081641C0E4800685B
:10A1B0008442E3DB4FF0FF30F5E700006761747421
:10A1C0002077726974652063616C6C6261636B3ABD
:10A1D0002025750D0A000000E8850020666F756E69
:10A1E0006420636D640D0A004482002070B505464A
:10A1F0000E4616480068642805DB15A0FCF7C8FD6C
:10A200004FF0FF3070BD00240BE01E4830F83400E2
:10A21000A84205D11B4800EBC40046600020F1E7CE
:10A22000641C0A4800688442EFDB16480749096845
:10A2300020F831500549096800EBC1004660034829
:10A240000068401C014908600020DBE744820020D0
:10A2500062745F626D5F6D6F64756C655F6761747A
:10A26000745F77726974655F63616C6C6261636B64
:10A270005F7265676973746572206661696C210D30
:10A280000A000000E885002030B502461F2304299B
:10A2900005D0062903D0092901D00B2900D11E239E
:10A2A000022916D1D41702EB9474A410A2EB8404F3
:10A2B0002CB9642492FBF4F504FB152434B94FF453
:10A2C000C87492FBF4F504FB15240CB91D2300E0BF
:10A2D0001C23184630BD70B502460B4640F26D1483
:10A2E000511C022B16DCD51702EB9575AD10A2EBB5
:10A2F00085052DB9642592FBF5F605FB162535B9C4
:10A300004FF4C87592FBF5F605FB1625C5B94FF459
:10A31000B77415E0CD1701EB9575AD10A1EB850570
:10A320002DB9642591FBF5F605FB161535B94FF4EB
:10A33000C87591FBF5F605FB16150DB94FF4B7740A
:10A34000204670BD2DE9F04107460C46154600F049
:10A350009BF806461CB126702846BDE8F081012016
:10A36000FBE70000F8B506460C461546012D01D066
:10A370000020F8BD207800906846FEF76DFD08B11A
:10A380000020F6E79DF80000FF2805D100200649CF
:10A3900008600649086004E0012003490860034999
:10A3A00008600020E5E70000988200209C820020E1
:10A3B00070B505460C4616462088022807D10120B4
:10A3C0000B4908600B480088DCF7A4F808E02088F7
:10A3D000012805D10849086006480088DCF79AF88A
:10A3E00000F02AF8218805A0FCF7D2FC002070BDFF
:10A3F0009C8200204882002098820020627473743E
:10A4000061636B2070757368206770696F206D736E
:10A4100067202575200D0A002DE9F04107460C46FE
:10A42000154600F03DF806461CB126702846BDE8EA
:10A43000F0810120FBE7000010B50120064908600B
:10A440000648006806490968084320B10022114601
:10A450000420DCF719FB10BD5882002098820020F0
:10A460009C820020F8B506460C461546012D01D009
:10A470000020F8BD207800906846FEF7FAFC08B18D
:10A480000020F6E70020F4E708B5002000906846B9
:10A49000FEF790FB08B1002008BD9DF80000FBE727
:10A4A00008B5002000906846FEF791FB08B1002037
:10A4B00008BD9DF80000FBE708B5114800680128B9
:10A4C00000D008BDFFF7ECFF00900E48006838B1DF
:10A4D00001236A460C4801880C480088DBF7A0FF7E
:10A4E0000B48006838B101236A46074801880748CD
:10A4F0000088DBF735FF00200149086000BFE0E776
:10A5000058820020988200209482002048820020F7
:10A510009C82002030B587B0142102A8FBF73BFED7
:10A520004FF6D070FDF736FC012302AA4FF4857177
:10A530004FF6D170FDF7F6FB04462D492046FFF794
:10A54000C3FD2C492046FFF751FE022302AA4FF417
:10A5500085714FF6D270FDF7E5FB0446264920468B
:10A56000FFF7B2FD25492046FFF740FE022302AA6D
:10A570004FF499714FF6D370FDF7D4FB0446601C7D
:10A5800085B21F4804801F492046FFF79DFD1E49E4
:10A590002846FFF72BFE022302AA4FF499714FF6CB
:10A5A000D470FDF7BFFB0446601C85B217480480D9
:10A5B00017492046FFF788FD16492846FFF716FE83
:10A5C0001548002301224FF47A71009013A0F8F788
:10A5D00057FC194908601948002301224FF47A7189
:10A5E000009017A0F8F74CFC1C49086007B030BD7C
:10A5F00011910200359102004592020089920200F9
:10A6000078820020D1920200919202007A8200208A
:10A610004593020005930200B1900200616463302B
:10A620005F76616C75655F736572766963655F748B
:10A63000696D6572000000007C820020E1900200DC
:10A64000616463315F76616C75655F7365727669AD
:10A6500063655F74696D6572000000008082002090
:10A6600010B586B0142101A8FBF795FD41F60F0047
:10A67000FDF790FB052301AA4FF4997142F61920CA
:10A68000FDF750FB044603492046FFF71DFD06B0C9
:10A6900010BD0000D194020030B585B00025142112
:10A6A0006846FBF778FD4FF6E570FDF773FB142362
:10A6B0006A464FF484714FF6E970FDF733FB0446A8
:10A6C00011492046FFF792FD4FF6E070FDF762FB5F
:10A6D00014236A464FF499714FF6E470FDF722FB9C
:10A6E0000446601C85B209480480214608A0FCF796
:10A6F0004FFB13492046FFF7E7FC12492846FFF7B6
:10A7000075FD05B030BD0000199502007082002073
:10A7100062745F626D5F6D6F64756C655F696E69B1
:10A72000745F646174615F7472616E736D69745F8C
:10A7300073657276696365202575200D0A00000037
:10A740009FAD0200C9AD020010B586B0142101A86A
:10A75000FBF721FD41F60A00FDF71CFB142301AABB
:10A760004FF485714FF69970FDF7DCFA04460949FC
:10A770002046FFF7A9FC08492046FFF737FD1423C0
:10A7800001AA4FF485714FF69A70FDF7CBFA044693
:10A7900006B010BD45AE02004BAE020010B586B04B
:10A7A000142101A8FBF7F7FC4FF47E40FDF7F2FA05
:10A7B000142301AA4FF485714FF60160FDF7B2FA38
:10A7C00004462F492046FFF77FFC2E492046FFF71D
:10A7D0000DFD142301AA4FF485714FF60260FDF7B9
:10A7E000A1FA044628492046FFF76EFC2749204677
:10A7F000FFF7FCFC142301AA4FF485714FF60360A8
:10A80000FDF790FA044622492046FFF75DFC2149F6
:10A810002046FFF7EBFC142301AA4FF485714FF695
:10A820000460FDF77FFA04461B492046FFF74CFC05
:10A830001A492046FFF7DAFC142301AA4FF4857168
:10A840004FF60560FDF76EFA044615492046FFF7FE
:10A850003BFC14492046FFF7C9FC142301AA4FF41E
:10A8600085714FF60660FDF75DFA04460E492046F5
:10A87000FFF72AFC0D492046FFF7B8FC06B010BDD3
:10A880004D9C0200FD9C0200199C0200319C0200BC
:10A89000099F0200219F0200999A0200F19B020089
:10A8A000B19A0200059B02005D9A0200799A0200AB
:10A8B00010B54FF4C050FDF76DFA0923084A022184
:10A8C0004FF42850FDF72EFA41F60100FDF762FA29
:10A8D0000423044A022142F60520FDF723FA10BDA5
:10A8E000A0820020AA82002030B585B014216846DD
:10A8F000FBF751FC4FF6F070FDF74CFA14236A4653
:10A900004FF485714FF6F170FDF70CFA04463149AA
:10A910002046FFF7D9FB30492046FFF767FC142398
:10A920006A464FF484714FF6F270FDF7FBF9044666
:10A930002A492046FFF75AFC14236A464FF49971BE
:10A940004FF6F370FDF7EEF90446601C85B224481B
:10A95000048024492046FFF7B7FB23492846FFF728
:10A9600045FC14236A464FF485714FF6F470FDF7E9
:10A97000D9F9044614236A464FF485714FF6F570F1
:10A98000FDF7D0F9044614236A464FF485714FF65B
:10A99000F670FDF7C7F9044614236A464FF4857133
:10A9A0004FF6F770FDF7BEF9044614236A464FF4DC
:10A9B00085714FF6F870FDF7B5F9044614236A4621
:10A9C0004FF485714FF6F970FDF7ACF9044605B008
:10A9D00030BD000045A3020065A3020065A402008B
:10A9E0009482002019A40200B1A3020003460020B3
:10A9F0007047000010B586B0142101A8FBF7CBFB0F
:10AA00004FF6C070FDF7C6F9142301AA4FF4857103
:10AA10004FF6C170FDF786F9044609492046FFF755
:10AA200053FB08492046FFF7E1FB142301AA4FF42A
:10AA300085714FF6C270FDF775F9044606B010BD7A
:10AA4000EDA9020049AA0200034600207047000059
:10AA500010B586B0142101A8FBF79DFB4FF690704E
:10AA6000FDF798F9142301AA4FF485714FF6917000
:10AA7000FDF758F904462D492046FFF725FB2C49E0
:10AA80002046FFF7B3FB142301AA4FF485714FF65C
:10AA90009270FDF747F90446142301AA4FF485711B
:10AAA0004FF69370FDF73EF90446142301AA4FF4C4
:10AAB00085714FF69470FDF735F90446142301AA09
:10AAC0004FF485714FF69570FDF72CF90446142369
:10AAD00001AA4FF485714FF69670FDF723F90446ED
:10AAE000142301AA4FF485714FF69770FDF71AF9F8
:10AAF0000446142301AA4FF485714FF69870FDF7B0
:10AB000011F90446142301AA4FF485714FF6997088
:10AB1000FDF708F90446142301AA4FF485714FF696
:10AB20009A70FDF7FFF8044606B010BD91AC020024
:10AB3000D1AC020010B5FFF7AFFD00F011F8FFF740
:10AB4000E9FCFFF7D1FEFFF755FFFFF789FD00F0A5
:10AB500067F8FFF77DFFFFF7F7FDFFF71FFE10BD5A
:10AB600010B586B0142101A8FBF715FB4FF6B070A5
:10AB7000FDF710F9012301AA4FF485714FF6B1706A
:10AB8000FDF7D0F804461E492046FFF79DFA1D49FF
:10AB90002046FFF72BFB042301AA4FF485714FF6E3
:10ABA000B270FDF7BFF8044617492046FFF78CFA4C
:10ABB00016492046FFF71AFB022301AA4FF48571BC
:10ABC0004FF6B370FDF7AEF8044611492046FFF783
:10ABD0007BFA10492046FFF709FB022301AA4FF434
:10ABE00085714FF6B470FDF79DF804460A4920467A
:10ABF000FFF76AFA09492046FFF7F8FA06B010BDD8
:10AC0000FFAC020021AD02004FAD020071AD0200A9
:10AC1000D7AC0200F9AC020027AD020049AD02003A
:10AC200010B586B0142101A8FBF7B5FA4FF6A07055
:10AC3000FDF7B0F8142301AA4FF485714FF6A17007
:10AC4000FDF770F8044609492046FFF73DFA084928
:10AC50002046FFF7CBFA142301AA4FF485714FF673
:10AC6000A270FDF75FF8044606B010BD93AD020078
:10AC700099AD020010B54FF400610448FDF7BEF82D
:10AC8000FFF716FEFFF756FF002010BD4091002091
:10AC9000F0B585B007460C46154614216846FBF70B
:10ACA0007AFA10216846FDF7B7FF064600208DF8B6
:10ACB00010006846FCF76CF844B126B92A4669468C
:10ACC0002046FBF773FA284605B0F0BD1020FBE7DD
:10ACD000034600207047F8B505460C46164600208E
:10ACE00000903CB10DEB050132462046FBF73AFAE5
:10ACF0003046F8BD0220FCE7034600207047F8B557
:10AD000005460C461646002000903CB10DEB0501AF
:10AD100032462046FBF726FA3046F8BD0520FCE710
:10AD2000034600207047F8B505460C46164600203D
:10AD300000903CB10DEB050132462046FBF712FABC
:10AD40003046F8BD0220FCE7034600207047F8B506
:10AD500005460C461646002000903CB10DEB05015F
:10AD600032462046FBF7FEF93046F8BD0420FCE7EA
:10AD700070B506460C461546042D01D0002070BD66
:10AD800004212046FEF70AF908B10020F7E7002069
:10AD9000F5E703460020704703460020704770B572
:10ADA00086B005460C461646142101A8FBF7F3F9B8
:10ADB00044B101A8411932462046FBF7D3F9304689
:10ADC00006B070BD1420FBE770B505460C4616466C
:10ADD0000A4801880AA0FBF7DBFF2088022804D17B
:10ADE00006480088DBF796FB06E02088012803D19F
:10ADF00002480088DBF78EFB002070BD48820020EF
:10AE000062745F626D5F6D6F64756C655F72785FB1
:10AE1000746F5F626C655F77726974655F63616CA4
:10AE20006C6261636B2068616E646C652025750DD2
:10AE30000A00000010B500F00BF8FEF7ADFAFFF7BE
:10AE40003BFB10BD034600207047034600207047BF
:10AE500070B500251B480088DBF748FAC01E86B293
:10AE600019480068012800D070BD1FE0174800682D
:10AE7000B04203DC1548008884B200E03446134831
:10AE80000068001B1149086000BF0E480088DBF70E
:10AE90002BFA0028F9D00E48421923460D480188A4
:10AEA00008480088DBF7BCFA281985B20748006813
:10AEB0000028DBDC0648FBF75BFF00200249086046
:10AEC00000BFD1E7488200204C820020748200201D
:10AED00040990020708200202DE9F04106460F467F
:10AEE000154698461EB115B12548006818B94FF0AF
:10AEF000FF30BDE8F081002F02DBB8F1000F02DA6D
:10AF00004FF0FF30F5E73A4631461EA0FBF740FF11
:10AF1000002420E01A48006850F8342039463046B2
:10AF2000FCF7E2FFB0B11648006800EBC4004068CF
:10AF300080B11348006800EBC40043462A463946F6
:10AF4000D0F804C03046E047294614A0FBF720FFA4
:10AF50000020CEE7641C154800688442DADB3946DD
:10AF6000304600F03FF8424611A12846FBF71EF993
:10AF700029460AA0FBF70CFF4FF0FF30B9E70000AD
:10AF8000B8820020696E70757420636D643A202564
:10AF900073206C656E3A2025640D0A006F7574701D
:10AFA00075743A2025730D0A00000000BC82002051
:10AFB0004E4F434D440D0A0000000000034603B10C
:10AFC00011B94FF0FF307047034803600348016038
:10AFD000034802600020F6E7B8820020BC8200200F
:10AFE000C082002070B504460D460748006800B9CD
:10AFF00070BD29462046044A1268904703A0FBF71B
:10B00000C7FE00BFF4E70000C082002075617274C3
:10B0100020646174612070726F636573730D0A0040
:10B0200070B50546002427E01848046822E0642033
:10B03000F6F786FD1548006800B91CE01348006863
:10B04000A04202D01148046814E000210F480268B1
:10B05000001D8154001F50230D4A0168001DFFF799
:10B060003BFF10B90A4800F063F800200749086068
:10B07000002400E0DBE700BF4FF0FF310548006827
:10B08000F7F7C8FB0028CFD170BD000094990020CD
:10B09000F0990020B48200201CB503220021012079
:10B0A000F6F79CFF094908600948012100238A023C
:10B0B000CDE9001007A10B48F7F7BCFC07240022DC
:10B0C00009492046F2F7B6FB1CBD0000B4820020FF
:10B0D000B08200207461736B5F756172745F64612C
:10B0E0007461000021B00200EDB0020070B50646A8
:10B0F00017E00E48FCF740FD044604B912E00B4887
:10B10000446404F0100060B106E008480068C5B26D
:10B11000284600F02BF800BF0448FCF723FD012867
:10B12000F3D1E6E700BF002070BD00000000024040
:10B1300070B5054615B94FF0FF3070BD00240DE025
:10B1400000BF0948FCF713FD0128FAD0295D064825
:10B15000FBF70CFE285D00B902E0641C502CEFDB0D
:10B1600000BF0020E9E700000000024038B50446B7
:10B17000002000901748006870B9694616480068BA
:10B18000F7F7E2F8009838B14FF0805013490860A3
:10B19000BFF34F8FBFF36F8F0E480068512809D25D
:10B1A0000C480168001D4454001F0068401C0949F8
:10B1B000086002E00020074908600648006850283F
:10B1C00007DB04480168001DFFF70CFF0020014960
:10B1D000086038BD94990020B482002004ED00E09E
:10B1E00070B504460D4600BF0548FCF7C0FC0128B9
:10B1F000FAD021780248FBF7B9FD002070BD0000AD
:10B200000000024013B50C4600216846FFF7E8FF36
:10B2100000981CBD10B505480079C0F3C000044972
:10B220000860FBF791FBFBF789FB10BD00000540B0
:10B230008081002010B5044600F05CF8FEF796F916
:10B2400010BD70B504460D46164601233246294608
:10B25000204600F001F870BD2DE9F84F834688467E
:10B26000144699465D46B9F1000F05D0C5F30C00B0
:10B2700038B10120BDE8F88F05F0030008B10120C6
:10B28000F8E714B104F0030008B10120F2E7FFF77A
:10B29000C1FFFBF78CFB25E0B4F5005F02D94FF44A
:10B2A000005000E020460746C246B9F1000F08D022
:10B2B000A5F58040C0F3453000900098FBF77CFB7B
:10B2C00000BF002606E05AF8041B05EB8600FBF7DA
:10B2D00057FB761CF81CB6EB900FF4D3B8443D44F2
:10B2E000E41B00BF002CD7D1FBF75CFB00F07CFD1A
:10B2F0000020BFE710B51048006800280DDD0E489B
:10B300000068401E0C4908600846006828B90B48D0
:10B310000B49C2690B4800F09EF80B4800680128F1
:10B3200004D1002211460520DBF7AEFB0748016877
:10B3300007A0FBF72DFD10BD5C8000200C800020D5
:10B3400000366E010000024064800020688000200A
:10B3500068656C6C6F2025640D0A00002DE9F047CC
:10B360000746884691469A463E684D46B8F1040F16
:10B3700002D1BAF1020F03D04FF0FF30BDE8F087E1
:10B38000072E12D10720FBF759FA0446B4F5487F7F
:10B3900008DDA4F5487064214843DF21B0FBF1F0DB
:10B3A000288010E0012028800DE02EB90020FBF756
:10B3B00045FA04462C8006E0012E04D10120FBF75B
:10B3C0003DFA04462C800020D8E700002DE9FF411B
:10B3D00006460F4614461D4600200090019002903C
:10B3E0000390074807A1C2696846FBF7E1FC2A46BB
:10B3F00069462046FAF7DAFE002004B0BDE8F08185
:10B400000C80002025750D0A000000002DE9F04198
:10B4100004460E461746984625680548C56100F063
:10B42000ADFA0220034908600020BDE8F081000069
:10B430000C8000205C8000202DE9F04104460E467F
:10B44000174698462568AAB200210620DBF71CFBA8
:10B450000020BDE8F08170B586B006460C46154662
:10B4600003208DF8040000208DF8050001208DF8E0
:10B47000060000208DF8070001208DF808008DF8E7
:10B4800009008DF80A0000208DF80B008DF80C00E3
:10B4900001208DF80D008DF80E0004940595102202
:10B4A00001A93046FCF76BFB06B070BD10B54FF438
:10B4B0000070FBF753FC00210320FBF797FB0021F2
:10B4C0000320FBF7A5FB04210220FBF78FFB0022E2
:10B4D00001210320FBF7C6FA03210020FBF718FB2C
:10B4E00003480449C2690448FFF7B5FF10BD0000D6
:10B4F0000C80002000366E010000024010B50446AA
:10B50000002010BD2DE9F84304460D461746984625
:10B51000264630780090012D03D04FF0FF30BDE873
:10B52000F8839DF8001038A0FBF732FC9DF800006E
:10B530003D4908709DF8000000F0010058B101215C
:10B540000D20FBF77DFA3948007800F001010D204D
:10B55000FBF7A2FA0DE0012200210D20FBF782FA91
:10B5600000210D20FBF76CFA002203210D20FBF7D0
:10B5700039FA9DF80000C0F3401058B101210920AC
:10B58000FBF75EFA29480078C0F340110920FBF769
:10B5900083FA0DE0012200210920FBF763FA002164
:10B5A0000920FBF74DFA002203210920FBF71AFAC4
:10B5B0009DF80000C0F3801058B101210A20FBF76C
:10B5C0003FFA1A480078C0F380110A20FBF764FAAA
:10B5D00003E000210A20FBF733FA9DF80000012167
:10B5E000B1EBD01F09D10B20FBF72AFA0F480078E6
:10B5F000C1090B20FBF750FA03E000210B20FBF7F9
:10B600001FFA00208BE7000073646B5F6770696F3F
:10B610005F636F6E6669675F777269746520307803
:10B6200025780D0A00000000648200206582002059
:10B6300010B5044606480068401C05490860FEF73E
:10B64000FBFE00BF00204FF08041086400BF10BD2A
:10B65000688000202DE9F8430746884614461D46B9
:10B660002646012D03D04FF0FF30BDE8F8830D20B2
:10B67000FBF7DDF99DF8001060F3000100919DF8E3
:10B68000000020F0020000909DF8000020F004006F
:10B6900000909DF8000020F0080000909DF8000048
:10B6A00020F0100000900920FBF7C1F99DF8001070
:10B6B00060F3451100919DF8000020F040000090DB
:10B6C0009DF8000020F0800000909DF80000307090
:10B6D0009DF8001002A0FBF75BFB0020C5E700000F
:10B6E00073646B5F6770696F5F7265616420307847
:10B6F00025780D0A000000002DE9F84304460D46A8
:10B70000174698462646012D03D04FF0FF30BDE87E
:10B71000F883307800909DF8001020A0FBF738FBEC
:10B720009DF80000234908709DF8000000F001001A
:10B7300020B900210D20FBF7AFF903E001210D2016
:10B74000FBF7AAF99DF80000C0F3401020B90021D2
:10B750000920FBF7A1F903E001210920FBF79CF97F
:10B760009DF80000C0F3801020B900210A20FBF7EB
:10B7700093F903E001210A20FBF78EF99DF8000000
:10B78000C00920B900210B20FBF786F903E0012155
:10B790000B20FBF781F90020B9E7000073646B5FB1
:10B7A0006770696F5F777269746520307825780DEE
:10B7B0000A000000658200201CB51448006800687B
:10B7C00013490968884206D110480068406810494A
:10B7D0004968884202D000F0D1F805E044220B48C5
:10B7E00001680B48FAF7BEFC094890F825000849A3
:10B7F00091F82410CDE90010054890F8233090F816
:10B80000222004A13130FBF7D3FA1CBD08800020B0
:10B810000C8000205476323331752D253032782556
:10B820003032782530327825303278002DE9F041F9
:10B8300088B00746884614461D46002004900590AF
:10B84000069007902646164890F82500144991F86E
:10B850002410134A92F82320114B93F82230CDE99B
:10B860000032CDE902100E4890F8213090F82020E7
:10B870000CA104A8FBF79CFA0D208DF81C000A20EF
:10B880008DF81D0000208DF81E002A4604A93046C0
:10B89000FAF78CFC0020705508B0BDE8F08100007C
:10B8A0000C800020253032782530327825303278EF
:10B8B0002530327825303278253032780D0A000074
:10B8C0002DE9F04706460D4691469A4637462846EA
:10B8D00005EBD0714FEA610800240BE0012000EB7A
:10B8E0004400385C17F8141040EA0110C1B2064851
:10B8F0000155641C444501DA062CEFDB00F03EF8EC
:10B900000020BDE8F08700002C8000202DE9F041E8
:10B9100006460F4614461D462A4603492046FAF7B6
:10B9200045FC0020BDE8F081148000202DE9F041A5
:10B9300004460D4616461F46102221460848FAF7CF
:10B9400035FC1022214606482930FAF72FFC002149
:10B9500003480838017600F011F80020BDE8F081B6
:10B96000148000202DE9F04104460D4616461F467E
:10B97000F1F73CFF0020BDE8F081000010B5442243
:10B98000054906480068FFF75CFC44220249034869
:10B99000006800F06BFB10BD0C80002008800020C8
:10B9A0002DE9F04104460E4617469846254628786C
:10B9B000054981F841006978034880F84210FFF793
:10B9C000DDFF0020BDE8F0810C8000202DE9F04172
:10B9D00005460E46174698462C46042E03D04FF0D7
:10B9E000FF30BDE8F08120780E490870607848701B
:10B9F000A078887008468378427801780AA0FBF71F
:10BA0000C7F908480178002000F0B9F905484178E5
:10BA1000022000F0B4F903488178042000F0AFF967
:10BA20000020DEE76082002073646B5F70776D5FDB
:10BA300077726974652025752025752025750D0A96
:10BA40000000000070B504460D462146024E08680D
:10BA50003060002070BD0000648000202DE9F84FA8
:10BA60008046894614469A46264604236A460021A3
:10BA7000084600F00DF805466846FAF70FFD074640
:10BA80002C2239463046FAF76DFB2846BDE8F88F80
:10BA90002DE9F0478046894614469A462546FBF72D
:10BAA00031F906464FF400420023FAF7D5FA054A69
:10BAB0001268801841F10001C5E900010020BDE8CD
:10BAC000F0870000508000202DE9F0438BB0044641
:10BAD0000F4690469946FBF715F905460E462C226F
